:1000000025C03FC03EC0F7C13CC03BC03AC039C06C
:10001000EFC437C036C0A8C434C07FC432C031C0BA
:1000200030C02FC02EC0CB05CF05D305D705E005C6
:10003000EC0501060706430647064C06550664060E
:10004000790682068F068F068F063F0611241FBE93
:10005000CFE5D4E0DEBFCDBF10E0A0E6B0E0EAE936
:10006000FFE002C005900D92A036B107D9F711E06C
:10007000A0E6B0E001C01D92AF31B107E1F7F8D2C0
:100080008AC7BECF969A95980895959A969808959E
:10009000969A959A0895969895980895939A949813
:1000A0000895949A93980895939A949A089593989A
:1000B00094980895A0E0B0E0EFE5F0E017C7EC01F8
:1000C0002A813B818A819B8162E070E0D7D6260F2E
:1000D000371F3E872D872C813D814E815F818A812C
:1000E0009B81AA2797FDA095BA2F820F931FA41F6B
:1000F000B51F8C839D83AE83BF8388858F5F888780
:1001000088858333D0F01886EF84F88809891A89A6
:100110006C817D818E819F8121E230E040E050E062
:10012000C0D6E20EF31E041F151FEF86F88A098B56
:100130001A8B1C821D821E821F821B821A822985B5
:100140003A858B859C858217930724F48B859C8543
:1001500001960AC029853A858B859C852817390721
:100160002CF48B859C8501979C878B878C8D8823AD
:1001700039F0823009F47EC0833009F088C082C033
:10018000CB84DC848D859E85C81AD90AE98CAB8D19
:10019000EB89FC890D851E856A8D2D893E894F89E5
:1001A000588DE01BF10BB0E0EA9F8001EB9F100D32
:1001B000FA9F100D1124FF24EC9CF001ED9CF00D32
:1001C000FC9CF00D11240E0F1F1F70E080E090E0EA
:1001D00022D6060F171F1983088388819981181664
:1001E00019061CF4EF8DF8A109C08881998197FF49
:1001F00003C0E9A1FAA102C0EDA1FEA10995888181
:1002000099819C01442737FD4095542F57FF07C023
:1002100050954095309521953F4F4F4F5F4FCA0104
:10022000B9012AE030E040E050E03BD63983288332
:1002300088819981845C99402CF084EC99E09983C1
:10024000888311C02D893E894F89588DC601AA2700
:1002500097FDA095BA2F820F931FA41FB51F8D8BFA
:100260009E8BAF8BB88F8D859E859C8B8B8B2881C9
:1002700039810FC0EBA1FCA1099586B597B599838B
:10028000888305C0EDA1FEA109951982188220E09E
:1002900030E0C901CDB7DEB7E8E044C69C9B07C09B
:1002A0008091630082FD03C09D9B0FC008C09C9994
:1002B00015C08091630082FF11C09D9906C0809196
:1002C000F8009091F900019605C08091F800909196
:1002D000F90001979093F9008093F8009D9B07C067
:1002E0008091630083FD03C09C990FC008C09D9955
:1002F00015C08091630083FF11C09C9B06C0809154
:10030000F8009091F900019605C08091F800909155
:10031000F90001979093F9008093F8009C9B04C02A
:1003200080916300846003C0809163008B7F809321
:1003300063009D9B04C080916300886003C080912E
:100340006300877F809363009A9B07C0809163005E
:1003500080FD03C09B9B0FC008C09A9915C0809177
:10036000630080FF11C09B9906C08091D1009091DD
:10037000D200019605C08091D1009091D2000197E2
:100380009093D2008093D1009B9B07C08091630023
:1003900081FD03C09A990FC008C09B9915C0809138
:1003A000630081FF11C09A9B06C08091D10090919B
:1003B000D200019605C08091D1009091D2000197A2
:1003C0009093D2008093D1009A9B04C080916300E7
:1003D000816003C0809163008E7F809363009B9B4C
:1003E00004C080916300826003C0809163008D7FB0
:1003F0008093630008951F920F920FB60F921124FD
:100400002F933F934F935F936F937F938F939F931C
:10041000AF93BF93EF93FF9341DFFF91EF91BF91B4
:10042000AF919F918F917F916F915F914F913F918C
:100430002F910F900FBE0F901F901895369A3699F6
:10044000FECF84B195B166E070E004D56093EC0016
:1004500087B18F5F87B9369A3699FECF84B195B14F
:1004600066E070E0F7D46093130187B1815087B9DB
:1004700008950F93DF93CF93CDB7DEB766970FB68E
:10048000F894DEBF0FBECDBFF8948091D800909154
:10049000D90089838091D8009091D900892F990F34
:1004A000990B8A837894F8948091DC009091DD0018
:1004B0008B838091DC009091DD00892F990F990B3F
:1004C0008C8378948091EB008D838091EC008E83F7
:1004D0008091ED008F83F8948091DE009091DF0091
:1004E000A091E000B091E10088878091DE009091BA
:1004F000DF00A091E000B091E100892F9A2FAB2F8F
:10050000BB27A7FDBA9589878091DE009091DF0017
:10051000A091E000B091E100CD01BB2797FDB0951F
:10052000AB2F8A878091DE009091DF00A091E000E0
:10053000B091E1008B2FBB2787FDB0959B2FAB2F90
:100540008B877894F8948091CF009091D00069E1E6
:1005500070E094D478948091620090E0860F911DB1
:10056000959587958C8760936200F894809103013C
:10057000909104018D878091030190910401892F4E
:10058000990F990B8E877894809112018F878091B3
:100590001301888B80911401898BF8948091050157
:1005A00090910601A0910701B09108018A8B80917A
:1005B000050190910601A0910701B0910801892FD2
:1005C0009A2FAB2FBB27A7FDBA958B8B8091050186
:1005D00090910601A0910701B0910801CD01BB27C0
:1005E00097FDB095AB2F8C8B809105019091060102
:1005F000A0910701B09108018B2FBB2787FDB09513
:100600009B2FAB2F8D8B7894F8948091F60090916E
:10061000F70069E170E032D478948091610090E055
:10062000860F911D959587958E8B6093610087E667
:1006300090E0BE016F5F7F4F46E123E000E0BAD358
:1006400066960FB6F894DEBF0FBECDBFCF91DF9197
:100650000F9108955498C09A8CE290E064E670E09F
:1006600085D2809164008830E1F7C098549A08954B
:10067000FF920F931F93CF93DF938EE781BB82BBD3
:1006800087E087BB88BB33E034BB8CE385BB9298A3
:1006900087E689B910BC81E08BB98CED8AB98EE808
:1006A00080BD81E383BD8AE085BD84EC99E097BD80
:1006B00086BD83EA8FBD3EBD1BBC1ABC19BC18BCED
:1006C00080EC87B987E886B9939A949A969A959A16
:1006D0001092D2001092D1001092D9001092D8003E
:1006E0001092DD001092DC001092E3001092E20004
:1006F0001092DB001092DA001092D3001092D40016
:100700001092D5001092D6001092D7001092E400FB
:100710001092E5001092E6001092E7001092D000CF
:100720001092CF002EE12093E80098E09093E9002A
:1007300084E08093EA001092EF001092EE00109295
:10074000F1001092F0001092F3001092F20010925B
:10075000F5001092F4003093EB001092F900109223
:10076000F800109200011092FF0010920401109204
:10077000030110920A0110920901109202011092D5
:1007800001011092FA001092FB001092FC001092EE
:10079000FD001092FE0010920B0110920C011092BD
:1007A0000D0110920E011092F7001092F6002093A6
:1007B0000F01909310018093110110921601109275
:1007C0001501109218011092170110921A0110923F
:1007D000190110921C0110921B013093120182E446
:1007E00090E0909316018093150185E490E090933A
:1007F00018018093170188E490E090931A01809388
:1008000019018BE490E090931C0180931B018EE40E
:1008100090E09093EF008093EE0081E590E090935C
:10082000F1008093F00084E590E09093F3008093D2
:10083000F20087E590E09093F5008093F40084E85F
:1008400089BF84E690E0F3D1C09880E29EE420E97D
:1008500031E0F9013197F1F70197D9F7929A78943D
:10086000929A1092EB00109212014BE0F42E1AE0D3
:10087000E5DDC098F092650080916500883041F018
:10088000809165008A3021F0809165008930A1F760
:1008900080916500883009F03DC084E690E042D246
:1008A0008823C1F1109260008091BB00882329F059
:1008B000833069F0843071F50DC04091BA0087E64D
:1008C00090E06AE970E020E000E074D201C0D1DD80
:1008D000C1DE20C080919A00282F30E080919B00DB
:1008E000D82FC0E02C2B3D2B2B3F31051CF02AEFDD
:1008F00030E006C08FEF2630380714F426E03FEFD3
:10090000F8943093D9002093D800309300012093BD
:10091000FF00789410936500ABCF1F920F920FB633
:100920000F9211242F933F934F935F936F937F9375
:100930008F939F93AF93BF93EF93FF938CE290E0DD
:1009400064E670E019D1FF91EF91BF91AF919F9153
:100950008F917F916F915F914F913F912F910F9068
:100960000FBE0F901F9018951F920F920FB60F9207
:1009700011242F933F934F935F936F937F938F93A4
:100980009F93AF93BF93EF93FF938CB164E670E0B6
:1009900065D180916500833049F48091BE008A3032
:1009A00011F4589803C08AE0809365008091650037
:1009B000883061F0809165008A3041F08091650057
:1009C000893021F0809165008C3009F4589AFF91AC
:1009D000EF91BF91AF919F918F917F916F915F91B7
:1009E0004F913F912F910F900FBE0F901F90189530
:1009F0001F920F920FB60F9211242F933F934F9394
:100A00005F936F937F938F939F93AF93BF93EF9376
:100A1000FF9386EF90E04EDB99BD88BD8FEC90E0B0
:100A200049DB9BBD8ABD84E690E0AED18091600039
:100A30008F5F8093600080916000823341F4109258
:100A4000D9001092D800109200011092FF00FF917F
:100A5000EF91BF91AF919F918F917F916F915F9136
:100A60004F913F912F910F900FBE0F901F901895AF
:100A700070E06827792720E030E041E050EACB01C0
:100A80009695879560FF04C0BC016427752701C057
:100A9000BC012F5F3F4F2830310589F7CB01089506
:100AA000CF93DF93EC0130E0A0E0B0E081E090EA8A
:100AB000F901F695E79520FF04C09F012827392703
:100AC00001C09F011196A830B10591F7E62FF0E023
:100AD000E227F327A0E0B0E081E090EA9F0136959D
:100AE0002795E0FF04C0F901E827F92701C0F901C3
:100AF0001196A830B10591F750E04E275F27E0E04E
:100B0000F0E0A1E0B0EA9A013695279540FF04C0D5
:100B1000A9014A275B2701C0A9013196E830F105F8
:100B200091F72097F9F06623E9F0FE0170E0A1E06B
:100B3000B0EA16C0808190E04827592780E090E015
:100B40009A013695279540FF04C0A9014A275B27E3
:100B500001C0A90101968830910591F77F5F319618
:100B6000761740F3CA01DF91CF910895FC01DB01B4
:100B70001C928AEA80830895CF93DF93DC01EB0116
:100B8000888190E08830910508F04EC08D5E9F4FBF
:100B9000FC010C94A30781E088838BEA30C082E0DB
:100BA00088838FA12CC083E088838BA128C08BA170
:100BB000882311F084E001C085E088838CA11FC0E8
:100BC00085E0888380911E01C80FD11D9B819C9375
:100BD0008F5F80931E0128C090911E018BA19817F2
:100BE00040F4C90FD11D8B818C939F5F90931E01A0
:100BF0001BC086E0888310921E018DA19EA18C935C
:100C000013C087E088838DA19EA19C930DC088E0CE
:100C1000888388A599A5AAA5BBA50196A11DB11D8C
:100C200088A799A7AAA7BBA7DF91CF910895FC0138
:100C3000009799F088E080838AE0818310A611A64E
:100C400012A613A6128211AA10AA14A615A616A6F9
:100C500017A613AA12AA15AA14AA0895CF93DF9370
:100C6000482FEB011A82898190E0FC013197EB302B
:100C7000F10508F054C0E55EFF4F0C94A3074A3A13
:100C800091F481E04BC04B3A71F482E047C083E0BD
:100C90008983C65ADF4F16C0403228F484E0898326
:100CA000CA5ADF4F0FC08AE039C0CA5ADF4F888165
:100CB000C655D040882311F085E001C086E08983C5
:100CC000C95ADF4F48832BC080911D01FB01E80FFB
:100CD000F11D46AB8F5F80931D01CA5ADF4F98818B
:100CE000C655D0408917D9F486E0898310921D013A
:100CF00016C087E08983842F90E0C85ADF4F99831C
:100D000088830DC0FB01E85AFF4F20813181942F69
:100D100080E0822B932B9183808388E08983DF910D
:100D2000CF910895CF93DF93EC01CA5ADF4F6991B9
:100D3000488123962881CA55D040CE01C6960E948C
:100D40005005C85ADF4F28813981C855D0408217D5
:100D5000930779F488E089838CA59DA5AEA5BFA5EE
:100D60000196A11DB11D8CA79DA7AEA7BFA781E0CD
:100D700008C088A999A9019699AB88AB8CE08983B2
:100D800080E0DF91CF910895FC018181883089F066
:100D900081818A3071F082818F5F828381508630B9
:100DA00040F0128282A993A9019693AB82AB89E0AD
:100DB00081830895EF92FF920F931F93CF93DF9358
:100DC000EC017B01142F0CA348A329A3CB01642FB2
:100DD000422F202F0E9450059BA38AA3812F815070
:100DE0008F3158F4E114F10441F0F894CE01B701C9
:100DF000412F50E00E9402077894CDB7DEB7E6E0BD
:100E00000C949407FB01DC0102C001900D9241504B
:100E10005040D8F70895629FD001739FF001829FE0
:100E2000E00DF11D649FE00DF11D929FF00D839F79
:100E3000F00D749FF00D659FF00D9927729FB00D16
:100E4000E11DF91F639FB00DE11DF91FBD01CF0129
:100E500011240895AA1BBB1B51E107C0AA1FBB1F89
:100E6000A617B70710F0A61BB70B881F991F5A9536
:100E7000A9F780959095BC01CD01089597FB092EA7
:100E800007260AD077FD04D0E5DF06D000201AF44B
:100E9000709561957F4F0895F6F7909581959F4FD6
:100EA000089597FB092E05260ED057FD04D051D08A
:100EB0000AD0001C38F450954095309521953F4F4D
:100EC0004F4F5F4F0895F6F7909580957095619517
:100ED0007F4F8F4F9F4F08952F923F924F925F9277
:100EE0006F927F928F929F92AF92BF92CF92DF923A
:100EF000EF92FF920F931F93CF93DF93CDB7DEB79F
:100F0000CA1BDB0B0FB6F894DEBF0FBECDBF099432
:100F10002A88398848885F846E847D848C849B8489
:100F2000AA84B984C884DF80EE80FD800C811B8197
:100F3000AA81B981CE0FD11D0FB6F894DEBF0FBEC6
:100F4000CDBFED010895EE0FFF1F0590F491E02D48
:100F50000994A1E21A2EAA1BBB1BFD010DC0AA1FFA
:100F6000BB1FEE1FFF1FA217B307E407F50720F012
:100F7000A21BB30BE40BF50B661F771F881F991F8D
:100F80001A9469F760957095809590959B01AC01D6
:0A0F9000BD01CF010895F894FFCFD2
:00000001FF
