:1000000012C02CC02BC02AC029C028C027C026C0BF
:10001000C9C1F3C223C0ACC321C083C31FC01EC06B
:100020001DC01CC01BC011241FBECFE5D4E0DEBF25
:10003000CDBF11E0A0E6B0E0EEE4F8E102C005902B
:100040000D92A836B107D9F712E0A8E6B1E001C0D9
:100050001D92AA32B107E1F7F3D2F7CBD1CFFC0161
:1000600010821182128213821482158216821782E4
:1000700011861086138612861586148616861786B4
:10008000108A118A138A128A80E090E0A0E8B0E416
:10009000848F958FA68FB78F80A391A3A2A3B3A3BC
:1000A00084A395A3A6A3B7A312A611A614A613A66C
:1000B00016A615A610AA17A683E080A70895959AFC
:1000C00096980895969A95980895969A959A08956F
:1000D000969895980895CF93DF93EC01AC89BD89EC
:1000E000EB8DFF27E7FDF095E80FF91F268988853E
:1000F00099854A855B858A0F9B1F841B950B332747
:1001000027FD3095821B930B9D8B8C8BEB8DFF27EE
:10011000E7FDF095888599852A853B85821BEC0F44
:10012000FD1F868B8B8D8F5F8B8F8B8D992787FD26
:10013000909570E0861797070CF01B8EDF91CF919A
:1001400008952F923F924F925F926F927F928F927B
:100150009F92AF92BF92CF92DF92EF92FF920F9356
:100160001F93DF93CF9300D000D000D0CDB7DEB780
:100170009E838D83FC0180819181A281B381248142
:10018000358146815781821B930B938782878081BB
:100190009181A281B38184839583A683B783CF01A4
:1001A000469609F4DCC080A5882339F0823009F432
:1001B000BFC0833009F0D3C0C8C0ED81FE81808507
:1001C000918522853385821B930B958B848BE284EA
:1001D000F38404851585A48CB58CC68CD78C648972
:1001E000758920A031A042A053A0668477848088BE
:1001F000918884A195A1A6A1B7A189839A83AB8395
:10020000BC83882777FD8095982FA0D89B01AC01EF
:10021000C601B501A6D75B016C01C401B30196D834
:100220009B01AC01C201B1019CD79B01AC01C6018D
:10023000B50170D75B016C01E01AF10A0027F7FCE9
:100240000095102FC801B70181D89B01AC016981CD
:100250007A818B819C8185D79B01AC01C601B50158
:100260002ED7CED8ED81FE81738B628B82899389E4
:10027000181619061CF481A592A504C0ED81FE8113
:1002800083A594A5009711F0FC010995ED81FE81ED
:100290008289938926B537B597FF03C090958195DC
:1002A0009F4F2817390730F486B597B5ED81FE8149
:1002B000938B828BED81FE8186859785A089B1899C
:1002C00024893589442737FD4095542F280F391F3D
:1002D0004A1F5B1F26873787408B518B8685978502
:1002E000A089B18989589341A040B0402CF088E89A
:1002F00093E1A0E0B0E00FC0ED81FE818685978597
:10030000A089B18988579C4EAF4FBF4F54F488E7FE
:100310009CEEAFEFBFEFED81FE8186879787A08BC4
:10032000B18BED81FE81828593859587848717C087
:10033000ED81FE8185A596A5FC01099586B597B549
:10034000ED81FE81938B828B0AC0ED81FE8187A5B2
:1003500090A9FC010995ED81FE81138A128AED8135
:10036000FE812289338937FF03C0309521953F4FA5
:10037000C90126960FB6F894DEBF0FBECDBFCF9150
:10038000DF911F910F91FF90EF90DF90CF90BF9082
:10039000AF909F908F907F906F905F904F903F9025
:1003A0002F9008951F920F920FB60F9211242F9342
:1003B0003F934F935F936F937F938F939F93AF93ED
:1003C000BF93EF93FF9380916A018F5F80936A01DF
:1003D000823039F48DE691E0B4DE99BD88BD10928B
:1003E0006A01809169018F5F80936901843639F4D5
:1003F0008091680180688093680110926901FF9183
:10040000EF91BF91AF919F918F917F916F915F918C
:100410004F913F912F910F900FBE0F901F90189505
:100420009C9B07C08091680182FD03C09D9B15C005
:1004300008C09C9925C08091680182FF21C09D99C8
:100440000CC080916D0190916E01A0916F01B091EF
:1004500070010196A11DB11D0BC080916D0190919D
:100460006E01A0916F01B09170010197A109B109CE
:1004700080936D0190936E01A0936F01B093700112
:100480009D9B07C08091680183FD03C09C9915C0A6
:1004900008C09D9925C08091680183FF21C09C9B65
:1004A0000CC080916D0190916E01A0916F01B0918F
:1004B00070010196A11DB11D0BC080916D0190913D
:1004C0006E01A0916F01B09170010197A109B1096E
:1004D00080936D0190936E01A0936F01B0937001B2
:1004E0009C9B04C080916801846003C08091680176
:1004F0008B7F809368019D9B04C080916801886018
:1005000003C080916801877F809368019A9B07C030
:100510008091680180FD03C09B9B15C008C09A991B
:1005200025C08091680180FF21C09B990CC08091FB
:10053000F9019091FA01A091FB01B091FC010196A3
:10054000A11DB11D0BC08091F9019091FA01A091FC
:10055000FB01B091FC010197A109B1098093F90158
:100560009093FA01A093FB01B093FC019B9B07C001
:100570008091680181FD03C09A9915C008C09B99BC
:1005800025C08091680181FF21C09A9B0CC0809199
:10059000F9019091FA01A091FB01B091FC01019643
:1005A000A11DB11D0BC08091F9019091FA01A0919C
:1005B000FB01B091FC010197A109B1098093F901F8
:1005C0009093FA01A093FB01B093FC019A9B04C0A5
:1005D00080916801816003C0809168018E7F809363
:1005E00068019B9B04C080916801826003C0809178
:1005F00068018D7F8093680108951F920F920FB656
:100600000F9211242F933F934F935F936F937F9398
:100610008F939F93AF93BF93EF93FF9301DFFF916E
:10062000EF91BF91AF919F918F917F916F915F916A
:100630004F913F912F910F900FBE0F901F901895E3
:10064000FF920F931F938EE781BB82BB87E087BB2E
:1006500088BB14BA8CE385BB929883E089B910BC3F
:100660001BB888ED8AB98EE880BD939A949A969AC1
:10067000959A89EF91E0F3DC8DE691E0F0DC8FE56F
:1006800090E0909397018093960182E690E090939A
:1006900099018093980185E690E090939B01809367
:1006A0009A0188E690E090939D0180939C018EE9E9
:1006B00091E032D2C09880E29EE420E931E0F90175
:1006C0003197F1F70197D9F7929A7894929A84E04A
:1006D000F82E1AE0C09880919F018830E1F7809150
:1006E000F5018823D9F482B38F2582BB4091F401B0
:1006F00081EA91E064ED71E020E000E0DDD0549803
:10070000C09A8CE290E06EE971E017D180919E0171
:100710008830E1F7C098549A80939E0110939F010E
:10072000D9CF1F920F920FB60F9211242F933F93A0
:100730004F935F936F937F938F939F93AF93BF93E9
:10074000EF93FF938CE290E06EE971E00ED1FF91A0
:10075000EF91BF91AF919F918F917F916F915F9139
:100760004F913F912F910F900FBE0F901F901895B2
:100770001F920F920FB60F9211242F933F934F9316
:100780005F936F937F938F939F93AF93BF93EF93F9
:10079000FF935C9B09C08091D2019091D301019697
:1007A0009093D3018093D2018CB16EE971E0E7D1CF
:1007B000FF91EF91BF91AF919F918F917F916F9139
:1007C0005F914F913F912F910F900FBE0F901F900F
:1007D0001895DF93CF9300D000D00F92CDB7DEB73E
:1007E0009C838B836D838D81282F30E08B819C814E
:1007F000822793279C838B831A8219821DC08B8149
:100800009C8181709070882361F08B819C819C0118
:100810003695279581E090EA822793279C838B83E6
:1008200006C08B819C81969587959C838B8389815B
:100830009A8101969A83898389819A81883091056A
:10084000F4F28B819C810F900F900F900F900F907E
:10085000CF91DF910895DF93CF9300D000D000D0E7
:10086000CDB7DEB79D838C836E831A8219821B827B
:1008700014C08B81282F30E08C819D81FC01E20F18
:10088000F31F8081882F90E02981622F0E94E90365
:100890009A8389838B818F5F8B839B818E8198174D
:1008A00040F389819A8126960FB6F894DEBF0FBE79
:1008B000CDBFCF91DF9108950F93DF93CF93CDB745
:1008C000DEB727970FB6F894DEBF0FBECDBF9A8371
:1008D00089837C836B834D832E830F83E981FA8127
:1008E0008F8184A3E981FA818D8180A3E981FA81D6
:1008F0008E8181A3CE0103966D810E942B04E98134
:10090000FA8193A382A38D81803268F449815A8150
:100910008D81E82FF0E09E012D5F3F4FCA01B901A4
:10092000AF010E94E50B27960FB6F894DEBF0FBE0D
:10093000CDBFCF91DF910F910895DF93CF9300D07A
:1009400000D0CDB7DEB79A8389837C836B83EB813C
:10095000FC811082E981FA818AEA80830F900F90EE
:100960000F900F90CF91DF910895DF93CF9300D038
:1009700000D000D0CDB7DEB79A8389837C836B83A8
:10098000EB81FC818081282F30E03E832D838D8197
:100990009E818330910509F44BC02D813E81243026
:1009A00031057CF48D819E818130910559F12D8135
:1009B0003E81223031058CF58D819E810097C9F0F2
:1009C000A2C02D813E812530310509F453C08D81AF
:1009D0009E8185309105BCF12D813E812630310507
:1009E00009F470C08D819E818730910509F478C02B
:1009F0008AC0EB81FC8181E08083E981FA818BEA06
:100A0000808381C0EB81FC8182E08083EB81FC816B
:100A100087A1E981FA81808376C0EB81FC8183E044
:100A20008083EB81FC8183A1E981FA8180836BC0A3
:100A3000EB81FC8184E08083EB81FC8184A1E981EE
:100A4000FA81808360C0EB81FC8185E080834091E6
:100A50006B01242F30E08B819C81820F931FFC015E
:100A600033968081E981FA818083842F8F5F809320
:100A70006B0149C0EB81FC8193A180916B018917C7
:100A800098F440916B01242F30E08B819C81820F80
:100A9000931FFC0133968081E981FA818083842F42
:100AA0008F5F80936B012FC0EB81FC8186E0808398
:100AB00010926B01EB81FC8185A196A1E981FA81FD
:100AC000808321C0EB81FC8187E08083EB81FC8106
:100AD00085A196A1892F9927E981FA81808313C086
:100AE000EB81FC8188E08083EB81FC8180A591A56E
:100AF000A2A5B3A50196A11DB11DEB81FC8180A724
:100B000091A7A2A7B3A726960FB6F894DEBF0FBE93
:100B1000CDBFCF91DF910895DF93CF9300D0CDB7B4
:100B2000DEB79A83898389819A81009719F1E981D7
:100B3000FA8188E08083E981FA818AE08183E98112
:100B4000FA8110A611A612A613A6E981FA811282D3
:100B5000E981FA8111AA10AAE981FA8114A615A6E1
:100B600016A617A6E981FA8113AA12AAE981FA81C9
:100B700015AA14AA0F900F90CF91DF910895DF93DB
:100B8000CF93CDB7DEB729970FB6F894DEBF0FBE6F
:100B9000CDBF8D837F836E83EE81FF811282EE81D4
:100BA000FF818181282F30E03987288788859985C2
:100BB0008430910509F469C02885398525303105CF
:100BC00094F4888599858230910509F43EC0288582
:100BD0003985233031050CF044C0888599858130F2
:100BE000910531F1E6C0288539852630310509F4B3
:100BF0007AC088859985863091050CF452C0288585
:100C000039852730310509F47DC0888599858A307A
:100C1000910509F0CEC08D818A3A29F4EE81FF81D9
:100C200081E08183C6C0EE81FF818AE08183C1C0FB
:100C30008D818B3A29F4EE81FF8182E08183B9C0F6
:100C4000EE81FF818AE08183B4C0EE81FF8183E081
:100C500081838E819F81FC01E65AFF4F8D818083C5
:100C6000A8C08D81803260F4EE81FF8184E08183B1
:100C70008E819F81FC01EA5AFF4F8D81808399C04C
:100C8000EE81FF818AE0818394C0EE81FF8185E05F
:100C900081838E819F81FC01E95AFF4F8D81808382
:100CA00088C040916C01242F30E08E819F81820F9B
:100CB000931FFC01F6968D818083842F8F5F809334
:100CC0006C018E819F81FC01EA5AFF4F90818091D7
:100CD0006C01981709F06DC0EE81FF8186E0818379
:100CE00010926C0166C0EE81FF8187E081838D8167
:100CF000282F30E08E819F81FC01E85AFF4F31831D
:100D0000208357C08D81882F90E09C838B838E81B8
:100D10009F81FC01E85AFF4F208131818B819C81AA
:100D2000982F8827282B392B8E819F81FC01E85A28
:100D3000FF4F318320838E819F819C012A5C3F4F2E
:100D40008E819F81FC01EA5AFF4F4081C901642FC7
:100D50000E942B049A8389838E819F81FC01E85A2B
:100D6000FF4F2081318189819A8128173907A1F4A9
:100D7000EE81FF8188E08183EE81FF8184A595A5C6
:100D8000A6A5B7A50196A11DB11DEE81FF8184A77F
:100D900095A7A6A7B7A70DC0EE81FF8180A991A94D
:100DA0000196EE81FF8191AB80ABEE81FF818AE0FD
:100DB000818329960FB6F894DEBF0FBECDBFCF91C9
:100DC000DF910895DF93CF9300D000D0CDB7DEB789
:100DD0009A838983E981FA818181883011F1E981DF
:100DE000FA8182818C831B828C818B3010F081E0B0
:100DF0008B838C818F5FE981FA8182838B81882349
:100E000081F0E981FA811282E981FA8182A993A9AC
:100E10000196E981FA8193AB82ABE981FA8189E09D
:100E200081830F900F900F900F90CF91DF910895D5
:100E3000A0E0B0E0EDE1F7E0D1C4DC012B01FA0164
:100E40009C91923008F436C1EB018881823008F41D
:100E500030C1943061F4843009F02CC1FD019181DE
:100E60008981981709F426C1A0E6B0E023C1843037
:100E700009F41FC18230A9F4923009F01BC19A0114
:100E8000AD0188E0EA010990AE01E90109929E01F5
:100E90008150C1F7E2018981ED0199818923818324
:100EA00006C1923009F405C1ED012A803B80EB01B7
:100EB0008A819B81ED01AC80BD80CE80DF80EB011B
:100EC000EC80FD800E811F819101281B390BB90137
:100ED00037FF04C066277727621B730B60327105EA
:100EE0000CF061C0121613066CF537014801062E8E
:100EF00004C096948794779467940A94D2F721E07B
:100F000030E040E050E004C0220F331F441F551F63
:100F10006A95D2F721503040404050402E213F2169
:100F200040235123211531054105510521F021E0D0
:100F300030E040E050E079018A01E628F7280829EE
:100F400019293CC0232BD1F1260E371E350146014D
:100F5000062E04C096948794779467940A94D2F7E7
:100F600021E030E040E050E004C0220F331F441F76
:100F7000551F6A95D2F721503040404050402A21F9
:100F80003B214C215D21211531054105510521F001
:100F900021E030E040E050E059016A01A628B7287E
:100FA000C828D9280BC0821593052CF01C01AA244F
:100FB000BB24650103C0EE24FF248701ED01998164
:100FC000E2018981981709F445C0992339F0A801F5
:100FD00097012A193B094C095D0906C0A601950134
:100FE0002E193F09400B510B57FD08C01182338267
:100FF000228224833583468357831DC081E0818309
:101000003382228288279927DC01821B930BA40B51
:10101000B50B84839583A683B7830DC0220F331F3E
:10102000441F551F248335834683578382819381D0
:101030000197938382832481358146815781DA0128
:10104000C9010197A109B1098F5F9F4FAF4FBF43FE
:1010500028F30BC0918333822282EA0CFB1C0C1D07
:101060001D1DE482F5820683178383E0808324813B
:1010700035814681578157FF1AC0C901AA2797FDBC
:10108000A095BA2F81709070A070B070569547955A
:1010900037952795822B932BA42BB52B848395838F
:1010A000A683B78382819381019693838283DF0134
:1010B00001C0D201CD01CDB7DEB7E2E1ABC3A0E202
:1010C000B0E0E4E6F8E096C369837A838B839C837F
:1010D0002D833E834F835887E9E0EE2EF12CEC0EF2
:1010E000FD1ECE010196B70100D38E010F5E1F4F8A
:1010F000CE010596B801F9D28A8991E089278A8BB9
:10110000C701B801AE01475E5F4F92DE19D2A096CB
:10111000E6E08CC3A0E2B0E0EFE8F8E06BC36983DF
:101120007A838B839C832D833E834F835887F9E09A
:10113000EF2EF12CEC0EFD1ECE010196B701D5D29B
:101140008E010F5E1F4FCE010596B801CED2C701AA
:10115000B801AE01475E5F4F6BDEF2D1A096E6E0CC
:1011600065C3A0E2B0E0E6EBF8E038C369837A83B8
:101170008B839C832D833E834F835887CE010196BA
:10118000BE01675F7F4FB1D2CE010596BE016F5E93
:101190007F4FABD29985923088F089898230C8F030
:1011A000943019F4823051F404C0843029F4923020
:1011B00081F480E690E0C6C0923049F420E09A8540
:1011C0008A89981321E02A87CE010996BBC0823014
:1011D00049F420E09A858A89981321E02A8BCE0170
:1011E0004196B0C02D843E844F8458886D887E8897
:1011F0008F88988CEE24FF248701AA24BB246501E4
:1012000040E050E060E070E0E0E0F0E0C1018170BB
:101210009070892BE9F0E60CF71C081D191D9A0146
:10122000AB012A0D3B1D4C1D5D1D80E090E0A0E050
:10123000B0E0E614F7040805190520F481E090E019
:10124000A0E0B0E0BA01A901480F591F6A1F7B1F37
:10125000AA0CBB1CCC1CDD1C97FE08C081E090E0F2
:10126000A0E0B0E0A82AB92ACA2ADB2A3196E032E7
:10127000F10549F0660C771C881C991C569447941C
:1012800037942794C3CFFA85EA892B893C898B85CB
:101290009C85280F391F2E5F3F4F17C0CA018170F0
:1012A0009070892B61F016950795F794E79480E08C
:1012B00090E0A0E0B0E8E82AF92A0A2B1B2B7695EB
:1012C0006795579547952F5F3F4F77FDE7CF0CC048
:1012D000440F551F661F771F17FD4160EE0CFF1C62
:1012E000001F111F21503040403090E0590790E01E
:1012F000690790E4790760F32B8F3C8FDB01CA010B
:101300008F779070A070B07080349105A105B10501
:1013100061F447FD0AC0E114F1040105110529F04B
:10132000405C5F4F6F4F7F4F40781A8EFE1711F071
:1013300081E08A8F4D8F5E8F6F8F78A383E0898FD6
:10134000CE014996FDD0A096E2E164C2A8E0B0E0EB
:10135000EBEAF9E04CC29B01AC0183E08983DA013E
:10136000C9018827B7FD83959927AA27BB27B82EDF
:10137000211531054105510519F482E0898339C0F1
:101380008823A9F0203080E0380780E0480780E813
:10139000580729F460E070E080E09FEC2EC0EE2456
:1013A000FF248701E21AF30A040B150B02C079012E
:1013B0008A018EE1C82ED12CDC82CB82ED82FE82A6
:1013C0000F831887C801B7016CD00197181619064A
:1013D00084F4082E04C0EE0CFF1C001F111F0A9499
:1013E000D2F7ED82FE820F831887C81AD90ADC82F1
:1013F000CB82BA82CE010196A3D02896E9E013C22F
:10140000ACE0B0E0E5E0FAE0F9C169837A838B8370
:101410009C83CE010196BE016B5F7F4F66D18D81AB
:10142000823061F1823050F1843021F48E81882342
:1014300051F12EC02F81388537FD20C06E812F31AC
:1014400031051CF06623F9F023C08EE190E0821B89
:10145000930B29853A854B855C8504C05695479545
:10146000379527958A95D2F76623B1F05095409528
:10147000309521953F4F4F4F5F4F0EC020E030E039
:1014800040E050E009C02FEF3FEF4FEF5FE704C0AF
:1014900020E030E040E050E8B901CA012C96E2E0DB
:1014A000C9C1EF92FF920F931F937B018C0180E0E3
:1014B000E81680E0F80681E0080780E0180788F465
:1014C0008FEFE816F1040105110531F028F088E0EE
:1014D00090E0A0E0B0E017C080E090E0A0E0B0E0D5
:1014E00012C080E0E81680E0F80680E0080781E09E
:1014F000180728F088E190E0A0E0B0E004C080E1A7
:1015000090E0A0E0B0E020E230E040E050E0281BB6
:10151000390B4A0B5B0B04C016950795F794E794BB
:101520008A95D2F7F701E859FF4F8081281B3109CE
:1015300041095109C9011F910F91FF90EF90089542
:10154000DF92EF92FF920F931F93FC01E480F580EE
:1015500006811781D1808081823048F480E090E05C
:10156000A0E1B0E0E82AF92A0A2B1B2BA5C08430A1
:1015700009F49FC0823021F4EE24FF24870105C0C6
:10158000E114F1040105110519F4E0E0F0E096C062
:10159000628173819FEF623879070CF05BC022E8AB
:1015A0003FEF261B370B2A3131052CF020E030E0CD
:1015B00040E050E02AC0B801A701022E04C0769591
:1015C0006795579547950A94D2F781E090E0A0E09F
:1015D000B0E004C0880F991FAA1FBB1F2A95D2F73D
:1015E0000197A109B1098E219F21A023B123009762
:1015F000A105B10521F081E090E0A0E0B0E09A0102
:10160000AB01282B392B4A2B5B2BDA01C9018F77D1
:101610009070A070B07080349105A105B10539F4C7
:1016200027FF09C0205C3F4F4F4F5F4F04C0215C34
:101630003F4F4F4F5F4FE0E0F0E02030A0E03A072F
:10164000A0E04A07A0E45A0710F0E1E0F0E07901D9
:101650008A0127C06038710564F5FB01E158FF4F2E
:10166000D801C7018F779070A070B0708034910559
:10167000A105B10539F4E7FE0DC080E490E0A0E0DB
:10168000B0E004C08FE390E0A0E0B0E0E80EF91E07
:101690000A1F1B1F17FF05C016950795F794E794BF
:1016A000319687E016950795F794E7948A95D1F7D8
:1016B00005C0EE24FF248701EFEFF0E06E2F679561
:1016C00066276795902F9F77D794DD24D7948E2F28
:1016D0008695492F462B582F5D29B701CA011F91C6
:1016E0000F91FF90EF90DF900895FC01DB014081A6
:1016F00051812281622F6F7770E0221F2227221FE3
:101700009381892F880F822B282F30E0991F9927EA
:10171000991FFD0191832115310581F54115510571
:101720006105710511F482E032C082E89FEFFD018E
:10173000938382839A01AB0167E0220F331F441F1A
:10174000551F6A95D1F783E08C930AC0220F331F8F
:10175000441F551FFD0182819381019793838283EA
:101760002030F0E03F07F0E04F07F0E45F0770F350
:10177000FD01248335834683578308952F3F310528
:1017800081F4411551056105710519F484E08C93CC
:10179000089564FF03C081E08C9301C01C92FD0199
:1017A0000FC02F573040FD013383228383E08C9399
:1017B00087E0440F551F661F771F8A95D1F7706425
:1017C00044835583668377830895FB01DC0102C05F
:1017D00001900D9241505040D8F708952F923F92BA
:1017E0004F925F926F927F928F929F92AF92BF9231
:1017F000CF92DF92EF92FF920F931F93CF93DF93DD
:10180000CDB7DEB7CA1BDB0B0FB6F894DEBF0FBE39
:10181000CDBF09942A88398848885F846E847D8486
:101820008C849B84AA84B984C884DF80EE80FD8088
:101830000C811B81AA81B981CE0FD11D0FB6F894FE
:0E184000DEBF0FBECDBFED010895F894FFCFBF
:10184E000000000000000000000102020303030379
:10185E000404040404040404050505050505050532
:10186E000505050505050505060606060606060612
:10187E0006060606060606060606060606060606FA
:10188E0006060606060606060707070707070707E2
:10189E0007070707070707070707070707070707CA
:1018AE0007070707070707070707070707070707BA
:1018BE0007070707070707070707070707070707AA
:1018CE000707070707070707080808080808080892
:1018DE00080808080808080808080808080808087A
:1018EE00080808080808080808080808080808086A
:1018FE00080808080808080808080808080808085A
:10190E000808080808080808080808080808080849
:10191E000808080808080808080808080808080839
:10192E000808080808080808080808080808080829
:10193E000808080808080808080808080808080819
:08194E00080808080808080851
:00000001FF
