:1000000012C02CC02BC02AC029C028C027C026C0BF
:100010006FC082C123C067C221C03EC21FC01EC0C4
:100020001DC01CC01BC011241FBECFE5D4E0DEBF25
:10003000CDBF10E0A0E6B0E0E2E7F9E002C0059035
:100040000D92A036B107D9F711E0A0E6B0E001C0EB
:100050001D92A630B107E1F790D189C4D1CFFC0140
:1000600012821382148215821682178210861186DC
:100070001386128615861486118A108A128A138AAC
:10008000148A158A84E0868B878B808F158E148E58
:10009000178E168E11A210A213A212A283E0818FD6
:1000A0000895959A96980895969A95980895969A8F
:1000B000959A0895969895980895CF93DF93EC01BB
:1000C000898D823019F0833071F408C0E8A1F9A15C
:1000D000099586B597B59983888305C0EAA1FBA1E8
:1000E00009951982188280E090E0DF91CF91089500
:1000F0001F920F920FB60F9211242F933F934F939D
:100100005F936F937F938F939F93AF93BF93EF937F
:10011000FF9383E690E0D1DF99BD88BDFF91EF9119
:10012000BF91AF919F918F917F916F915F914F910F
:100130003F912F910F900FBE0F901F9018959C9B91
:1001400007C08091600082FD03C09D9B15C008C060
:100150009C9925C08091600082FF21C09D990CC0B0
:100160008091650090916600A0916700B091680051
:100170000196A11DB11D0BC0809165009091660094
:10018000A0916700B09168000197A109B10980931F
:10019000650090936600A0936700B09368009D9BF4
:1001A00007C08091600083FD03C09C9915C008C002
:1001B0009D9925C08091600083FF21C09C9B0CC04D
:1001C0008091650090916600A0916700B0916800F1
:1001D0000196A11DB11D0BC0809165009091660034
:1001E000A0916700B09168000197A109B1098093BF
:1001F000650090936600A0936700B09368009C9B95
:1002000004C080916000846003C0809160008B7F97
:10021000809360009D9B04C080916000886003C053
:1002200080916000877F809360009A9B07C08091D7
:10023000600080FD03C09B9B15C008C09A9925C033
:100240008091600080FF21C09B990CC08091E400E8
:100250009091E500A091E600B091E7000196A11D04
:10026000B11D0BC08091E4009091E500A091E600E3
:10027000B091E7000197A109B1098093E400909340
:10028000E500A093E600B093E7009B9B07C0809138
:10029000600081FD03C09A9915C008C09B9925C0D4
:1002A0008091600081FF21C09A9B0CC08091E40086
:1002B0009091E500A091E600B091E7000196A11DA4
:1002C000B11D0BC08091E4009091E500A091E60083
:1002D000B091E7000197A109B1098093E4009093E0
:1002E000E500A093E600B093E7009A9B04C08091DC
:1002F0006000816003C0809160008E7F8093600009
:100300009B9B04C080916000826003C0809160006C
:100310008D7F8093600008951F920F920FB60F9209
:1003200011242F933F934F935F936F937F938F93FA
:100330009F93AF93BF93EF93FF9301DFFF91EF91F3
:10034000BF91AF919F918F917F916F915F914F91ED
:100350003F912F910F900FBE0F901F9018955498BA
:10036000C09A8CE290E067E870E099D180918700B4
:100370008830E1F7C098549A0895EF92FF920F9356
:100380001F938EE781BB82BB87E087BB88BB14BA13
:100390008CE385BB929823E029B910BC81E08BB92E
:1003A0008CED8AB98EE880BD82E083BF82E382BF94
:1003B00082EE94E097BD86BD88EE93E097BD86BD42
:1003C00083EA8FBD2EBD1BBC1ABC19BC18BC939A06
:1003D000949A969A959A82EE90E041DE83E690E0B8
:1003E0003EDE81E590E09093800080937F0084E57D
:1003F00090E0909382008093810087E590E0909355
:100400008400809383008AE590E090938600809337
:1004100085008EE085BD8EE483BD12BC85E089BF7A
:1004200087E890E0A0D1C09880E29EE420E931E026
:10043000F9013197F1F70197D9F7929A7894929A46
:100440009BE0E92E84E0F82E1AE0C098E092880044
:1004500080918800883041F0809188008C3021F0B4
:10046000809188008A30A1F780918800883089F4D3
:100470008091DE00882369F482B38F2582BB40918E
:10048000DD008AE890E06DEB70E020E000E03ED215
:1004900066DF10938800D9CF1F920F920FB60F928C
:1004A00011242F933F934F935F936F937F938F9379
:1004B0009F93AF93BF93EF93FF938CE290E067E835
:1004C00070E0F3D0FF91EF91BF91AF919F918F9129
:1004D0007F916F915F914F913F912F910F900FBE40
:1004E0000F901F9018951F920F920FB60F92112424
:1004F0002F933F934F935F936F937F938F939F932C
:10050000AF93BF93EF93FF935C9B09C08091BB00B7
:100510009091BC0001969093BC008093BB008CB17D
:1005200067E870E037D180918800833049F480918A
:10053000E1008A3011F4589803C08AE08093880063
:1005400080918800883061F0809188008A3041F085
:1005500080918800893021F0809188008C3009F4E6
:10056000589AFF91EF91BF91AF919F918F917F9199
:100570006F915F914F913F912F910F900FBE0F9010
:100580001F90189570E06827792780E090E021E0BF
:1005900030EA08C076956795622773270196883000
:1005A000910541F060FDF6CF76956795019688300C
:1005B0009105C1F7CB0108951F93782F192F30E0D3
:1005C000E0E0F0E0A1E0B0EA08C0369527952A27E0
:1005D0003B273196E830F10541F020FDF6CF369506
:1005E00027953196E830F105C1F7E62FF0E0E227D4
:1005F000F32720E030E0A1E0B0EA09C0F695E795E6
:10060000EA27FB272F5F3F4F2830310549F0E0FDF7
:10061000F5CFF695E7952F5F3F4F28303105B9F7B5
:1006200050E04E275F2780E090E021E030EA08C0EC
:10063000569547954227532701968830910541F0FA
:1006400040FDF6CF56954795019688309105C1F744
:10065000662311F1872F912F9C01F90121E030EAE7
:10066000808190E04827592780E090E008C05695A7
:1006700047954227532701968830910541F040FD68
:10068000F6CF56954795019688309105C1F731967A
:100690008E2F871B861720F3CA011F910895FC0136
:1006A000DB011C928AEA80830895DC01FB018081D2
:1006B000833009F44BC0843048F0853079F18530BF
:1006C00070F08630C1F18730D9F008958130C9F1DA
:1006D000823088F083E0808383A18C93089585E045
:1006E000808380916200E80FF11D93819C938F5F5E
:1006F00080936200089581E080838BEA8C93089553
:1007000088E0808380A591A5A2A5B3A50196A11D2F
:10071000B11D80A791A7A2A7B3A7089583A1909127
:1007200062009817C0F4E90FF11D83818C939F5FDD
:1007300090936200089587E0808385A196A19C93A1
:10074000089582E0808387A18C93089584E080835C
:1007500084A18C93089586E080831092620085A125
:1007600096A18C930895FC01009799F088E080830E
:100770008AE0818310A611A612A613A6128211AADE
:1007800010AA14A615A616A617A613AA12AA15AA89
:1007900014AA08950F931F93CF93DF93482FEB0173
:1007A0001A828981843009F455C0853078F086300A
:1007B000D1F1863018F1873009F45BC08B3009F431
:1007C00053C0DF91CF911F910F9108958230C1F1F5
:1007D000833040F0403258F484E08983CA5ADF4FB6
:1007E0004883EFCF813069F74B3A09F468C08AE05B
:1007F0008983DF91CF911F910F91089580916100BE
:10080000FB01E80FF11D46AB8F5F80936100CA5A70
:10081000DF4F9881C655D040891799F686E08983C5
:1008200010926100CECF87E08983842F90E0C85A70
:10083000DF4F99838883DF91CF911F910F910895A6
:1008400083E08983C65ADF4F4883DF91CF911F91A0
:100850000F91089585E08983C95ADF4F4883DF915E
:10086000CF911F910F9108954A3A09F681E089834B
:10087000A8CF8B01085A1F4FF80120813181942F96
:1008800080E0822B932B91838083CA5ADF4F69913A
:10089000488123962881CA55D040CE01C6960E9431
:1008A000DC02F801208131818217930759F088A971
:1008B00099A9019699AB88AB8CE0898382CF82E0BD
:1008C00089837FCF88E089838CA59DA5AEA5BFA530
:1008D0000196A11DB11D8CA79DA7AEA7BFA771CF83
:1008E000FC018181883089F081818A3071F08281B8
:1008F0008F5F82838150833040F0128282A993A956
:10090000019693AB82AB89E081830895EF92FF92C9
:100910000F931F93CF93DF93EC01F62EE72E142F46
:100920000CA348A329A3862F972F642F422F202F93
:100930000E94DC029BA38AA3812F81508F3138F45F
:10094000CE016F2D7E2D412F50E00E94AE04DF912D
:10095000CF911F910F91FF90EF900895FB01DC0163
:1009600002C001900D9241505040D8F70895F8947C
:02097000FFCFB7
:00000001FF
