:1000000025C03FC03EC00EC23CC03BC03AC039C054
:1000100030C137C036C043C434C01AC432C031C046
:1000200030C02FC02EC026052A052E0532053B05FF
:1000300047055C0562059E05A205A705B005BF053D
:10004000D405DD05EA05EA05EA059A0511241FBE77
:10005000CFE5D4E0DEBFCDBF10E0A0E6B0E0EEED2E
:10006000FDE002C005900D92A036B107D9F711E06E
:10007000A0E6B0E001C01D92A231B107E1F711D3B3
:10008000ACC6BECFFC011382128215821482118687
:1000900010861786168617821682108A118A128A8F
:1000A000138A118210828AE0848B93E0958B81E021
:1000B000868B138E128E158E148E178E168E11A2AD
:1000C00010A2978B0895969A95980895959A969868
:1000D0000895969A959A0895969895980895939A62
:1000E00094980895949A93980895939A949A089559
:1000F000939894980895A0E0B0E0E0E8F0E03AC664
:10010000EC012A813B818A819B8162E070E015D6F7
:10011000260F371F398728872C813D818E819F814B
:10012000821793072CF48E819F8101969F838E8383
:100130002C813D818E819F81281739072CF48E8177
:100140009F8101979F838E830A851B852C853D8522
:100150008885998562E370E0F0D5882777FD8095E2
:10016000982F600F711F821F931F6A877B878C8770
:100170009D871B821A828F89882339F0823009F487
:1001800064C0833009F06EC068C0CE80DF8088858F
:100190009985C81AD90A0C89AE89EE85FF85E8844D
:1001A000F9846D89288939894A895B89EE19FF09A3
:1001B000B0E0EA9F7001EB9FF00CFA9FF00C112465
:1001C00010E00C9DF0010D9DF00D1C9DF00D112413
:1001D000EE0EFF1E70E080E090E07CD5E60EF71E8C
:1001E0001E141F041CF4EA8DFB8D08C0E114F104F9
:1001F00019F0EC8DFD8D02C0E8A1F9A10995F70178
:10020000F7FE03C0F095E195FF4F86B597B58E17C1
:100210009F0718F4E6B5F7B511C0288939894A89CE
:100220005B89C601AA2797FDA095BA2F820F931F5D
:10023000A41FB51F888B998BAA8BBB8B888599854A
:100240009F878E87F983E8830DC0EE8DFF8D09951A
:1002500086B597B59983888305C0E8A1F9A109956A
:100260001982188228813981C901CDB7DEB7E8E04B
:100270009DC51F920F920FB60F9211242F933F939B
:100280004F935F936F937F938F939F93AF93BF939E
:10029000EF93FF9383E690E02EDF99BD88BD80EF5A
:1002A00090E029DF9BBD8ABDFF91EF91BF91AF9197
:1002B0009F918F917F916F915F914F913F912F917E
:1002C0000F900FBE0F901F9018959C9B07C08091B8
:1002D000600082FD03C09D9B0FC008C09C9915C0A3
:1002E0008091600082FF11C09D9906C080916500D9
:1002F00090916600019605C080916500909166001E
:10030000019790936600809365009D9B07C0809144
:10031000600083FD03C09C990FC008C09D9915C063
:100320008091600083FF11C09C9B06C08091650096
:1003300090916600019605C08091650090916600DD
:10034000019790936600809365009C9B04C0809108
:100350006000846003C0809160008B7F80936000A8
:100360009D9B04C080916000886003C08091600004
:10037000877F809360009A9B07C08091600080FD1A
:1003800003C09B9B0FC008C09A9915C08091600064
:1003900080FF11C09B9906C08091F2009091F300FC
:1003A000019605C08091F2009091F300019790931F
:1003B000F3008093F2009B9B07C08091600081FD59
:1003C00003C09A990FC008C09B9915C08091600026
:1003D00081FF11C09A9B06C08091F2009091F300BA
:1003E000019605C08091F2009091F30001979093DF
:1003F000F3008093F2009A9B04C0809160008160BA
:1004000003C0809160008E7F809360009B9B04C03E
:1004100080916000826003C0809160008D7F809336
:10042000600008951F920F920FB60F9211242F9320
:100430003F934F935F936F937F938F939F93AF936C
:10044000BF93EF93FF9341DFFF91EF91BF91AF9186
:100450009F918F917F916F915F914F913F912F91DC
:100460000F900FBE0F901F901895369A3699FECFB9
:1004700084B195B166E070E04CD46093080187B117
:100480008F5F87B9369A3699FECF84B195B166E011
:1004900070E03FD460937B0087B1815087B90895A5
:1004A0000F93DF93CF93CDB7DEB766970FB6F8946F
:1004B000DEBF0FBECDBFF8948091F4009091F5009F
:1004C00089838091F4009091F500892F990F990B01
:1004D0008A837894F8948091F8009091F9008B8346
:1004E0008091F8009091F900892F990F990B8C83D6
:1004F0007894809107018D83809108018E8380918B
:1005000009018F83F8948091FA009091FB00A091EB
:10051000FC00B091FD0088878091FA009091FB006B
:10052000A091FC00B091FD00892F9A2FAB2FBB2723
:10053000A7FDBA9589878091FA009091FB00A09160
:10054000FC00B091FD00CD01BB2797FDB095AB2F0E
:100550008A878091FA009091FB00A091FC00B091F5
:10056000FD008B2FBB2787FDB0959B2FAB2F8B8773
:100570007894F8942091F0003091F10066B577B549
:1005800084E690E0AC01249FC001259F900D349F2C
:10059000900D1124BED36C877894F89480916B00F1
:1005A00090916C008D8780916B0090916C00892FE9
:1005B000990F990B8E87789480917A008F8780911C
:1005C0007B00888B80917C00898BF894209163005C
:1005D0003091640066B577B584E690E0AC01249F65
:1005E000C001259F900D349F900D112492D36A8BEA
:1005F0007894F89480916D0090916E00A0916F00B6
:10060000B09170008B8B80916D0090916E00A091E5
:100610006F00B0917000892F9A2FAB2FBB27A7FDD9
:10062000BA958C8B80916D0090916E00A0916F00B7
:10063000B0917000CD01BB2797FDB095AB2F8D8B8E
:1006400080916D0090916E00A0916F00B09170004C
:100650008B2FBB2787FDB0959B2FAB2F8E8B78946C
:1006600088E890E0BE016F5F7F4F46E123E000E045
:1006700000D366960FB6F894DEBF0FBECDBFCF9104
:10068000DF910F9108955498C09A8CE290E065E84C
:1006900070E0C7D1809185008830E1F7C098549A06
:1006A0000895EF92FF920F931F93CF93DF938EE7FE
:1006B00081BB82BB87E087BB88BB23E024BB8CE384
:1006C00085BB929887E689B910BC81E08BB98CED27
:1006D0008AB98EE880BD81E383BD8AE085BD84EC64
:1006E00099E097BD86BD83EA8FBD2EBD1BBC1ABCA9
:1006F00019BC18BC80EC87B987E886B9939A949A9C
:10070000969A959A80EF90E0BDDC83E690E0BADCA3
:1007100083E690E090937E0080937D0086E690E0F3
:100720009093800080937F0089E690E09093820010
:10073000809381008CE690E0909384008093830006
:100740008FE690E090930B0180930A0182E790E09E
:1007500090930D0180930C0185E790E090930F0139
:1007600080930E0188E790E090931101809310012F
:1007700084E889BF85E890E0B5D1C09880E29EE426
:1007800020E931E0F9013197F1F70197D9F7929A11
:100790007894929A1092070110927A001BE0E12E51
:1007A000B4E0FB2E1AE061DEC098E09286008091F2
:1007B0008600883021F0809186008A30C1F78091D0
:1007C0008600883009F041C085E890E006D2882391
:1007D00009F43BC08091DC00882329F0833069F064
:1007E000843099F50DC04091DB0088E890E06BEB18
:1007F00070E020E000E03DD201C052DE44DF25C0C1
:10080000F8948091BB00282F30E08091BC00D82F55
:10081000C0E02C2B3D2B78942B3F31051CF02AEFA8
:1008200030E006C08FEF2630380714F426E03FEFA3
:1008300082B38F2582BBF8943093F5002093F400A7
:100840003093680020936700789410938600ABCFB4
:100850001F920F920FB60F9211242F933F934F9335
:100860005F936F937F938F939F93AF93BF93EF9318
:10087000FF938CE290E065E870E0D9D0FF91EF91B2
:10088000BF91AF919F918F917F916F915F914F91A8
:100890003F912F910F900FBE0F901F9018951F92B0
:1008A0000F920FB60F9211242F933F934F935F93A4
:1008B0006F937F938F939F93AF93BF93EF93FF9328
:1008C0008CB165E870E025D180918600833049F4D1
:1008D0008091DF008A3011F4589803C08AE0809339
:1008E000860080918600883061F0809186008A3091
:1008F00041F080918600893021F0809186008C3013
:1009000009F4589AFF91EF91BF91AF919F918F9108
:100910007F916F915F914F913F912F910F900FBEFB
:100920000F901F90189570E06827792720E030E03D
:1009300041E050EACB019695879560FF04C0BC0169
:100940006427752701C0BC012F5F3F4F2830310558
:1009500089F7CB010895CF93DF93EC0130E0A0E05D
:10096000B0E081E090EAF901F695E79520FF04C038
:100970009F012827392701C09F011196A830B10592
:1009800091F7E62FF0E0E227F327A0E0B0E081E066
:1009900090EA9F0136952795E0FF04C0F901E8270A
:1009A000F92701C0F9011196A830B10591F750E07F
:1009B0004E275F27E0E0F0E0A1E0B0EA9A0136952B
:1009C000279540FF04C0A9014A275B2701C0A90160
:1009D0003196E830F10591F72097F9F06623E9F0B8
:1009E000FE0170E0A1E0B0EA16C0808190E04827E7
:1009F000592780E090E09A013695279540FF04C082
:100A0000A9014A275B2701C0A901019688309105F9
:100A100091F77F5F3196761740F3CA01DF91CF914E
:100A20000895FC01DB011C928AEA80830895CF932C
:100A3000DF93DC01EB01888190E08830910508F0BC
:100A40004EC08D5E9F4FFC010C94E70681E08883C9
:100A50008BEA30C082E088838FA12CC083E088833A
:100A60008BA128C08BA1882311F084E001C085E010
:100A700088838CA11FC085E0888380916200C80FA5
:100A8000D11D9B819C938F5F8093620028C09091C1
:100A900062008BA1981740F4C90FD11D8B818C93F4
:100AA0009F5F909362001BC086E088831092620073
:100AB0008DA19EA18C9313C087E088838DA19EA1F8
:100AC0009C930DC088E0888388A599A5AAA5BBA59D
:100AD0000196A11DB11D88A799A7AAA7BBA7DF9161
:100AE000CF910895FC01009799F088E080838AE017
:100AF000818310A611A612A613A6128211AA10AA0B
:100B000014A615A616A617A613AA12AA15AA14AA01
:100B10000895CF93DF93482FEB011A82898190E0EB
:100B2000FC013197EB30F10508F054C0E55EFF4F52
:100B30000C94E7064A3A91F481E04BC04B3A71F4C9
:100B400082E047C083E08983C65ADF4F16C0403237
:100B500028F484E08983CA5ADF4F0FC08AE039C085
:100B6000CA5ADF4F8881C655D040882311F085E0EE
:100B700001C086E08983C95ADF4F48832BC080912A
:100B80006100FB01E80FF11D46AB8F5F80936100B0
:100B9000CA5ADF4F9881C655D0408917D9F486E0EC
:100BA00089831092610016C087E08983842F90E0CA
:100BB000C85ADF4F998388830DC0FB01E85AFF4F65
:100BC00020813181942F80E0822B932B918380832D
:100BD00088E08983DF91CF910895CF93DF93EC0173
:100BE000CA5ADF4F6991488123962881CA55D0405F
:100BF000CE01C6960E94AB04C85ADF4F28813981C6
:100C0000C855D0408217930789F488E08983F89407
:100C10008CA59DA5AEA5BFA50196A11DB11D8CA754
:100C20009DA7AEA7BFA7789481E00AC0F89488A9D1
:100C300099A9019699AB88AB78948CE0898380E080
:100C4000DF91CF910895FC018181883089F0818105
:100C50008A3071F082818F5F82838150833040F0CF
:100C6000128282A993A9019693AB82AB89E081831A
:100C70000895EF92FF920F931F93CF93DF93EC01B0
:100C80007B01142F0CA348A329A3CB01642F422F6F
:100C9000202F0E94AB04F8949BA38AA37894812F01
:100CA00081508F3148F4E114F10431F0CE01B701E5
:100CB000412F50E00E946106CDB7DEB7E6E00C940C
:100CC000D806FB01DC0102C001900D92415050405A
:100CD000D8F70895629FD001739FF001829FE00DC5
:100CE000F11D649FE00DF11D929FF00D839FF00DAB
:100CF000749FF00D659FF00D9927729FB00DE11D57
:100D0000F91F639FB00DE11DF91FBD01CF01112433
:100D10000895AA1BBB1B51E107C0AA1FBB1FA61742
:100D2000B70710F0A61BB70B881F991F5A95A9F794
:100D300080959095BC01CD01089597FB092E07265B
:100D40000AD077FD04D0E5DF06D000201AF47095B4
:100D500061957F4F0895F6F7909581959F4F08957F
:100D60002F923F924F925F926F927F928F929F92BB
:100D7000AF92BF92CF92DF92EF92FF920F931F93A9
:100D8000CF93DF93CDB7DEB7CA1BDB0B0FB6F8945A
:100D9000DEBF0FBECDBF09942A88398848885F849A
:100DA0006E847D848C849B84AA84B984C884DF800B
:100DB000EE80FD800C811B81AA81B981CE0FD11DEF
:100DC0000FB6F894DEBF0FBECDBFED010895EE0F54
:0E0DD000FF1F0590F491E02D0994F894FFCFD9
:00000001FF
