:1000000025C03FC03EC0EDC13CC03BC03AC039C076
:100010000FC137C036C096C434C06DC432C031C0C1
:1000200030C02FC02EC079057D05810585058E0560
:100030009A05AF05B505F105F505FA0503061206A3
:10004000270630063D063D063D06ED0511241FBE80
:10005000CFE5D4E0DEBFCDBF10E0A0E6B0E0ECE736
:10006000FEE002C005900D92A036B107D9F711E06D
:10007000A0E6B0E001C01D92A431B107E1F7F0D2D3
:10008000FBC6BECF969A95980895959A969808952E
:10009000969A959A0895969895980895939A949813
:1000A0000895949A93980895939A949A089593989A
:1000B00094980895A0E0B0E0EFE5F0E0AAC6EC0166
:1000C0002A813B818A819B8162E070E085D6260F80
:1000D000371F398728872C813D818E819F81821728
:1000E00093072CF48E819F8101969F838E832C81B0
:1000F0003D818E819F81281739072CF48E819F8145
:1001000001979F838E830A851B852C853D85888575
:10011000998562E370E060D6882777FD8095982FF7
:10012000600F711F821F931F6A877B878C879D8753
:100130001B821A828F89882339F0823009F464C0C7
:10014000833009F06EC068C0CE80DF8088859985D5
:10015000C81AD90A0C89AE89EE85FF85E884F9842E
:100160006D89288939894A895B89EE19FF09B0E0D0
:10017000EA9F7001EB9FF00CFA9FF00C112410E045
:100180000C9DF0010D9DF00D1C9DF00D1124EE0E47
:10019000FF1E70E080E090E0ECD5E60EF71E1E1426
:1001A0001F041CF4EA8DFB8D08C0E114F10419F062
:1001B000EC8DFD8D02C0E8A1F9A10995F701F7FECC
:1001C00003C0F095E195FF4F86B597B5E817F9079D
:1001D00018F0E6B5F7B511C0288939894A895B89D5
:1001E000C601AA2797FDA095BA2F820F931FA41FBF
:1001F000B51F888B998BAA8BBB8B888599859F8728
:100200008E87F983E8830DC0EE8DFF8D099586B545
:1002100097B59983888305C0E8A1F9A1099519824A
:10022000188228813981C901CDB7DEB7E8E00DC653
:100230001F920F920FB60F9211242F933F934F935B
:100240005F936F937F938F939F93AF93BF93EF933E
:10025000FF9380EF90E02EDF99BD88BD8EEC90E09B
:1002600029DF9BBD8ABDFF91EF91BF91AF919F9117
:100270008F917F916F915F914F913F912F910F904F
:100280000FBE0F901F9018959C9B07C08091620035
:1002900082FD03C09D9B0FC008C09C9915C0809132
:1002A000620082FF11C09D9906C08091F20090917A
:1002B000F300019605C08091F2009091F300019740
:1002C0009093F3008093F2009D9B07C080916200A1
:1002D00083FD03C09C990FC008C09D9915C08091F3
:1002E000620083FF11C09C9B06C08091F200909138
:1002F000F300019605C08091F2009091F300019700
:100300009093F3008093F2009C9B04C08091620064
:10031000846003C0809162008B7F809362009D9B0C
:1003200004C080916200886003C080916200877F72
:10033000809362009A9B07C08091620080FD03C099
:100340009B9B0FC008C09A9915C08091620080FFE6
:1003500011C09B9906C08091D0009091D100019668
:1003600005C08091D0009091D10001979093D10069
:100370008093D0009B9B07C08091620081FD03C0E9
:100380009A990FC008C09B9915C08091620081FFA7
:1003900011C09A9B06C08091D0009091D100019627
:1003A00005C08091D0009091D10001979093D10029
:1003B0008093D0009A9B04C080916200816003C04A
:1003C000809162008E7F809362009B9B04C080912D
:1003D0006200826003C0809162008D7F8093620022
:1003E00008951F920F920FB60F9211242F933F93EF
:1003F0004F935F936F937F938F939F93AF93BF932D
:10040000EF93FF9341DFFF91EF91BF91AF919F91E8
:100410008F917F916F915F914F913F912F910F90AD
:100420000FBE0F901F901895369A3699FECF84B163
:1004300095B166E070E0BCD46093E60087B18F5F51
:1004400087B9369A3699FECF84B195B166E070E0EF
:10045000AFD46093080187B1815087B908950F9395
:10046000DF93CF93CDB7DEB766970FB6F894DEBFB4
:100470000FBECDBFF8948091D2009091D3008983B4
:100480008091D2009091D300892F990F990B8A8384
:100490007894F8948091D6009091D7008B838091C6
:1004A000D6009091D700892F990F990B8C8378945F
:1004B0008091E5008D838091E6008E838091E70036
:1004C0008F83F8948091D8009091D900A091DA00A0
:1004D000B091DB0088878091D8009091D900A091DD
:1004E000DA00B091DB00892F9A2FAB2FBB27A7FD35
:1004F000BA9589878091D8009091D900A091DA00AF
:10050000B091DB00CD01BB2797FDB095AB2F8A875B
:100510008091D8009091D900A091DA00B091DB00D1
:100520008B2FBB2787FDB0959B2FAB2F8B877894A4
:10053000F8942091CE003091CF0066B577B584E66F
:1005400090E0AC01249FC001259F900D349F900D39
:1005500011242ED46C877894F8948091F8009091AF
:10056000F9008D878091F8009091F900892F990FFB
:10057000990B8E877894809107018F87809108016D
:10058000888B80910901898BF8948091FA00909171
:10059000FB00A091FC00B091FD008A8B8091FA00D5
:1005A0009091FB00A091FC00B091FD00892F9A2F43
:1005B000AB2FBB27A7FDBA958B8B8091FA0090914A
:1005C000FB00A091FC00B091FD00CD01BB2797FD81
:1005D000B095AB2F8C8B8091FA009091FB00A0918D
:1005E000FC00B091FD008B2FBB2787FDB0959B2FA2
:1005F000AB2F8D8B7894F8942091F0003091F1001E
:1006000066B577B584E690E0AC01249FC001259FD4
:10061000900D349F900D1124CBD36E8B789486E689
:1006200090E0BE016F5F7F4F46E123E000E070D3B2
:1006300066960FB6F894DEBF0FBECDBFCF91DF91A7
:100640000F9108955498C09A8CE290E063E670E0B0
:100650003BD2809163008830E1F7C098549A0895A6
:10066000EF92FF920F931F93CF93DF938EE781BB9F
:1006700082BB87E087BB88BB23E024BB8CE385BBC0
:10068000929887E689B910BC41E04BB98CED8AB9E4
:100690008EE880BD81E383BD3AE035BD84EC99E00E
:1006A00097BD86BD83EA8FBD2EBD1BBC1ABC19BC8D
:1006B00018BC80EC87B987E886B9939A949A969A81
:1006C000959A1092D1001092D0001092D3001092FF
:1006D000D2001092D7001092D6001092DD00109236
:1006E000DC001092D5001092D4001092DE0010921F
:1006F000DF001092E0001092E1001092CF00109203
:10070000CE003093E2002093E3004093E400109287
:10071000E9001092E8001092EB001092EA001092AB
:10072000ED001092EC001092EF001092EE0020937A
:10073000E5001092F3001092F2001092F500109272
:10074000F4001092F9001092F8001092FF0010923D
:10075000FE001092F7001092F60010920001109225
:10076000010110920201109203011092F100109207
:10077000F00030930401209305014093060110928C
:100780000B0110920A0110920D0110920C011092AF
:100790000F0110920E01109211011092100120937E
:1007A000070182E490E090930B0180930A0185E4B5
:1007B00090E090930D0180930C0188E490E0909379
:1007C0000F0180930E018BE490E0909311018093D0
:1007D00010018EE490E09093E9008093E80081E5B9
:1007E00090E09093EB008093EA0084E590E0909392
:1007F000ED008093EC0087E590E09093EF0080930C
:10080000EE0084E889BF83E690E0BFD1C09880E223
:100810009EE420E931E0F9013197F1F70197D9F72A
:10082000929A7894929A1092E500109207011BE038
:10083000E12EB4E0FB2E1AE0F7DDC098E0926400F0
:1008400080916400883021F0809164008A30C1F783
:1008500080916400883009F04BC083E690E010D2AC
:10086000882309F445C08091BA00882331F0833091
:1008700071F0843009F03CC00DC04091B90086E6AB
:1008800090E069E970E020E000E042D201C0E7DDDD
:10089000D9DE2EC080919900282F30E080919A00F7
:1008A000D82FC0E02C2B3D2B2B3F31051CF02AEF1D
:1008B00030E006C08FEF2630380714F426E03FEF13
:1008C00080916000909161008217930719F082B3C4
:1008D0008F2582BB3093610020936000F8943093A1
:1008E000D3002093D2003093F5002093F400789445
:1008F00010936400A1CF1F920F920FB60F92112494
:100900002F933F934F935F936F937F938F939F9317
:10091000AF93BF93EF93FF938CE290E063E670E0B8
:10092000D9D0FF91EF91BF91AF919F918F917F911E
:100930006F915F914F913F912F910F900FBE0F904C
:100940001F9018951F920F920FB60F9211242F939C
:100950003F934F935F936F937F938F939F93AF9347
:10096000BF93EF93FF938CB163E670E025D1809144
:100970006400833049F48091BD008A3011F45898A6
:1009800003C08AE08093640080916400883061F045
:10099000809164008A3041F080916400893021F0B8
:1009A000809164008C3009F4589AFF91EF91BF91C7
:1009B000AF919F918F917F916F915F914F913F91F7
:1009C0002F910F900FBE0F901F90189570E0682721
:1009D000792720E030E041E050EACB0196958795F9
:1009E00060FF04C0BC016427752701C0BC012F5FF4
:1009F0003F4F2830310589F7CB010895CF93DF931E
:100A0000EC0130E0A0E0B0E081E090EAF901F69579
:100A1000E79520FF04C09F012827392701C09F01C7
:100A20001196A830B10591F7E62FF0E0E227F32701
:100A3000A0E0B0E081E090EA9F0136952795E0FFC5
:100A400004C0F901E827F92701C0F9011196A8307F
:100A5000B10591F750E04E275F27E0E0F0E0A1E01C
:100A6000B0EA9A013695279540FF04C0A9014A27AC
:100A70005B2701C0A9013196E830F10591F7209775
:100A8000F9F06623E9F0FE0170E0A1E0B0EA16C0DB
:100A9000808190E04827592780E090E09A013695C0
:100AA000279540FF04C0A9014A275B2701C0A9017F
:100AB00001968830910591F77F5F3196761740F364
:100AC000CA01DF91CF910895FC01DB011C928AEAF3
:100AD00080830895CF93DF93DC01EB01888190E060
:100AE0008830910508F04EC08D5E9F4FFC010C943C
:100AF000360781E088838BEA30C082E088838FA14B
:100B00002CC083E088838BA128C08BA1882311F09F
:100B100084E001C085E088838CA11FC085E08883C4
:100B200080911301C80FD11D9B819C938F5F80938F
:100B3000130128C0909113018BA1981740F4C90F9D
:100B4000D11D8B818C939F5F909313011BC086E016
:100B50008883109213018DA19EA18C9313C087E00E
:100B600088838DA19EA19C930DC088E0888388A571
:100B700099A5AAA5BBA50196A11DB11D88A799A7F6
:100B8000AAA7BBA7DF91CF910895FC01009799F028
:100B900088E080838AE0818310A611A612A613A69E
:100BA000128211AA10AA14A615A616A617A613AA91
:100BB00012AA15AA14AA0895CF93DF93482FEB0128
:100BC0001A82898190E0FC013197EB30F10508F041
:100BD00054C0E55EFF4F0C9436074A3A91F481E029
:100BE0004BC04B3A71F482E047C083E08983C65A18
:100BF000DF4F16C0403228F484E08983CA5ADF4FA1
:100C00000FC08AE039C0CA5ADF4F8881C655D0402C
:100C1000882311F085E001C086E08983C95ADF4F3F
:100C200048832BC080911201FB01E80FF11D46ABF8
:100C30008F5F80931201CA5ADF4F9881C655D0400A
:100C40008917D9F486E089831092120116C087E0D3
:100C50008983842F90E0C85ADF4F998388830DC021
:100C6000FB01E85AFF4F20813181942F80E0822BD5
:100C7000932B9183808388E08983DF91CF910895BE
:100C8000CF93DF93EC01CA5ADF4F699148812396D5
:100C90002881CA55D040CE01C6960E94FE04C85A8B
:100CA000DF4F28813981C855D0408217930779F4E6
:100CB00088E089838CA59DA5AEA5BFA50196A11D41
:100CC000B11D8CA79DA7AEA7BFA781E008C088A9CA
:100CD00099A9019699AB88AB8CE0898380E0DF917C
:100CE000CF910895FC018181883089F081818A301B
:100CF00071F082818F5F82838150833040F0128255
:100D000082A993A9019693AB82AB89E08183089570
:100D1000EF92FF920F931F93CF93DF93EC017B0130
:100D2000142F0CA348A329A3CB01642F422F202FFB
:100D30000E94FE049BA38AA3812F81508F3158F417
:100D4000E114F10441F0F894CE01B701412F50E0D5
:100D50000E94B0067894CDB7DEB7E6E00C94270782
:100D6000FB01DC0102C001900D9241505040D8F7C8
:100D70000895629FD001739FF001829FE00DF11DE5
:100D8000649FE00DF11D929FF00D839FF00D749F05
:100D9000F00D659FF00D9927729FB00DE11DF91FB1
:100DA000639FB00DE11DF91FBD01CF01112408950E
:100DB000AA1BBB1B51E107C0AA1FBB1FA617B70781
:100DC00010F0A61BB70B881F991F5A95A9F780959D
:100DD0009095BC01CD01089597FB092E07260AD0F6
:100DE00077FD04D0E5DF06D000201AF470956195F8
:100DF0007F4F0895F6F7909581959F4F08952F9214
:100E00003F924F925F926F927F928F929F92AF929A
:100E1000BF92CF92DF92EF92FF920F931F93CF93E7
:100E2000DF93CDB7DEB7CA1BDB0B0FB6F894DEBF7E
:100E30000FBECDBF09942A88398848885F846E84A4
:100E40007D848C849B84AA84B984C884DF80EE80EE
:100E5000FD800C811B81AA81B981CE0FD11D0FB6F7
:100E6000F894DEBF0FBECDBFED010895EE0FFF1F5A
:0C0E70000590F491E02D0994F894FFCF58
:00000001FF
