:100000000C94BD000C94DA000C94DA000C94DA0025
:100010000C94DA000C94DA000C94DA000C94DA00F8
:100020000C94DA000C94DA000C94DA000C94DA00E8
:100030000C94DA000C94DA000C94DA000C94ED03C2
:100040000C94DA000C94DA000C94F4060C94DA00A8
:100050000C9497060C94DA000C94DA000C94DA00F5
:100060000C94DA000C94DA000C94DA000C94DA00A8
:100070000C94DA000C94DA000C94BF060C94DA00AD
:100080000C9462060C94DA000C94DA00640B680B92
:100090006C0B700B790B850B9A0BA00BDC0BE00B38
:1000A000E50BEE0BFD0B120C1B0C280C280C280C7E
:1000B000D80B4D5F4C52004D5F4C46005043436F90
:1000C0006D6D5374617400436F6D6D537461740092
:1000D00044493A253764004C4F3A2537750041535F
:1000E0003A2537640052533A253764005374616EE1
:1000F000646279004A593A253764004A583A2537EC
:1001000064004A6F79737469636B00544F3A253702
:10011000750042523A2537750046453A2537750035
:1001200052453A2537750053453A253775005374C3
:10013000617274696E672D75702E2E2E0025004534
:1001400043484F3A253375004D432028313029204C
:100150004B4F203A2D28004D432028313029204F85
:100160004B203A2D290054657374696E67206D6FBA
:1001700064756C65732E2E2E000011241FBECFEF08
:10018000D0E1DEBFCDBF11E0A0E0B1E0ECE8F0E2ED
:1001900002C005900D92AA31B107D9F712E0AAE189
:1001A000B1E001C01D92A237B107E1F70E94AE088D
:1001B0000C9444100C9400009C01E199FECF3FBBCD
:1001C0002EBBE09A8DB3089589E189B91092900011
:1001D0001BB888ED8AB986E08093950087E6809306
:1001E00099001092980010929B008CED80939A00D9
:1001F0008EE080939D000895FC0112861186108682
:10020000138212821486148215821682178211823A
:100210001082138615861686089586E487B987E8C6
:1002200086B9089540913A0150913B01FA01EE0FD1
:10023000FF1FE45CFE4F20813181BC01621B730B08
:100240002091380130913901620F731F7093390189
:1002500060933801918380834F5F5F4F50933B01E0
:1002600040933A014A30510520F010923B01109220
:100270003A01CB016AE070E00E94E00FCB010895E3
:100280004091220150912301FA01EE0FFF1FEC5D16
:10029000FE4F20813181BC01621B730B2091200134
:1002A00030912101620F731F70932101609320012F
:1002B000918380834F5F5F4F5093230140932201CE
:1002C0004A30510520F01092230110922201CB01F7
:1002D0006AE070E00E94E00FCB01089508958091DC
:1002E000630080FD0CC080911F018F5F80931F0110
:1002F000853029F480915C01816080935C0180915C
:10030000630080FF02C010921F0187990CC080918A
:100310001E018F5F80931E01853029F480915C015E
:10032000826080935C01879B02C010921E018699B7
:100330000CC080911D018F5F80931D01853029F4D1
:1003400080915C01846080935C01869B02C0109266
:100350001D0185990CC080911C018F5F80931C0149
:10036000853029F480915C01886080935C01859BD5
:1003700002C010921C01089580915601909157017E
:100380000A9690935701809356018091560190915F
:100390005701885E934029F510925701109256013B
:1003A000809155018F5F80935501809155018C3369
:1003B000C1F410925501809154018F5F80935401D4
:1003C000809154018C3369F410925401809153014F
:1003D0008F5F8093530180915301883111F4109203
:1003E00053010895FC018091930190E091838083F3
:1003F0004081518120919401922F80E0842B952B94
:10040000918380838091950190E0938382834281E0
:10041000538120919601922F80E0842B952B93831A
:10042000828380919701838780919801848780914E
:100430009901858780919A0190E0A0E0B0E08483E3
:100440009583A683B7832481358146815781809126
:100450009B0190E0A0E0B0E0BA2FA92F982F882749
:10046000822B932BA42BB52B84839583A683B783F0
:10047000248135814681578180919C0190E0A0E0E4
:10048000B0E0DC0199278827822B932BA42BB52B76
:1004900084839583A683B7832481358146815781E0
:1004A00080919D0190E0A0E0B0E0B82FAA279927A5
:1004B0008827822B932BA42BB52B84839583A6832B
:1004C000B78380919E0186878091930190E0FB0124
:1004D000918380834081518120919401922F80E00B
:1004E000842B952B9183808380919F0190E093834F
:1004F0008283428153812091A001922F80E0842B3E
:10050000952B938382838091A10183878091A2019F
:1005100084878091A30185878091A40190E0A0E069
:10052000B0E084839583A683B78324813581468197
:1005300057818091A50190E0A0E0B0E0BA2FA92FEB
:10054000982F8827822B932BA42BB52B84839583FC
:10055000A683B78324813581468157818091A60186
:1005600090E0A0E0B0E0DC0199278827822B932B54
:10057000A42BB52B84839583A683B78324813581EF
:10058000468157818091A70190E0A0E0B0E0B82FAC
:10059000AA2799278827822B932BA42BB52B8483FA
:1005A0009583A683B7838091A80186870895282F15
:1005B00087B1807C87B997B1822F8F73892B87B9D8
:1005C000369A3699FECF273049F424B135B18FEFF2
:1005D00093E0821B930B0E941201089584B195B1A0
:1005E0000E944001089580E060E00E94410A8CEE84
:1005F00090E00E94890A08950F93DF93CF93CDB7BF
:10060000DEB72F970FB6F894DEBF0FBECDBF1982AD
:10061000F894FE01329620E030E0809185019091BF
:100620008601A0918701B0918801022E04C0B69581
:10063000A795979587950A94D2F78193285F3F4FA6
:100640002032310551F77894F894FE01369620E077
:1006500030E08091890190918A01A0918B01B09145
:100660008C01022E04C0B695A795979587950A949C
:10067000D2F78193285F3F4F2032310551F77894AC
:10068000F89480918D0190918E018A8780918D01DF
:1006900090918E019B877894F89480918F0190912E
:1006A00090018C8780918F01909190019D87789423
:1006B000F89480919101909192018E87809191019F
:1006C000909192019F8778948BEC91E0BE016F5FCF
:1006D0007F4F4FE022E000E00E94730C8CE290E03C
:1006E00068EC71E00E944F0B8091C8018830E1F7FF
:1006F0002F960FB6F894DEBF0FBECDBFCF91DF911E
:100700000F91089580919A008F7E80939A00949A19
:1007100080919A00816080939A008CE990E06DE569
:1007200071E00E944F0B80915D018830E1F7949851
:1007300080919A00806180939A000895AEE1B0E0C4
:10074000E4EAF3E00C940F10E82E20E030E0AE0174
:100750004F5F5F4FFA01E20FF31F822F880F8083F4
:100760002F5F3F4F2E313105A9F7FF24F39410E09E
:100770006E010894C11CD11C9BE0A92E8AE0B82E02
:1007800080E691E0B6014EE120E00E2D0E94730C50
:100790000E9482039498A0925E0180915E0188304D
:1007A00021F080915E018930C1F780915E0188302F
:1007B00031F48DE591E00E942B0C81111F5FB09206
:1007C0005E01F3948BE0F816D9F68AE0189F802D2D
:1007D00011246E96EAE00C942B101F920F920FB624
:1007E0000F9211242F933F934F935F936F937F93B7
:1007F0008F939F93AF93BF93EF93FF930E94BC019E
:100800000E946F018DE591E00E945D0C88EC91E003
:100810000E945D0C80911B018F5F80931B018233CE
:1008200061F410921B0180911A01816080931A017A
:1008300080911A01826080931A01FF91EF91BF911C
:10084000AF919F918F917F916F915F914F913F9168
:100850002F910F900FBE0F901F901895ABE0B0E056
:10086000E4E3F4E00C94151080E060E00E94410A9B
:1008700082E091E00E94890A80E061E00E94410AE2
:10088000209158013091590100D000D000D0ADB76F
:10089000BEB711968E010F5F1F4FEDB7FEB71283E3
:1008A00001838BEF90E0FD01938382833583248362
:1008B0000E94460D8DB79EB706960FB6F8949EBF60
:1008C0000FBE8DBFC8010E947D0A80E062E00E94D9
:1008D000410A20915A0130915B0100D000D000D034
:1008E000ADB7BEB71196EDB7FEB71283018384EFA3
:1008F00090E0FD0193838283358324830E94460D1B
:100900008DB79EB706960FB6F8949EBF0FBE8DBFEB
:10091000C8010E947D0A2B96E4E00C943110ABE0F4
:10092000B0E0E5E9F4E00C9415108C0180E061E0A2
:100930000E94410AF894F80120A531A542A553A5CB
:1009400000D000D000D0ADB7BEB71196CE01019651
:10095000EDB7FEB79283818387E291E0FD01938337
:100960008283358324830E94460D78948DB79EB789
:1009700006960FB6F8949EBF0FBE8DBFCE010196AE
:100980000E947D0A80E062E00E94410AF894F8012A
:1009900024A535A546A557A500D000D000D0ADB7F9
:1009A000BEB71196CE010196EDB7FEB79283818353
:1009B00080E291E0FD0193838283358324830E944A
:1009C000460D78948DB79EB706960FB6F8949EBFE5
:1009D0000FBE8DBFCE0101960E947D0A80E063E0CC
:1009E0000E94410AF894F80124A935A900D000D04A
:1009F00000D0ADB7BEB71196CE010196EDB7FEB7E8
:100A00009283818389E191E0FD0193838283358321
:100A100024830E94460D78948DB79EB706960FB634
:100A2000F8949EBF0FBE8DBFCE0101960E947D0A35
:100A30008AE061E00E94410AF894F80120A931A9F6
:100A400000D000D000D0ADB7BEB71196CE01019650
:100A5000EDB7FEB79283818382E191E0FD0193833C
:100A60008283358324830E94460D78948DB79EB788
:100A700006960FB6F8949EBF0FBE8DBFCE010196AD
:100A80000E947D0A8AE062E00E94410AF894F8011F
:100A900022A933A900D000D000D0ADB7BEB71196BF
:100AA000CE010196EDB7FEB7928381838BE091E092
:100AB000FD0193838283358324830E94460D7894BD
:100AC0008DB79EB706960FB6F8949EBF0FBE8DBF2A
:100AD000CE0101960E947D0A2B96E4E00C94311021
:100AE000ABE0B0E0E6E7F5E00C9413107C0180E0A9
:100AF00061E00E94410AF7012081318100D000D0DD
:100B000000D0ADB7BEB711968E010F5F1F4FEDB786
:100B1000FEB71283018385EE90E0FD01938382830B
:100B2000358324830E94460D8DB79EB706960FB677
:100B3000F8949EBF0FBE8DBFC8010E947D0A80E061
:100B400062E00E94410AF7012281338100D000D087
:100B500000D0ADB7BEB71196EDB7FEB712830183D3
:100B60008EED90E0FD0193838283358324830E9480
:100B7000460D8DB79EB706960FB6F8949EBF0FBE72
:100B80008DBFC8010E947D0A80E063E00E94410A97
:100B9000F701268500D000D000D0ADB7BEB71196C2
:100BA000EDB7FEB71283018387ED90E0FD019383DB
:100BB0008283248315820E94460D8DB79EB70696C8
:100BC0000FB6F8949EBF0FBE8DBFC8010E947D0A6C
:100BD0008AE061E00E94410AF701258500D000D03B
:100BE00000D0ADB7BEB71196EDB7FEB71283018343
:100BF00080E091E0FD0193838283248315820E942B
:100C0000220D8DB79EB706960FB6F8949EBF0FBE05
:100C10008DBFC8010E947D0A8AE062E00E94410AFD
:100C2000F701248500D000D000D0ADB7BEB7119633
:100C3000EDB7FEB71283018387E091E0FD01938356
:100C40008283248315820E94220D8DB79EB706965B
:100C50000FB6F8949EBF0FBE8DBFC8010E947D0ADB
:100C60008AE063E00E94410AF701248135814681D0
:100C700057818DB79EB708970FB6F8949EBF0FBEE9
:100C80008DBFADB7BEB71196EDB7FEB71283018326
:100C900080ED90E0FD019383828324833583468336
:100CA00057830E94460D8DB79EB708960FB6F894ED
:100CB0009EBF0FBE8DBFC8010E947D0A2B96E6E045
:100CC0000C942F101F920F920FB60F9211242F9396
:100CD0003F934F935F936F937F938F939F93AF93C4
:100CE000BF93EF93FF9380915D01823020F080915C
:100CF0009A008E7F03C080919A00816080939A0051
:100D00008CE990E06DE571E00E94550BFF91EF9149
:100D1000BF91AF919F918F917F916F915F914F9113
:100D20003F912F910F900FBE0F901F9018951F921B
:100D30000F920FB60F9211242F933F934F935F930F
:100D40006F937F938F939F93AF93BF93EF93FF9393
:100D50008CE290E068EC71E00E94550BFF91EF91FE
:100D6000BF91AF919F918F917F916F915F914F91C3
:100D70003F912F910F900FBE0F901F9018951F92CB
:100D80000F920FB60F9211242F933F934F935F93BF
:100D90006F937F938F939F93AF93BF93EF93FF9343
:100DA00080919C006DE571E00E94C70B80919B00D3
:100DB00084FF09C0809191019091920101969093D6
:100DC000920180939101FF91EF91BF91AF919F911B
:100DD0008F917F916F915F914F913F912F910F90E4
:100DE0000FBE0F901F9018951F920F920FB60F9283
:100DF00011242F933F934F935F936F937F938F9320
:100E00009F93AF93BF93EF93FF938CB168EC71E026
:100E10000E94C70B5C9B09C08091FC019091FD0171
:100E200001969093FD018093FC01FF91EF91BF919A
:100E3000AF919F918F917F916F915F914F913F9172
:100E40002F910F900FBE0F901F901895A9E0B0E062
:100E5000ECE2F7E00C9415108CE060E00E94410A8F
:100E60002091530130915401409155018DB79EB7A7
:100E70000C970FB6F8949EBF0FBE8DBFADB7BEB72F
:100E800011968E010F5F1F4FEDB7FEB712830183DE
:100E900089E090E0FD01938382838EE091E0958369
:100EA00084832683178230871186428713860E94A7
:100EB000C00C8DB79EB70C960FB6F8949EBF0FBEB0
:100EC0008DBFC8010E947D0A2996E4E00C94311080
:100ED0001F938FE78ABB8BBB12E01093640083E003
:100EE0008093650012B913B988E181BB88EF82BB9A
:100EF000809165008D7F809365008CE00E94970A49
:100F00000E94590A8EE291E00E94890A88E080BF1F
:100F100083EA81BF81E083BF17BF89E189B910925D
:100F200090001BB888ED8AB986E08093950087E62B
:100F3000809399001092980010929B008CED809302
:100F40009A008EE080939D0086E487B987E886B991
:100F50008DE591E00E94B00B88EC91E00E94B00B0F
:100F600010923D0210923C0210923B021092360207
:100F70001092350210923F021092370210923802FE
:100F80001092390210923A021092340210923302F7
:100F900010923E02109240021092410210924C02B6
:100FA00010924B0210924A02109245021092440293
:100FB00010924E021092460210924702109248027E
:100FC00010924902109243021092420210924D0276
:100FD00010924F021092500210925B0210925A022D
:100FE00010925902109254021092530210925D0214
:100FF0001092550210925602109257021092580207
:10100000109252021092510210925C0210925E02F3
:1010100010925F0210926A021092690210926802A6
:10102000109263021092620210926C02109264029B
:10103000109265021092660210926702109261028D
:101040001092600210926B0210926D0210926E026A
:10105000E199FECF80E090E09FBB8EBBE09A8DB31C
:101060008093B80189EB91E061E070E04FE050E0DF
:101070002CED30E00E94A40C88E092E520E931E0FC
:10108000F9013197F1F70197D9F70E94550A949821
:1010900078941F910895A9E0B0E0E1E5F8E00C94A0
:1010A000141080E060E00E94410A86E691E00E9410
:1010B000890A8AE00E949E03F82E80E061E00E9487
:1010C000410A85E48F1518F487E591E002C088E4B1
:1010D00091E00E94890A80E062E00E94410AEDB737
:1010E000FEB738970FB6F894FEBF0FBEEDBFADB791
:1010F000BEB711968E010F5F1F4F1283018389E0E7
:1011000090E0FD01938382838FE391E09583848354
:10111000F68217820E94F10C8DB79EB708960FB623
:10112000F8949EBF0FBE8DBFC8010E947D0A88E063
:1011300062E00E94410A8DE391E00E94890A80E208
:101140009EE420E931E0F9013197F1F70197D9F7F1
:101150000E94550A2996E5E00C943010A2E0B0E018
:10116000E4EBF8E00C940F10109250010E94680715
:101170000E944B0881E080935001BB24B3947E0110
:101180000894E11CF11C4BE0A42E30E9C32E31E0A1
:10119000D32E80915C0180FF14C00E94550AF89400
:1011A000809150018F5F8093500180915001873072
:1011B00010F0B092500180915C018E7F80935C01B1
:1011C000789480911A0180FF5CC080911A018E7F13
:1011D00080931A0180915001813061F0823079F062
:1011E0008330D1F0843049F18530B1F1863009F097
:1011F00048C043C00E9426070E94F30242C00E94DA
:10120000260780E060E00E94410A87EC90E00E949F
:10121000890A8DE591E00EC080E591E00E942607E5
:1012200080E060E00E94410A8CEB90E00E94890A15
:1012300088EC91E00E948F0424C080E591E00E9438
:10124000260780E060E00E94410A87EB90E00E9460
:10125000890A83E392E00EC080E591E00E942607B0
:1012600080E060E00E94410A82EB90E00E94890ADF
:1012700082E492E00E94700504C00E9426070E944A
:101280002E0480911A0181FF05C080911A018D7F83
:1012900080931A0187E00E94D7028C0186E00E94A9
:1012A000D702109359010093580190935B018093EA
:1012B0005A0180915A0190915B018F5F914062E0E9
:1012C00070E00E94F40FAB01CB010496099710F473
:1012D00040E050E02091420230914302CA0105975C
:1012E000281739074CF02091420230914302CA017D
:1012F0000596821793070CF54983852F992787FD5B
:101300009A958A8380E691E0B70142E024E00AE002
:101310000E94730C0E9482038BEC91E0B70142E0C3
:1013200024E00E94730C8CE290E068EC71E00E9473
:101330004F0B8091C8018830E1F780E691E060E0D2
:1013400070E040E023E00AE00E94730C0E948203F8
:101350009498A0925E0180915E01883021F0809186
:101360005E018930C1F780915E01883061F48DE5BE
:1013700091E00E942B0C882331F083E392E062E439
:1013800072E00E94F2018AE080935E0188EE93E0B1
:10139000F6013197F1F70197D9F7FBCE662311F0EB
:1013A000A89A01C0A898A998A39AA49AA59AA69ABF
:1013B000AE98AD98AC98AB9887FDAE9A86FDAD9A85
:1013C00085FDAC9A84FDAB9AAA9A00C0AA98AE9803
:1013D000AD98AC98AB9883FDAE9A82FDAD9A81FD35
:1013E000AC9A80FDAB9AAA9A00C0AA98AB9AAC9A24
:1013F000AD9AAE9A0895882311F0A89A01C0A898D2
:10140000A99AA398A498A598A698AA9A00C09B9B6D
:1014100002C080E101C080E09C9980629D99806457
:101420009E998068AA9800C0AA9A00C09B99816082
:101430009C9982609D9984609E998860AA9808957D
:1014400080E00E94FB0987FDFBCF88E090E00197D8
:10145000F1F780E00E94FB0908951F93182F0E9466
:10146000200A812F60E00E94CE091F9108951F93EA
:10147000182F0E94200A812F61E00E94CE091F913F
:101480000895662311F4805809C0613011F4805426
:1014900005C0623011F48C5601C08C520E942D0A96
:1014A00008950E94200A90E0089581E00E942D0A8C
:1014B000089582E00E942D0A08951F93182F0E941C
:1014C000200A982F1A3099F4843110F480E40BC06C
:1014D0008054843110F484E106C094519C3210F0A1
:1014E00080E001C084E580580E942D0A04C0812F4D
:1014F00061E00E94CE091F910895CF93DF93EC0124
:1015000002C00E945D0A89918823D9F7DF91CF91AB
:101510000895CF93DF93EC0102C00E945D0AFE01A3
:10152000219684918823C9F7DF91CF9108951F9365
:10153000182FA09AA19AA29AA39AA49AA59AA69AB9
:1015400080E09AEF0197F1F7AC9AAB9AAA9A00C0A3
:10155000AA9880E09EE40197F1F7AA9A00C0AA98A1
:1015600080E091E0FC013197F1F7AA9A00C0AA98B7
:10157000FC013197F1F7AB98AA9A00C0AA9801979D
:10158000F1F788E20E942D0A88E00E942D0A0E944D
:10159000550A86E00E942D0A812F0E942D0A1F9174
:1015A000089570E06827792720E030E041E050EAB4
:1015B000CB019695879560FF04C0BC016427752711
:1015C00001C0BC012F5F3F4F2830310589F7CB01A7
:1015D0000895CF93DF93EC0130E0A0E0B0E081E02C
:1015E00090EAF901F695E79520FF04C09F012827AE
:1015F000392701C09F011196A830B10591F7E62F58
:10160000F0E0E227F327A0E0B0E081E090EA9F015C
:1016100036952795E0FF04C0F901E827F92701C0B6
:10162000F9011196A830B10591F750E04E275F27D8
:10163000E0E0F0E0A1E0B0EA9A013695279540FF9E
:1016400004C0A9014A275B2701C0A9013196E830EF
:10165000F10591F72097F9F06623E9F0FE0170E0BB
:10166000A1E0B0EA16C0808190E04827592780E0C9
:1016700090E09A013695279540FF04C0A9014A27BA
:101680005B2701C0A90101968830910591F77F5F22
:101690003196761740F3CA01DF91CF910895FC018E
:1016A000DB011C928AEA80830895CF93DF93DC01EB
:1016B000EB01888190E08830910508F04EC08A5B8C
:1016C0009F4FFC010C943E1081E088838BEA30C070
:1016D00082E088838FA12CC083E088838BA128C0FF
:1016E0008BA1882311F084E001C085E088838CA160
:1016F0001FC085E0888380917002C80FD11D9B8137
:101700009C938F5F8093700228C0909170028BA190
:10171000981740F4C90FD11D8B818C939F5F9093D4
:1017200070021BC086E08883109270028DA19EA17A
:101730008C9313C087E088838DA19EA19C930DC0DC
:1017400088E0888388A599A5AAA5BBA50196A11DB7
:10175000B11D88A799A7AAA7BBA7DF91CF9108952C
:10176000FC01009799F088E080838AE0818310A6CD
:1017700011A612A613A6128211AA10AA14A615A6C3
:1017800016A617A613AA12AA15AA14AA0895CF93EB
:10179000DF93482FEB011A82898190E0FC01319799
:1017A000EB30F10508F054C0E25BFF4F0C943E10A3
:1017B0004A3A91F481E04BC04B3A71F482E047C061
:1017C00083E08983C65ADF4F16C0403228F484E094
:1017D0008983CA5ADF4F0FC08AE039C0CA5ADF4F27
:1017E0008881C655D040882311F085E001C086E08D
:1017F0008983C95ADF4F48832BC080916F02FB0158
:10180000E80FF11D46AB8F5F80936F02CA5ADF4F1E
:101810009881C655D0408917D9F486E08983109203
:101820006F0216C087E08983842F90E0C85ADF4F8B
:10183000998388830DC0FB01E85AFF4F20813181D5
:10184000942F80E0822B932B9183808388E089837F
:10185000DF91CF910895CF93DF93EC01CA5ADF4F08
:101860006991488123962881CA55D040CE01C696F9
:101870000E94E90AC85ADF4F28813981C855D040F3
:101880008217930779F488E089838CA59DA5AEA57E
:10189000BFA50196A11DB11D8CA79DA7AEA7BFA78F
:1018A00081E008C088A999A9019699AB88AB8CE022
:1018B000898380E0DF91CF910895FC018181883098
:1018C00089F081818A3071F082818F5F82838150BB
:1018D000833040F0128282A993A9019693AB82AB28
:1018E00089E081830895EF92FF920F931F93CF9326
:1018F000DF93EC017B01142F0CA348A329A3CB0198
:10190000642F422F202F0E94E90A9BA38AA3812FD4
:1019100081508F3158F4E114F10441F0F894CE0174
:10192000B701412F50E00E949B0C7894CDB7DEB7F1
:10193000E6E00C942F10FB01DC0102C001900D9237
:1019400041505040D8F70895A0E0B0E0EAEAFCE04A
:101950000C9411107C01EB018A01690109C0CE01D0
:101960002196F6010995F70181937F0101501040FE
:1019700001151105A1F7CDB7DEB7E8E00C942D10E5
:10198000AEE0B0E0E6ECFCE00C9415100D891E8989
:101990008F89988D97FF02C080E090E801979E8321
:1019A0008D831A83098386E08C839E01255E3F4FD9
:1019B000CE010196698D7A8DA9010E946A0D4D8133
:1019C0005E8157FD0AC02F813885421753070CF4FA
:1019D0009A01020F131FF80110822E96E4E00C9476
:1019E0003110AEE0B0E0E7EFFCE00C9415100D898B
:1019F0001E898F89988D97FF02C080E090E801973B
:101A00009E838D831A8309838EE08C839E01255EDD
:101A10003F4FCE010196698D7A8DA9010E946A0D12
:101A20004D815E8157FD0AC02F81388542175307CB
:101A30000CF49A01020F131FF80110822E96E4E0B5
:101A40000C943110AEE0B0E0E8E2FDE00C9415102B
:101A50000D891E8986E08C831A8309838FEF9FE7A7
:101A60009E838D839E01275E3F4FCE0101966F8935
:101A7000788DA9010E946A0D2F813885020F131FEE
:101A8000F80110822E96E4E00C943110AEE0B0E044
:101A9000ECE4FDE00C9415100D891E898EE08C831A
:101AA0001A8309838FEF9FE79E838D839E01275EB4
:101AB0003F4FCE0101966F89788DA9010E946A0D72
:101AC0002F813885020F131FF80110822E96E4E053
:101AD0000C943110ABE0B0E0E0E7FDE00C940710AF
:101AE0003C012B016A01FC0117821682838181FD72
:101AF00003C06FEF7FEFBFC19AE0892E1E010894EB
:101B0000211C311CF3012381F20123FD859123FF68
:101B100081912F01882309F4ABC1853239F423FD6B
:101B2000859123FF81912F01853229F490E0B30143
:101B30000E94560FE7CF982FFF24EE249924FFE14F
:101B4000FF15B8F0903261F0933281F09B3231F0A2
:101B50009D3249F0903369F441E024C052E0F52A07
:101B600084E0F82A28C098E0F92A25C0E0E1FE2A9E
:101B700022C0F7FC29C0892F80538A3070F4F6FE0A
:101B800005C0989C902C1124980E15C0E89CE02C60
:101B90001124E80EF0E2FF2A0EC09E3229F4F6FC72
:101BA00067C140E4F42A07C09C3619F450E8F52ACE
:101BB00002C0983649F4F20123FD959123FF9191DB
:101BC0002F01992309F0BBCF892F8554833018F05A
:101BD0008052833038F444E050E0C40ED51E5FE3F9
:101BE00059830FC0933531F1933621F0933709F0C3
:101BF00056C00BC0F6018081898342E050E0C40EDC
:101C0000D51E510101E010E012C0F601A080B180A4
:101C1000F6FC03C06FEF7FEF02C0692D70E042E079
:101C200050E0C40ED51EC5010E944B0F8C015FE72A
:101C3000F52214C0F601A080B180F6FC03C06FEF5E
:101C40007FEF02C0692D70E042E050E0C40ED51E67
:101C5000C5010E94400F8C0150E8F52AF3FE07C031
:101C60001AC080E290E0B3010E94560FEA948E2DD4
:101C700090E008171907A8F30EC0F501F7FC85914D
:101C8000F7FE81915F0190E0B3010E94560FE110D1
:101C9000EA94015010400115110579F7E6C0943619
:101CA00011F0993669F5F7FE08C0F60120813181FF
:101CB0004281538184E090E00AC0F60180819181E5
:101CC0009C01442737FD4095542F82E090E0C80ED8
:101CD000D91E9FE6F92257FF09C0509540953095CF
:101CE00021953F4F4F4F5F4FE0E8FE2ACA01B901EF
:101CF000A1012AE030E00E94820FB82EB2183CC049
:101D0000953729F41F2D1F7E2AE030E019C01F2DC2
:101D1000197F983589F09F3631F0903739F0983730
:101D200009F0A6C004C028E030E00AC0106114FD2C
:101D3000146020E130E004C014FD166020E132E0C0
:101D400017FF08C0F601608171818281938144E0B0
:101D500050E008C0F60180819181BC0180E090E0F4
:101D600042E050E0C40ED51EA1010E94820FB82EA1
:101D7000B2188FE7F82EF122F6FE0BC05EEFF522C7
:101D8000B91438F4F4FE07C0F2FC05C08FEEF82257
:101D900002C01B2D01C0192DF4FE0DC0FE01EB0D7C
:101DA000F11D8081803319F499EEF92208C01F5F7C
:101DB000F2FE05C003C08F2D867809F01F5F0F2D3E
:101DC000F3FC14C0F0FE0FC01E1510F09B2C0BC0CE
:101DD0009B2C9E0C911A1E2D06C080E290E0B30150
:101DE0000E94560F1F5F1E15C0F304C01E1510F48D
:101DF000E11A01C0EE2404FF0FC080E390E0B301BC
:101E00000E94560F02FF1DC001FD03C088E790E04D
:101E10000EC088E590E00BC0802F867891F001FF1E
:101E200002C08BE201C080E2F7FC8DE290E0B301DA
:101E30000E94560F06C080E390E0B3010E94560F47
:101E40009A94B914C0F3BA94F101EB0DF11D80819D
:101E500090E0B3010E94560FBB20A9F706C080E2B4
:101E600090E0B3010E94560FEA94EE20C1F74ACEEB
:101E7000F30166817781CB012B96E2E10C9423106C
:101E8000FC010590615070400110D8F78095909545
:101E90008E0F9F1F0895FC0161507040019001104A
:101EA000D8F7809590958E0F9F1F08950F931F93DD
:101EB000CF93DF938C01EB018B8181FF1BC082FFED
:101EC0000DC02E813F818C819D812817390764F4D4
:101ED000E881F9810193F983E88306C0E885F985F3
:101EE000802F0995892B31F48E819F8101969F83E4
:101EF0008E8302C00FEF1FEFC801DF91CF911F91BA
:101F00000F910895FA01AA27283051F1203181F16B
:101F1000E8946F936E7F6E5F7F4F8F4F9F4FAF4FF1
:101F2000B1E03ED0B4E03CD0670F781F891F9A1F04
:101F3000A11D680F791F8A1F911DA11D6A0F711DB8
:101F4000811D911DA11D20D009F468943F912AE0C4
:101F5000269F11243019305D3193DEF6CF010895AC
:101F6000462F4770405D4193B3E00FD0C9F7F6CFDD
:101F7000462F4F70405D4A3318F0495D31FD4052A5
:101F8000419302D0A9F7EACFB4E0A695979587953B
:101F900077956795BA95C9F700976105710508951A
:101FA0009B01AC010A2E06945795479537952795C6
:101FB000BA95C9F7620F731F841F951FA01D08955E
:101FC000AA1BBB1B51E107C0AA1FBB1FA617B7075F
:101FD00010F0A61BB70B881F991F5A95A9F780957B
:101FE0009095BC01CD01089597FB092E07260AD0D4
:101FF00077FD04D0E5DF06D000201AF470956195D6
:102000007F4F0895F6F7909581959F4F08952F92F1
:102010003F924F925F926F927F928F929F92AF9278
:10202000BF92CF92DF92EF92FF920F931F93CF93C5
:10203000DF93CDB7DEB7CA1BDB0B0FB6F894DEBF5C
:102040000FBECDBF09942A88398848885F846E8482
:102050007D848C849B84AA84B984C884DF80EE80CC
:10206000FD800C811B81AA81B981CE0FD11D0FB6D5
:10207000F894DEBF0FBECDBFED010895EE0FFF1F38
:0C2080000590F491E02D0994F894FFCF36
:10208C00544D3A2537750043553A2537750025329E
:0A209C00753A2532753A25327500B9
:00000001FF
