:100000000C946F000C948C000C948C000C948C005D
:100010000C948C000C948C000C948C000C948C0030
:100020000C948C000C948C000C948C000C948C0020
:100030000C948C000C948C000C948C000C94D705C0
:100040000C948C000C948C000C9477020C948C0013
:100050000C949B020C948C000C948C000C948C00DF
:100060000C948C000C948C000C948C000C948C00E0
:100070000C948C000C948C000C94AB020C948C00AF
:100080000C94F1020C948C000C948C005248492082
:100090002D20696E696369616C697A6163650074BA
:1000A0006C616369746B6F203400746C6163697494
:1000B0006B6F203300746C616369746B6F20320066
:1000C000746C616369746B6F203100436F6D6D53A5
:1000D000746174004A6F79737469636B0000112452
:1000E0001FBECFEFD0E1DEBFCDBF11E0A0E0B1E099
:1000F000ECE7FDE202C005900D92AC34B107D9F7F0
:1001000011E0ACE4B1E001C01D92A73DB107E1F7F9
:100110000E9435060C94BC160C940000DF93CF931C
:10012000CDB7DEB7E9E2F0E089E18083E0E9F0E015
:100130001082EBE2F0E01082EAE2F0E088ED8083EA
:10014000E5E9F0E086E08083E9E9F0E083E08083A0
:10015000E8E9F0E01082EBE9F0E01082EAE9F0E093
:1001600088ED8083EDE9F0E08EE08083CF91DF9130
:100170000895DF93CF93CDB7DEB7E7E2F0E086E4F2
:100180008083E6E2F0E087E88083CF91DF910895F5
:10019000DF93CF9300D0CDB7DEB79A8389832091C8
:1001A0004C0130914D0180914E0190914F01880F8B
:1001B000991FFC01E05BFE4F80819181281B390B68
:1001C00089819A81820F931F90934D0180934C01F6
:1001D00080914E0190914F01880F991FFC01E05BC7
:1001E000FE4F89819A819183808380914E01909105
:1001F0004F01019690934F0180934E0180914E01E3
:1002000090914F018430910520F010924F0110928F
:100210004E0180914C0190914D0196958795969550
:1002200087950F900F90CF91DF910895DF93CF9333
:1002300000D0CDB7DEB79A838983209158013091E1
:10024000590180915A0190915B01880F991FFC011F
:10025000E45AFE4F80819181281B390B89819A8154
:10026000820F931F909359018093580180915A01F6
:1002700090915B01880F991FFC01E45AFE4F898120
:100280009A819183808380915A0190915B010196BC
:1002900090935B0180935A0180915A0190915B0188
:1002A0008430910520F010925B0110925A018091E8
:1002B00058019091590196958795969587950F903D
:1002C0000F90CF91DF910895DF93CF9300D00F92DD
:1002D000CDB7DEB78983A7E2B0E0E7E2F0E0808146
:1002E000807C8C93A7E2B0E0E7E2F0E08081982F79
:1002F00089818F73892B8C93A6E2B0E0E6E2F0E06F
:10030000808180648C93E6E2F0E08081882F90E029
:10031000807490700097B9F78981873049F4E4E2DE
:10032000F0E0808191810E94C8009B838A8308C08D
:10033000E4E2F0E0808191810E9416019B838A8330
:100340008A819B810F900F900F90CF91DF9108953C
:10035000DF93CF93CDB7DEB76B970FB6F894DEBFC0
:100360000FBECDBFEAE3F0E08FE78083EBE3F0E080
:100370008FE78083E4E6F0E082E08083E5E6F0E06A
:1003800083E08083E1E3F0E088E18083E2E3F0E072
:1003900088EF8083A5E6B0E0E5E6F0E080818D7F20
:1003A0008C938CE00E94B9090E941F098CE890E0B0
:1003B0000E949109E0E5F0E088E08083E1E5F0E06B
:1003C00083EA8083E3E5F0E081E08083E7E5F0E025
:1003D00082E080830E948E000E94B90086E791E04F
:1003E0000E94D60BA2E3B0E0E2E3F0E080818061FE
:1003F0008C9380E090E0AAE7B4E48B879C87AD877C
:10040000BE876B857C858D859E8520E030E04AE740
:1004100055E40E94350FDC01CB018F839887A987B3
:10042000BA876F81788589859A8520E030E040E839
:100430005FE30E948F1088232CF481E090E09E837C
:100440008D833FC06F81788589859A8520E03FEF55
:100450004FE757E40E942F1018164CF56B857C85EA
:100460008D859E8520E030E040E251E40E94350F0A
:10047000DC01CB01BC01CD010E94620DDC01CB018E
:100480009E838D830FC080E991E09C838B838B8159
:100490009C810197F1F79C838B838D819E810197CD
:1004A0009E838D838D819E81009769F714C06F8133
:1004B000788589859A850E94620DDC01CB019E8337
:1004C0008D838D819E819A83898389819A81019709
:1004D000F1F79A8389830E94150978946B960FB679
:1004E000F894DEBF0FBECDBFCF91DF9108951F926C
:1004F0000F920FB60F9211248F939F93AF93BF93D8
:10050000EF93FF93DF93CF93CDB7DEB7A5E6B0E0CF
:10051000E5E6F0E0908182E089278C93CF91DF912E
:10052000FF91EF91BF91AF919F918F910F900FBE6F
:100530000F901F9018951F920F920FB60F921124D3
:10054000DF93CF93CDB7DEB7CF91DF910F900FBE82
:100550000F901F9018951F920F920FB60F921124B3
:100560002F933F934F935F936F937F938F939F93BB
:10057000AF93BF93EF93FF93DF93CF930F92CDB7DA
:10058000DEB7ECE9F0E08081898326E731E08981FC
:10059000B9010E94090CEBE9F0E08081882F90E01E
:1005A00080719070009749F08091AA019091AB0101
:1005B00001969093AB018093AA010F90CF91DF91A8
:1005C000FF91EF91BF91AF919F918F917F916F912B
:1005D0005F914F913F912F910F900FBE0F901F9001
:1005E00018951F920F920FB60F9211242F933F93DD
:1005F0004F935F936F937F938F939F93AF93BF932B
:10060000EF93FF93DF93CF93CDB7DEB726E731E0CB
:100610008CE990E0B9010E94FF0ACF91DF91FF9130
:10062000EF91BF91AF919F918F917F916F915F916A
:100630004F913F912F910F900FBE0F901F901895E3
:10064000DF93CF93CDB7DEB7E3E6F0E08081882F6C
:1006500090E081709070009779F4809167018F5FCE
:100660008093670180916701853031F410926701B2
:1006700080EC90E00E949109E3E6F0E08081882F11
:1006800090E081709070882311F010926701E0E390
:10069000F0E0808188237CF0809166018F5F8093F9
:1006A000660180916601853031F41092660185EB18
:1006B00090E00E949109E0E3F0E08081882314F447
:1006C00010926601E0E3F0E08081882F90E0807472
:1006D0009070009779F4809165018F5F8093650138
:1006E00080916501853031F4109265018AEA90E0CD
:1006F0000E949109E0E3F0E08081882F90E080740F
:100700009070009711F010926501E0E3F0E08081B5
:10071000882F90E080729070009779F48091640146
:100720008F5F8093640180916401853031F4109271
:1007300064018FE990E00E949109E0E3F0E080819C
:10074000882F90E080729070009711F010926401F1
:10075000CF91DF910895DF93CF9300D0CDB7DEB76F
:100760009A83898389819A81009709F442C0E9813B
:10077000FA81868197810A96E981FA819783868337
:10078000E981FA818681978123E0883E920789F585
:10079000E981FA8117821682E981FA8185818F5F6A
:1007A000E981FA818583E981FA8185818C3309F5B4
:1007B000E981FA811582E981FA8184818F5FE9817B
:1007C000FA818483E981FA8184818C3391F4E9810F
:1007D000FA811482E981FA8183818F5FE981FA814C
:1007E0008383E981FA818381883119F4E981FA816F
:1007F00013820F900F90CF91DF910895DF93CF93E5
:10080000CDB7DEB727970FB6F894DEBF0FBECDBFCA
:100810009D838C831B821A8289E090E00E94B21231
:100820009B838A838A819B81009709F441C08C81D4
:100830009D810097E9F1EC81FD818381282F30E0D3
:10084000EC81FD818481482F50E0EC81FD81858120
:10085000682F70E08DB79EB70C970FB6F8949EBFC7
:100860000FBE8DBFEDB7FEB731968A819B81918314
:10087000808389E090E09383828380E091E0958398
:1008800084833783268351874087738762870E94DA
:10089000BA132DB73EB7245F3F4F0FB6F8943EBF53
:1008A0000FBE2DBF89838A819B819F838E8302C067
:1008B0001F821E828E819F8127960FB6F894DEBF1D
:1008C0000FBECDBFCF91DF910895DF93CF9300D0BE
:1008D000CDB7DEB78CE060E00E94E20889E691E0E7
:1008E0000E94FE039A83898389819A810E946A0902
:1008F00089819A810E945B130F900F90CF91DF91B5
:100900000895DF93CF93CDB7DEB72A970FB6F8944B
:10091000DEBF0FBECDBF80E060E00E94E2088BEC3E
:1009200090E00E94910980E061E00E94E20820913D
:100930009E0130919F014091A0015091A1018DB77E
:100940009EB708970FB6F8949EBF0FBE8DBFEDB748
:10095000FEB73196CE010196918380838CE091E0C1
:100960009383828324833583468357830E94EB13CA
:100970008DB79EB708960FB6F8949EBF0FBE8DBF79
:10098000CE0101960E946A0980E062E00E94E208BE
:100990002091A2013091A3014091A4015091A501A1
:1009A0008DB79EB708970FB6F8949EBF0FBE8DBF48
:1009B000EDB7FEB73196CE0101969183808383E136
:1009C00091E09383828324833583468357830E94F7
:1009D000EB138DB79EB708960FB6F8949EBF0FBE67
:1009E0008DBFCE0101960E946A0980E063E00E94FB
:1009F000E2082091AA013091AB0100D000D000D0D4
:100A0000EDB7FEB73196CE010196918380838AE1DE
:100A100091E093838283358324830E94EB138DB707
:100A20009EB706960FB6F8949EBF0FBE8DBFCE013F
:100A300001960E946A098AE061E00E94E208209122
:100A4000A6013091A70100D000D000D0EDB7FEB7CD
:100A50003196CE0101969183808381E291E0938368
:100A60008283358324830E94EB138DB79EB706964D
:100A70000FB6F8949EBF0FBE8DBFCE0101960E94A7
:100A80006A098AE062E00E94E2082091A8013091A0
:100A9000A90100D000D000D0EDB7FEB73196CE014D
:100AA00001969183808388E291E0938382833583EA
:100AB00024830E94EB138DB79EB706960FB6F89469
:100AC0009EBF0FBE8DBFCE0101960E946A092A9675
:100AD0000FB6F894DEBF0FBECDBFCF91DF91089562
:100AE000DF93CF93CDB7DEB72A970FB6F894DEBF6A
:100AF0000FBECDBF80E060E00E94E20884ED90E090
:100B00000E94910980E061E00E94E2082091710159
:100B10003091720100D000D000D0EDB7FEB7319611
:100B2000CE010196918380838FE291E0938382834B
:100B3000358324830E94EB138DB79EB706960FB6BC
:100B4000F8949EBF0FBE8DBFCE0101960E946A0928
:100B500080E062E00E94E20820917301309174010C
:100B600000D000D000D0EDB7FEB73196CE0101968F
:100B70009183808386E391E093838283358324830A
:100B80000E94EB138DB79EB706960FB6F8949EBFE2
:100B90000FBE8DBFCE0101960E946A092A960FB63C
:100BA000F894DEBF0FBECDBFCF91DF9108951F92A5
:100BB0000F920FB60F9211242F933F934F935F9391
:100BC0006F937F938F939F93AF93BF93EF93FF9315
:100BD000DF93CF9300D0CDB7DEB789E691E00E94D6
:100BE000AB0386E791E00E942C0D809168018F5F36
:100BF0008093680180916801823311F51092680139
:100C000080916901282F30E03A83298389819A8174
:100C10008130910561F029813A812230310561F0FE
:100C200089819A81009761F40E94650409C00E943D
:100C300065040E94810404C00E9465040E9470053E
:100C40000F900F90CF91DF91FF91EF91BF91AF91F6
:100C50009F918F917F916F915F914F913F912F91D4
:100C60000F900FBE0F901F9018950F93DF93CF93A7
:100C7000CDB7DEB76F970FB6F894DEBF0FBECDBF0E
:100C80000E94A801A5E6B0E0E5E6F0E080818D7F56
:100C90008C93A2E3B0E0E2E3F0E080818F7E8C935E
:100CA00082E08093690187E00E9464019093720161
:100CB0008093710186E00E94640190937401809397
:100CC0007301198212C08981282F30E08981882F11
:100CD00090E0880F991F482FCE010296FC01E20F89
:100CE000F31F408389818F5F898389818E3158F317
:100CF00089E791E09E012E5F3F4FB9014EE120E070
:100D00000AE00E94A60AAAE9B0E0EAE9F0E08081E0
:100D10008F7E8C93A2E3B0E0E2E3F0E0808180611B
:100D20008C9326E731E08CE990E0B9010E94E70A54
:100D3000809176018830E1F7A2E3B0E0E2E3F0E0F1
:100D400080818F7E8C93AAE9B0E0EAE9F0E08081AF
:100D500080618C9388E08093760180917701883060
:100D600021F0809177018930C1F78AE08093770183
:100D70009ACFDF93CF93CDB7DEB7A5E3B0E0E5E33D
:100D8000F0E0808184608C9300C0A5E3B0E0E5E3EF
:100D9000F0E080818B7F8C93CF91DF910895DF937A
:100DA000CF9300D00F92CDB7DEB78A836B838B8150
:100DB000882341F0A5E3B0E0E5E3F0E080818160C5
:100DC0008C9307C0A5E3B0E0E5E3F0E080818E7F7F
:100DD0008C93A5E3B0E0E5E3F0E080818D7F8C9318
:100DE000A4E3B0E0E4E3F0E0808188608C93A4E3C6
:100DF000B0E0E4E3F0E0808180618C93A4E3B0E0B4
:100E0000E4E3F0E0808180628C93A4E3B0E0E4E36B
:100E1000F0E0808180648C93A5E3B0E0E5E3F0E04E
:100E200080818F7B8C93A5E3B0E0E5E3F0E08081E7
:100E30008F7D8C93A5E3B0E0E5E3F0E080818F7EC9
:100E40008C93A5E3B0E0E5E3F0E08081877F8C93AD
:100E50008A8188233CF4A5E3B0E0E5E3F0E08081FB
:100E600080648C938A81882F90E0807490700097C2
:100E700039F0A5E3B0E0E5E3F0E0808180628C9397
:100E80008A81882F90E080729070009739F0A5E3F6
:100E9000B0E0E5E3F0E0808180618C938A81882F67
:100EA00090E080719070009739F0A5E3B0E0E5E341
:100EB000F0E0808188608C930E94B906A5E3B0E0E1
:100EC000E5E3F0E080818F7B8C93A5E3B0E0E5E380
:100ED000F0E080818F7D8C93A5E3B0E0E5E3F0E066
:100EE00080818F7E8C93A5E3B0E0E5E3F0E0808124
:100EF000877F8C938A81882F90E08870907000970C
:100F000039F0A5E3B0E0E5E3F0E0808180648C9304
:100F10008A81882F90E084709070009739F0A5E363
:100F2000B0E0E5E3F0E0808180628C938A81882FD5
:100F300090E082709070009739F0A5E3B0E0E5E3AF
:100F4000F0E0808180618C938A81882F90E08170AD
:100F50009070882339F0A5E3B0E0E5E3F0E080810C
:100F600088608C930E94B906A5E3B0E0E5E3F0E069
:100F7000808188608C93A5E3B0E0E5E3F0E08081B8
:100F800080618C93A5E3B0E0E5E3F0E080818062CE
:100F90008C93A5E3B0E0E5E3F0E0808180648C937E
:100FA0000F900F900F90CF91DF910895DF93CF9323
:100FB00000D0CDB7DEB78A838A81882341F0A5E3CC
:100FC000B0E0E5E3F0E0808181608C9307C0A5E3A9
:100FD000B0E0E5E3F0E080818E7F8C93A5E3B0E0A4
:100FE000E5E3F0E0808182608C93A4E3B0E0E4E389
:100FF000F0E08081877F8C93A4E3B0E0E4E3F0E04D
:1010000080818F7E8C93A4E3B0E0E4E3F0E0808104
:101010008F7D8C93A4E3B0E0E4E3F0E080818F7BEC
:101020008C93A5E3B0E0E5E3F0E0808184608C93ED
:1010300000C01982E3E3F0E08081882F90E088709F
:101040009070009719F0898180618983E3E3F0E073
:101050008081882F90E080719070009719F08981CD
:1010600080628983E3E3F0E08081882F90E08072E2
:101070009070009719F0898180648983E3E3F0E040
:101080008081882F90E080749070009719F089819A
:1010900080688983A5E3B0E0E5E3F0E080818B7FA1
:1010A0008C9300C0A5E3B0E0E5E3F0E080818460CC
:1010B0008C9300C0E3E3F0E08081882F90E088709B
:1010C0009070009719F0898181608983E3E3F0E0F3
:1010D0008081882F90E080719070009719F089814D
:1010E00082608983E3E3F0E08081882F90E0807262
:1010F0009070009719F0898184608983E3E3F0E0C0
:101100008081882F90E080749070009719F0898119
:1011100088608983A5E3B0E0E5E3F0E080818B7F20
:101120008C9389810F900F90CF91DF910895DF9379
:10113000CF93CDB7DEB780E00E94D6078823DCF3DB
:1011400088E090E00E94AA0880E00E94D607CF9134
:10115000DF910895DF93CF9300D0CDB7DEB79A83A8
:10116000898389819A81009711F400C006C0898122
:101170009A810197F1F79A8389830F900F90CF910D
:10118000DF910895DF93CF930F92CDB7DEB78983B8
:101190000E949708898160E00E94CF060F90CF914E
:1011A000DF910895DF93CF930F92CDB7DEB7898398
:1011B0000E949708898161E00E94CF060F90CF912D
:1011C000DF910895DF93CF9300D0CDB7DEB7898349
:1011D0006A838A81882329F4898180580E94C20801
:1011E00014C08A81813029F4898180540E94C20808
:1011F0000CC08A81823029F489818C560E94C208F1
:1012000004C089818C520E94C2080F900F90CF9128
:10121000DF910895DF93CF93CDB7DEB70E94970893
:10122000882F90E0CF91DF910895DF93CF93CDB7D2
:10123000DEB781E00E94C208CF91DF910895DF936D
:10124000CF93CDB7DEB782E00E94C208CF91DF9185
:101250000895DF93CF9300D0CDB7DEB78A830E9485
:10126000970889838A818A3021F489810E94420902
:1012700004C08A8161E00E94CF060F900F90CF9149
:10128000DF910895DF93CF9300D0CDB7DEB7898388
:101290008981843118F480E48A8313C08981803481
:1012A00030F08981843518F484E18A830AC0898109
:1012B000843130F08981803418F484E58A8301C058
:1012C0001A828A8180580E94C2080F900F90CF9195
:1012D000DF910895DF93CF9300D000D0CDB7DEB774
:1012E0009A83898303C08B810E942909E981FA814D
:1012F00080818B838B818C838C81882311F081E0AA
:101300008C838C8129813A812F5F3F4F3A832983D7
:10131000882349F70F900F900F900F90CF91DF9196
:101320000895DF93CF9300D000D000D0CDB7DEB7C3
:101330009D838C8303C08E810E9429098C819D81AD
:101340009B838A838C819D8101969D838C83EA8116
:10135000FB818491898389818E838E81882359F7CB
:1013600026960FB6F894DEBF0FBECDBFCF91DF91AA
:101370000895DF93CF930F92CDB7DEB78983A4E3AF
:10138000B0E0E4E3F0E0808181608C93A4E3B0E01E
:10139000E4E3F0E0808182608C93A4E3B0E0E4E3D6
:1013A000F0E0808184608C93A4E3B0E0E4E3F0E0BB
:1013B000808188608C93A4E3B0E0E4E3F0E0808176
:1013C00080618C93A4E3B0E0E4E3F0E0808180628C
:1013D0008C93A4E3B0E0E4E3F0E0808180648C933C
:1013E00080E09AEF0E94AA08A5E3B0E0E5E3F0E010
:1013F000808180618C93A5E3B0E0E5E3F0E080813B
:1014000088608C930E94B90680E09EE40E94AA083E
:101410000E94B90680E091E00E94AA080E94B906E5
:1014200080E091E00E94AA08A5E3B0E0E5E3F0E0E7
:101430008081877F8C930E94B90680E091E00E94B2
:10144000AA0888E20E94C20888E00E94C2080E949E
:10145000150986E00E94C20889810E94C2080F9087
:10146000CF91DF910895DF93CF9300D000D00F92FA
:10147000CDB7DEB79C838B836D838D81282F30E0C1
:101480008B819C81822793279C838B831A8219826C
:101490001DC08B819C8181709070882361F08B814D
:1014A0009C819C013695279581E090EA82279327BD
:1014B0009C838B8306C08B819C81969587959C83AA
:1014C0008B8389819A8101969A83898389819A8104
:1014D00088309105F4F28B819C810F900F900F90D2
:1014E0000F900F90CF91DF910895DF93CF9300D0AD
:1014F00000D000D0CDB7DEB79D838C836E831A8277
:1015000019821B8214C08B81282F30E08C819D8131
:10151000FC01E20FF31F8081882F90E02981622F68
:101520000E94330A9A8389838B818F5F8B839B818F
:101530008E81981740F389819A8126960FB6F89488
:10154000DEBF0FBECDBFCF91DF9108950F93DF9324
:10155000CF93CDB7DEB727970FB6F894DEBF0FBE97
:10156000CDBF9A8389837C836B834D832E830F83C6
:10157000E981FA818F8184A3E981FA818D8180A339
:10158000E981FA818E8181A3CE0103966D810E944B
:10159000750AE981FA8193A382A38D81803268F470
:1015A00049815A818D81E82FF0E09E012D5F3F4FE8
:1015B000CA01B901AF010E94B11327960FB6F89482
:1015C000DEBF0FBECDBFCF91DF910F910895DF93A6
:1015D000CF9300D000D0CDB7DEB79A8389837C83C8
:1015E0006B83EB81FC811082E981FA818AEA808336
:1015F0000F900F900F900F90CF91DF910895DF9390
:10160000CF9300D000D000D0CDB7DEB79A838983C6
:101610007C836B83EB81FC818081282F30E03E83CB
:101620002D838D819E818330910509F44BC02D81DE
:101630003E81243031057CF48D819E81813091057D
:1016400059F12D813E81223031058CF58D819E81AD
:101650000097C9F0A2C02D813E812530310509F4E3
:1016600053C08D819E8185309105BCF12D813E81D5
:101670002630310509F470C08D819E818730910537
:1016800009F478C08AC0EB81FC8181E08083E98124
:10169000FA818BEA808381C0EB81FC8182E08083C8
:1016A000EB81FC8187A1E981FA81808376C0EB819F
:1016B000FC8183E08083EB81FC8183A1E981FA8155
:1016C00080836BC0EB81FC8184E08083EB81FC81B3
:1016D00084A1E981FA81808360C0EB81FC8185E08F
:1016E00080834091D101242F30E08B819C81820F37
:1016F000931FFC0133968081E981FA818083842FD6
:101700008F5F8093D10149C0EB81FC8193A18091CF
:10171000D101891798F44091D101242F30E08B81B9
:101720009C81820F931FFC0133968081E981FA81AD
:101730008083842F8F5F8093D1012FC0EB81FC8148
:1017400086E080831092D101EB81FC8185A196A176
:10175000E981FA81808321C0EB81FC8187E080836D
:10176000EB81FC8185A196A1892F9927E981FA81D6
:10177000808313C0EB81FC8188E08083EB81FC8156
:1017800080A591A5A2A5B3A50196A11DB11DEB81D0
:10179000FC8180A791A7A2A7B3A726960FB6F894BD
:1017A000DEBF0FBECDBFCF91DF910895DF93CF9302
:1017B00000D0CDB7DEB79A83898389819A8100975B
:1017C00019F1E981FA8188E08083E981FA818AE070
:1017D0008183E981FA8110A611A612A613A6E981D8
:1017E000FA811282E981FA8111AA10AAE981FA81AB
:1017F00014A615A616A617A6E981FA8113AA12AA9D
:10180000E981FA8115AA14AA0F900F90CF91DF9168
:101810000895DF93CF93CDB7DEB729970FB6F8942D
:10182000DEBF0FBECDBF8D837F836E83EE81FF81D0
:101830001282EE81FF818181282F30E0398728874D
:10184000888599858430910509F469C02885398592
:101850002530310594F4888599858230910509F405
:101860003EC028853985233031050CF044C0888579
:1018700099858130910531F1E6C02885398526307A
:10188000310509F47AC088859985863091050CF474
:1018900052C0288539852730310509F47DC08885F7
:1018A00099858A30910509F0CEC08D818A3A29F454
:1018B000EE81FF8181E08183C6C0EE81FF818AE0F5
:1018C0008183C1C08D818B3A29F4EE81FF8182E052
:1018D0008183B9C0EE81FF818AE08183B4C0EE814B
:1018E000FF8183E081838E819F81FC01E65AFF4F57
:1018F0008D818083A8C08D81803260F4EE81FF816C
:1019000084E081838E819F81FC01EA5AFF4F8D81A3
:10191000808399C0EE81FF818AE0818394C0EE814B
:10192000FF8185E081838E819F81FC01E95AFF4F11
:101930008D81808388C04091D201242F30E08E8138
:101940009F81820F931FFC01F6968D818083842FE7
:101950008F5F8093D2018E819F81FC01EA5AFF4FF5
:1019600090818091D201981709F06DC0EE81FF81BE
:1019700086E081831092D20166C0EE81FF8187E00C
:1019800081838D81282F30E08E819F81FC01E85A70
:10199000FF4F3183208357C08D81882F90E09C8337
:1019A0008B838E819F81FC01E85AFF4F208131811A
:1019B0008B819C81982F8827282B392B8E819F81A2
:1019C000FC01E85AFF4F318320838E819F819C0167
:1019D0002A5C3F4F8E819F81FC01EA5AFF4F408174
:1019E000C901642F0E94750A9A8389838E819F8121
:1019F000FC01E85AFF4F2081318189819A812817A3
:101A00003907A1F4EE81FF8188E08183EE81FF81B7
:101A100084A595A5A6A5B7A50196A11DB11DEE812A
:101A2000FF8184A795A7A6A7B7A70DC0EE81FF8168
:101A300080A991A90196EE81FF8191AB80ABEE81E7
:101A4000FF818AE0818329960FB6F894DEBF0FBE2E
:101A5000CDBFCF91DF910895DF93CF9300D000D019
:101A6000CDB7DEB79A838983E981FA818181883095
:101A700011F1E981FA8182818C831B828C818B3008
:101A800010F081E08B838C818F5FE981FA81828302
:101A90008B81882381F0E981FA811282E981FA81C0
:101AA00082A993A90196E981FA8193AB82ABE9817E
:101AB000FA8189E081830F900F900F900F90CF9162
:101AC000DF910895EF92FF920F931F937B018C019A
:101AD00020E030E040E05FE40E945F1088238CF05B
:101AE000C801B70120E030E040E05FE40E94D70E7B
:101AF0000E94BF109B01AC01205030404040504834
:101B000006C0C801B7010E94BF109B01AC01B9011A
:101B1000CA011F910F91FF90EF900895A0E0B0E0EF
:101B2000E4E9FDE00C948516DC012B01FA019C919F
:101B3000923008F436C1EB018881823008F430C15C
:101B4000943061F4843009F02CC1FD0191818981C8
:101B5000981709F426C1ADE3B1E023C1843009F43C
:101B60001FC18230A9F4923009F01BC19A01AD0166
:101B700088E0EA010990AE01E90109929E018150D5
:101B8000C1F7E2018981ED0199818923818306C131
:101B9000923009F405C1ED012A803B80EB018A8176
:101BA0009B81ED01AC80BD80CE80DF80EB01EC80BD
:101BB000FD800E811F819101281B390BB90137FF70
:101BC00004C066277727621B730B603271050CF027
:101BD00061C0121613066CF537014801062E04C0C9
:101BE00096948794779467940A94D2F721E030E032
:101BF00040E050E004C0220F331F441F551F6A9578
:101C0000D2F721503040404050402E213F21402308
:101C10005123211531054105510521F021E030E026
:101C200040E050E079018A01E628F72808291929BF
:101C30003CC0232BD1F1260E371E35014601062E5E
:101C400004C096948794779467940A94D2F721E01D
:101C500030E040E050E004C0220F331F441F551F06
:101C60006A95D2F721503040404050402A213B2114
:101C70004C215D21211531054105510521F021E05F
:101C800030E040E050E059016A01A628B728C82892
:101C9000D9280BC0821593052CF01C01AA24BB2463
:101CA000650103C0EE24FF248701ED019981E20163
:101CB0008981981709F445C0992339F0A801970143
:101CC0002A193B094C095D0906C0A60195012E1988
:101CD0003F09400B510B57FD08C01182338222820D
:101CE00024833583468357831DC081E081833382FB
:101CF000228288279927DC01821B930BA40BB50B4A
:101D000084839583A683B7830DC0220F331F441F9E
:101D1000551F24833583468357838281938101979E
:101D2000938382832481358146815781DA01C901F9
:101D30000197A109B1098F5F9F4FAF4FBF4328F3B0
:101D40000BC0918333822282EA0CFB1C0C1D1D1DEB
:101D5000E482F5820683178383E0808324813581C2
:101D60004681578157FF1AC0C901AA2797FDA09540
:101D7000BA2F81709070A070B070569547953795C6
:101D80002795822B932BA42BB52B84839583A68335
:101D9000B78382819381019693838283DF0101C09F
:101DA000D201CD01CDB7DEB7E2E10C94A116A0E2DD
:101DB000B0E0EDEDFEE00C94911669837A838B839D
:101DC0009C832D833E834F835887E9E0EE2EF12CD0
:101DD000EC0EFD1ECE010196B7010E94E8118E01A6
:101DE0000F5E1F4FCE010596B8010E94E8118A8947
:101DF00091E089278A8BC701B801AE01475E5F4F2A
:101E00000E948E0D0E941311A096E6E00C94AD1670
:101E1000A0E2B0E0EEE0FFE00C94911669837A83D3
:101E20008B839C832D833E834F835887F9E0EF2E6D
:101E3000F12CEC0EFD1ECE010196B7010E94E811B7
:101E40008E010F5E1F4FCE010596B8010E94E8116A
:101E5000C701B801AE01475E5F4F0E948E0D0E9420
:101E60001311A096E6E00C94AD16A0E2B0E0EBE30F
:101E7000FFE00C94851669837A838B839C832D8382
:101E80003E834F835887CE010196BE01675F7F4F27
:101E90000E94E811CE010596BE016F5E7F4F0E9441
:101EA000E8119985923088F089898230C8F09430A1
:101EB00019F4823051F404C0843029F4923081F452
:101EC0008DE391E0C6C0923049F420E09A858A897A
:101ED000981321E02A87CE010996BBC0823049F4CD
:101EE00020E09A858A89981321E02A8BCE014196B9
:101EF000B0C02D843E844F8458886D887E888F883A
:101F0000988CEE24FF248701AA24BB24650140E0BD
:101F100050E060E070E0E0E0F0E0C10181709070BE
:101F2000892BE9F0E60CF71C081D191D9A01AB017D
:101F30002A0D3B1D4C1D5D1D80E090E0A0E0B0E04F
:101F4000E614F7040805190520F481E090E0A0E00C
:101F5000B0E0BA01A901480F591F6A1F7B1FAA0CE4
:101F6000BB1CCC1CDD1C97FE08C081E090E0A0E00B
:101F7000B0E0A82AB92ACA2ADB2A3196E032F10554
:101F800049F0660C771C881C991C5694479437942A
:101F90002794C3CFFA85EA892B893C898B859C8558
:101FA000280F391F2E5F3F4F17C0CA0181709070F4
:101FB000892B61F016950795F794E79480E090E0FF
:101FC000A0E0B0E8E82AF92A0A2B1B2B7695679542
:101FD000579547952F5F3F4F77FDE7CF0CC0440FD4
:101FE000551F661F771F17FD4160EE0CFF1C001F79
:101FF000111F21503040403090E0590790E06907B0
:1020000090E4790760F32B8F3C8FDB01CA018F7757
:102010009070A070B07080349105A105B10561F495
:1020200047FD0AC0E114F1040105110529F0405CE7
:102030005F4F6F4F7F4F40781A8EFE1711F081E08F
:102040008A8F4D8F5E8F6F8F78A383E0898FCE014B
:1020500049960E941311A096E2E10C94A116A8E102
:10206000B0E0E5E3F0E10C94911669837A838B8309
:102070009C832D833E834F83588789E0E82EF12C83
:10208000EC0EFD1ECE010196B7010E94E8118E01F3
:102090000F5E1F4FCE010596B8010E94E811898599
:1020A000823040F08989823028F0C701B8010E944F
:1020B000581201C08FEF6896E6E00C94AD16A8E1C7
:1020C000B0E0E5E6F0E10C94911669837A838B83A6
:1020D0009C832D833E834F83588789E0E82EF12C23
:1020E000EC0EFD1ECE010196B7010E94E8118E0193
:1020F0000F5E1F4FCE010596B8010E94E811898539
:10210000823040F08989823028F0C701B8010E94EE
:10211000581201C08FEF6896E6E00C94AD16A8E166
:10212000B0E0E5E9F0E10C94911669837A838B8342
:102130009C832D833E834F83588789E0E82EF12CC2
:10214000EC0EFD1ECE010196B7010E94E8118E0132
:102150000F5E1F4FCE010596B8010E94E8118985D8
:10216000823040F08989823028F0C701B8010E948E
:10217000581201C081E06896E6E00C94AD16ACE020
:10218000B0E0E5ECF0E10C94951669837A838B83DB
:102190009C83CE010196BE016B5F7F4F0E94E811C8
:1021A0008D81823061F1823050F1843021F48E8152
:1021B000882351F12EC02F81388537FD20C06E81D4
:1021C0002F3131051CF06623F9F023C08EE190E039
:1021D000821B930B29853A854B855C8504C05695F7
:1021E0004795379527958A95D2F76623B1F0509594
:1021F0004095309521953F4F4F4F5F4F0EC020E0E7
:1022000030E040E050E009C02FEF3FEF4FEF5FE7D5
:1022100004C020E030E040E050E8B901CA012C964B
:10222000E2E00C94B116DF92EF92FF920F931F93AE
:10223000FC01E480F58006811781D18080818230A5
:1022400048F480E090E0A0E1B0E0E82AF92A0A2B07
:102250001B2BA5C0843009F49FC0823021F4EE24EA
:10226000FF24870105C0E114F1040105110519F4EB
:10227000E0E0F0E096C0628173819FEF62387907F9
:102280000CF05BC022E83FEF261B370B2A313105EB
:102290002CF020E030E040E050E02AC0B801A70177
:1022A000022E04C076956795579547950A94D2F704
:1022B00081E090E0A0E0B0E004C0880F991FAA1F61
:1022C000BB1F2A95D2F70197A109B1098E219F2141
:1022D000A023B1230097A105B10521F081E090E092
:1022E000A0E0B0E09A01AB01282B392B4A2B5B2BE5
:1022F000DA01C9018F779070A070B07080349105B9
:10230000A105B10539F427FF09C0205C3F4F4F4FAD
:102310005F4F04C0215C3F4F4F4F5F4FE0E0F0E064
:102320002030A0E03A07A0E04A07A0E45A0710F0E6
:10233000E1E0F0E079018A0127C06038710564F5B9
:10234000FB01E158FF4FD801C7018F779070A07053
:10235000B07080349105A105B10539F4E7FE0DC0D8
:1023600080E490E0A0E0B0E004C08FE390E0A0E063
:10237000B0E0E80EF91E0A1F1B1F17FF05C01695D7
:102380000795F794E794319687E016950795F794AB
:10239000E7948A95D1F705C0EE24FF248701EFEF7B
:1023A000F0E06E2F679566276795902F9F77D794FB
:1023B000DD24D7948E2F8695492F462B582F5D29E3
:1023C000B701CA011F910F91FF90EF90DF90089520
:1023D000FC01DB01408151812281622F6F7770E027
:1023E000221F2227221F9381892F880F822B282FBB
:1023F00030E0991F9927991FFD019183211531051F
:1024000081F5411551056105710511F482E032C075
:1024100082E89FEFFD01938382839A01AB0167E01D
:10242000220F331F441F551F6A95D1F783E08C9309
:102430000AC0220F331F441F551FFD018281938163
:102440000197938382832030F0E03F07F0E04F074D
:10245000F0E45F0770F3FD012483358346835783DF
:1024600008952F3F310581F441155105610571052E
:1024700019F484E08C93089564FF03C081E08C9389
:1024800001C01C92FD010FC02F573040FD01338366
:10249000228383E08C9387E0440F551F661F771FCC
:1024A0008A95D1F770644483558366837783089552
:1024B0001F93CF93DF93DC01FB019C91923008F4D2
:1024C00044C08081823008F440C0943051F4ED0162
:1024D0001981843081F58181682F70E0611B710959
:1024E0003CC0843021F0923031F48230A1F18181FE
:1024F000882371F12AC0ED0119818230E1F08181D8
:102500001817C9F4ED012A813B81828193818217DA
:1025100093078CF028173907B4F0ED018C819D8169
:10252000AE81BF81248135814681578128173907C3
:102530004A075B0718F4112341F00AC0821793077A
:10254000A407B50740F4112319F061E070E005C05D
:102550006FEF7FEF02C060E070E0CB01DF91CF91C1
:102560001F910895CF93DF93BC018230910510F441
:1025700062E070E0A091D501B091D601ED0140E09C
:1025800050E0E0E0F0E021C088819981861797074C
:1025900069F48A819B81309719F09383828304C008
:1025A0009093D6018093D501FE0133C06817790757
:1025B00038F44115510519F08417950708F4AC015A
:1025C000FE018A819B819C01E9012097E9F6411572
:1025D0005105A1F1CA01861B970B049708F4BA01B3
:1025E000E0E0F0E029C08D919C9111978417950748
:1025F000F1F46417750779F4ED018A819B813097B6
:1026000019F09383828304C09093D6018093D501FF
:10261000FD0132964CC0CA01861B970BFD01E80FE5
:10262000F91F6193719302978D939C9340C0FD01B4
:10263000828193819C01D9011097A9F68091D301E1
:102640009091D401892B41F48091470190914801E8
:102650009093D4018093D3014091490150914A0154
:102660004115510541F44DB75EB7809145019091F8
:102670004601481B590B2091D3013091D401CA0166
:10268000821B930B8617970780F0AB014E5F5F4F5D
:102690008417950750F0420F531F5093D401409375
:1026A000D301F9016193719302C0E0E0F0E0CF0142
:1026B000DF91CF910895CF93DF93009709F44EC037
:1026C000EC0122971B821A82A091D501B091D6010C
:1026D000109701F140E050E0AC17BD0700F1BB835B
:1026E000AA83FE0121913191E20FF31FAE17BF07BC
:1026F00071F48D919C911197280F391F2E5F3F4FD8
:1027000039832883FD01828193819B838A834115CC
:10271000510569F4D093D601C093D5011FC0FD01C6
:1027200082819381AD01009711F0DC01D5CFFA01D0
:10273000D383C28321913191E20FF31FCE17DF07BC
:1027400069F488819981280F391F2E5F3F4FFA0164
:10275000318320838A819B8193838283DF91CF9110
:102760000895FB01DC0102C001900D9241505040E0
:10277000D8F70895AEE0B0E0E0ECF3E10C949316E6
:102780000D891E898F89988D97FF02C080E090E89F
:1027900001979E838D831A83098386E08C839E0133
:1027A000255E3F4FCE010196698D7A8DA9010E9469
:1027B0000F144D815E8157FD0AC02F813885421765
:1027C00053070CF49A01020F131FF80110822E9682
:1027D000E4E00C94AF16AEE0B0E0E1EFF3E10C946E
:1027E00093160D891E8986E08C831A8309838FEFE7
:1027F0009FE79E838D839E01275E3F4FCE0101960A
:102800006F89788DA9010E940F142F813885020FDE
:10281000131FF80110822E96E4E00C94AF16ABE083
:10282000B0E0E5E1F4E10C9485163C012B016A016E
:10283000FC0117821682838181FD03C06FEF7FEF59
:10284000BFC19AE0892E1E010894211C311CF3019E
:102850002381F20123FD859123FF81912F0188239C
:1028600009F4ABC1853239F423FD859123FF8191B1
:102870002F01853229F490E0B3010E94FB15E7CFC8
:10288000982FFF24EE249924FFE1FF15B8F0903231
:1028900061F0933281F09B3231F09D3249F09033F8
:1028A00069F441E024C052E0F52A84E0F82A28C007
:1028B00098E0F92A25C0E0E1FE2A22C0F7FC29C0F1
:1028C000892F80538A3070F4F6FE05C0989C902CB6
:1028D0001124980E15C0E89CE02C1124E80EF0E2BB
:1028E000FF2A0EC09E3229F4F6FC67C140E4F42AA8
:1028F00007C09C3619F450E8F52A02C0983649F40E
:10290000F20123FD959123FF91912F01992309F065
:10291000BBCF892F8554833018F08052833038F430
:1029200044E050E0C40ED51E5FE359830FC09335D9
:1029300031F1933621F0933709F056C00BC0F60100
:102940008081898342E050E0C40ED51E510101E030
:1029500010E012C0F601A080B180F6FC03C06FEF5A
:102960007FEF02C0692D70E042E050E0C40ED51E3A
:10297000C5010E94F0158C015FE7F52214C0F60135
:10298000A080B180F6FC03C06FEF7FEF02C0692D1D
:1029900070E042E050E0C40ED51EC5010E94E5156E
:1029A0008C0150E8F52AF3FE07C01AC080E290E0DF
:1029B000B3010E94FB15EA948E2D90E008171907C9
:1029C000A8F30EC0F501F7FC8591F7FE81915F0138
:1029D00090E0B3010E94FB15E110EA940150104011
:1029E0000115110579F7E6C0943611F0993669F5AD
:1029F000F7FE08C0F601208131814281538184E0D5
:102A000090E00AC0F601808191819C01442737FD46
:102A10004095542F82E090E0C80ED91E9FE6F9221F
:102A200057FF09C050954095309521953F4F4F4F26
:102A30005F4FE0E8FE2ACA01B901A1012AE030E0B7
:102A40000E942716B82EB2183CC0953729F41F2DC6
:102A50001F7E2AE030E019C01F2D197F983589F0BC
:102A60009F3631F0903739F0983709F0A6C004C08E
:102A700028E030E00AC0106114FD146020E130E06D
:102A800004C014FD166020E132E017FF08C0F60113
:102A9000608171818281938144E050E008C0F60139
:102AA00080819181BC0180E090E042E050E0C40E62
:102AB000D51EA1010E942716B82EB2188FE7F82E56
:102AC000F122F6FE0BC05EEFF522B91438F4F4FEE5
:102AD00007C0F2FC05C08FEEF82202C01B2D01C01A
:102AE000192DF4FE0DC0FE01EB0DF11D8081803328
:102AF00019F499EEF92208C01F5FF2FE05C003C069
:102B00008F2D867809F01F5F0F2DF3FC14C0F0FEA7
:102B10000FC01E1510F09B2C0BC09B2C9E0C911A05
:102B20001E2D06C080E290E0B3010E94FB151F5FDE
:102B30001E15C0F304C01E1510F4E11A01C0EE24E6
:102B400004FF0FC080E390E0B3010E94FB1502FF79
:102B50001DC001FD03C088E790E00EC088E590E04D
:102B60000BC0802F867891F001FF02C08BE201C07C
:102B700080E2F7FC8DE290E0B3010E94FB1506C0F5
:102B800080E390E0B3010E94FB159A94B914C0F35E
:102B9000BA94F101EB0DF11D808190E0B3010E9428
:102BA000FB15BB20A9F706C080E290E0B3010E94AC
:102BB000FB15EA94EE20C1F74ACEF30166817781D6
:102BC000CB012B96E2E10C94A116FC01059061501B
:102BD00070400110D8F7809590958E0F9F1F089533
:102BE000FC016150704001900110D8F780959095DC
:102BF0008E0F9F1F08950F931F93CF93DF938C0128
:102C0000EB018B8181FF1BC082FF0DC02E813F81B4
:102C10008C819D812817390764F4E881F98101933B
:102C2000F983E88306C0E885F985802F0995892B0B
:102C300031F48E819F8101969F838E8302C00FEFB6
:102C40001FEFC801DF91CF911F910F910895FA01F5
:102C5000AA27283051F1203181F1E8946F936E7FDB
:102C60006E5F7F4F8F4F9F4FAF4FB1E03ED0B4E0CC
:102C70003CD0670F781F891F9A1FA11D680F791F0D
:102C80008A1F911DA11D6A0F711D811D911DA11D1E
:102C900020D009F468943F912AE0269F112430192E
:102CA000305D3193DEF6CF010895462F4770405DC9
:102CB0004193B3E00FD0C9F7F6CF462F4F70405D78
:102CC0004A3318F0495D31FD4052419302D0A9F7D3
:102CD000EACFB4E0A6959795879577956795BA95CD
:102CE000C9F700976105710508959B01AC010A2E93
:102CF00006945795479537952795BA95C9F7620F6A
:102D0000731F841F951FA01D08952F923F924F920D
:102D10005F926F927F928F929F92AF92BF92CF926B
:102D2000DF92EF92FF920F931F93CF93DF93CDB774
:102D3000DEB7CA1BDB0B0FB6F894DEBF0FBECDBFEC
:102D400009942A88398848885F846E847D848C84BD
:102D50009B84AA84B984C884DF80EE80FD800C81C6
:102D60001B81AA81B981CE0FD11D0FB6F894DEBFA9
:0C2D70000FBECDBFED010895F894FFCF19
:102D7C002532693A2532693A2532690053453A259C
:102D8C0037640052453A2537640046453A25376486
:102D9C000042523A25376400544F3A253764004AB2
:102DAC00583A253764004A593A2537640000000028
:0C2DBC0000000000002000D70100000013
:00000001FF
