:100000000C947F000C949C000C949C000C949C001D
:100010000C949C000C949C000C949C000C949C00F0
:100020000C949C000C949C000C949C000C949C00E0
:100030000C949C000C949C000C949C000C94420327
:100040000C949C000C949C000C941B060C949C003B
:100050000C94BE050C949C000C949C000C949C0089
:100060000C949C000C949C000C949C000C949C00A0
:100070000C949C000C949C000C94E6050C949C0041
:100080000C9487050C949C000C949C004D5F4C5282
:10009000004D5F4C46005043436F6D6D5374617467
:1000A00000436F6D6D53746174005374616E6462CC
:1000B00079004A6F79737469636B00537461727469
:1000C000696E672D75702E2E2E0025004D43202859
:1000D000313029204B4F203A2D28004D4320283124
:1000E0003029204F4B203A2D290054657374696ED6
:1000F00067206D6F64756C65732E2E2E00001124C1
:100100001FBECFEFD0E1DEBFCDBF11E0A0E0B1E078
:10011000E6E3FEE102C005900D92A236B107D9F7E1
:1001200012E0A2E6B1E001C01D92A739B107E1F7E4
:100130000E9439080C94190F0C9400009C01E1995D
:10014000FECF3FBB2EBBE09A8DB3089589E189B9FC
:10015000109290001BB888ED8AB986E080939500D4
:1001600083E0809399001092980010929B008CED90
:1001700080939A008EE080939D000895FC01108684
:1001800017821682138212821286158214821182BD
:10019000108211861386089586E487B987E886B9A8
:1001A00008954091760150917701FA01EE0FFF1FFB
:1001B000E858FE4F20813181BC01621B730B2091F6
:1001C000740130917501620F731F70937501609314
:1001D0007401918380834F5F5F4F50937701409309
:1001E00076014430510520F010927701109276018B
:1001F0009B013695279536952795C901089540911D
:100200006A0150916B01FA01EE0FFF1FE459FE4F96
:1002100020813181BC01621B730B209168013091F8
:100220006901620F731F7093690160936801918384
:1002300080834F5F5F4F50936B0140936A0144305E
:10024000510520F010926B0110926A019B013695C6
:10025000279536952795C9010895282F87B1807C69
:1002600087B997B1822F8F73892B87B9369A3699C0
:10027000FECF273039F084B195B10E94FF009C0178
:10028000C901089584B195B10E94D1002FEF33E0E8
:10029000281B390BC901089508958091630080FDE2
:1002A00007C0809167018F5F809367018530B1F14E
:1002B0008091630080FF02C010926701879907C098
:1002C000809166018F5F809366018530E9F08799A0
:1002D00022C0869907C0809165018F5F8093650178
:1002E000853011F1869B02C010926501859907C087
:1002F000809164018F5F809364018530D9F0859B84
:1003000002C010926401089580918F0182608093F1
:100310008F01879BDECF10926601DBCF80918F012A
:10032000816080938F01C4CF80918F01846080931E
:100330008F01D8CF80918F01886080938F01DFCFAC
:100340008091890190918A010A9690938A01809305
:1003500089018091890190918A01885E934009F01A
:10036000089510928A0110928901809188018F5F0F
:1003700080938801809188018C3391F710928801D5
:10038000809187018F5F80938701809187018C33F3
:1003900039F710928701809186018F5F80938601E3
:1003A000809186018831E1F6109286010895FC0162
:1003B000DB018091C60190E091838083408151816F
:1003C0002091C701922F80E0842B952B918380830D
:1003D0008091C80190E09383828342815381209170
:1003E000C901922F80E0842B952B93838283809187
:1003F000CA0190E095838483448155812091CB018B
:10040000922F80E0842B952B958384838091CC015F
:1004100081878091CD0182878091CE0183878091F1
:10042000C60190E011969C938E934D915C9111972B
:100430002091C701922F80E0842B952B11969C93DD
:100440008E938091CF0190E0FB0193838283428160
:1004500053812091D001922F80E0842B952B9383A0
:1004600082838091D10190E095838483448155817A
:100470002091D201922F80E0842B952B9583848349
:100480008091D30181878091D40182878091D501A9
:10049000838708950F93DF93CF93CDB7DEB72F9760
:1004A0000FB6F894DEBF0FBECDBF1982FE013296A3
:1004B00020E030E08091B8019091B901A091BA019B
:1004C000B091BB01022E04C0B695A795979587956C
:1004D0000A94D2F78193285F3F4F2032310551F7BC
:1004E000FE01369620E030E08091BC019091BD0184
:1004F000A091BE01B091BF01022E04C0B695A79590
:10050000979587950A94D2F78193285F3F4F2032C1
:10051000310551F78091C0019091C1018A87809186
:10052000C0019091C1019B878091C2019091C3014C
:100530008C878091C2019091C3019D878091C401F5
:100540009091C5018E878091C4019091C5019F87CC
:100550008FE292E0BE016F5F7F4F4FE022E000E04C
:100560000E94CA0B8CE290E06CE272E00E94820A68
:1005700080912C028830E1F72F960FB6F894DEBFF9
:100580000FBECDBFCF91DF910F91089580919A005A
:100590008F7E80939A00949A80919A0081608093D4
:1005A0009A008CE990E060E971E00E94820A8091F3
:1005B00090018830E1F7949880919A00806180934F
:1005C0009A000895AF92BF92CF92DF92EF92FF927E
:1005D0000F931F93DF93CF93CDB7DEB76E970FB610
:1005E000F894DEBF0FBECDBFE82E20E030E06E01F4
:1005F0000894C11CD11CF601E20FF31F822F880F53
:1006000080832F5F3F4F2E313105A9F711E0FF2482
:10061000EBE0AE2E7AE0B72E83E991E0B6014EE131
:1006200020E00E2D0E94CA0B0E94C6029498A09250
:10063000910180919101883041F080919101893040
:1006400021F0809191018C30A1F780919101883047
:10065000B9F0B09291011F5F1536F1F68F2D6E96AD
:100660000FB6F894DEBF0FBECDBFCF91DF911F91C3
:100670000F91FF90EF90DF90CF90BF90AF900895D3
:10068000F394E7CF1F920F920FB60F9211242F937E
:100690003F934F935F936F937F938F939F93AF930A
:1006A000BF93EF93FF930E94A0010E944D0180E948
:1006B00091E00E94B40B8CE292E00E94B40B809116
:1006C00063018F5F80936301823361F41092630151
:1006D00080916201816080936201809162018260F9
:1006E00080936201FF91EF91BF91AF919F918F91A4
:1006F0007F916F915F914F913F912F910F900FBE1E
:100700000F901F90189580E060E00E9455098AEADA
:1007100090E00E94A7090895EF92FF920F931F9314
:10072000DF93CF93CDB7DEB72A970FB6F894DEBF2D
:100730000FBECDBF7C0180E061E00E945509F7014A
:100740002081318100D000D000D0ADB7BEB7119666
:100750008E010F5F1F4FEDB7FEB71283018380E05C
:1007600091E0FD0193838283358324830E94480CAA
:100770008DB79EB706960FB6F8949EBF0FBE8DBF7D
:10078000C8010E94970980E062E00E945509F701C4
:100790002281338100D000D000D0ADB7BEB7119612
:1007A000EDB7FEB71283018387E091E0FD019383EB
:1007B0008283358324830E94480C8DB79EB70696AA
:1007C0000FB6F8949EBF0FBE8DBFC8010E94970957
:1007D0008AE061E00E945509F701238500D000D02E
:1007E00000D0ADB7BEB71196EDB7FEB71283018347
:1007F0008EE091E0FD0193838283248315820E9421
:10080000480C8DB79EB706960FB6F8949EBF0FBEE4
:100810008DBFC8010E9497098AE062E00E945509D5
:10082000F701228500D000D000D0ADB7BEB7119639
:10083000EDB7FEB71283018385E191E0FD0193835B
:100840008283248315820E94480C8DB79EB706963A
:100850000FB6F8949EBF0FBE8DBFC8010E949709C6
:100860002A960FB6F894DEBF0FBECDBFCF91DF91B1
:100870001F910F91FF90EF9008950F931F93DF93B7
:10088000CF93CDB7DEB72A970FB6F894DEBF0FBE71
:10089000CDBF80E060E00E94550982EB90E00E94AD
:1008A000A70980E061E00E94550920918B013091F9
:1008B0008C0100D000D000D0ADB7BEB711968E012C
:1008C0000F5F1F4FEDB7FEB7128301838CE191E0FC
:1008D000FD0193838283358324830E94480C8DB766
:1008E0009EB706960FB6F8949EBF0FBE8DBFC80187
:1008F0000E94970980E062E00E94550920918D01D5
:1009000030918E0100D000D000D0ADB7BEB71196A7
:10091000EDB7FEB71283018383E291E0FD0193837B
:100920008283358324830E94480C8DB79EB7069638
:100930000FB6F8949EBF0FBE8DBFC8010E949709E5
:100940002A960FB6F894DEBF0FBECDBFCF91DF91D0
:100950001F910F910895EF92FF920F931F93DF93D2
:10096000CF93CDB7DEB72A970FB6F894DEBF0FBE90
:10097000CDBF7C0180E061E00E945509F70120A510
:1009800031A542A553A500D000D000D0ADB7BEB769
:1009900011968E010F5F1F4FEDB7FEB712830183D3
:1009A0008AE291E0FD0193838283358324830E9450
:1009B000480C8DB79EB706960FB6F8949EBF0FBE33
:1009C0008DBFC8010E94970980E062E00E9455092E
:1009D000F70124A535A546A557A500D000D000D025
:1009E000ADB7BEB71196EDB7FEB71283018381E3B1
:1009F00091E0FD0193838283358324830E94480C18
:100A00008DB79EB706960FB6F8949EBF0FBE8DBFEA
:100A1000C8010E94970980E063E00E945509F70130
:100A200024A935A900D000D000D0ADB7BEB711962B
:100A3000EDB7FEB71283018388E391E0FD01938354
:100A40008283358324830E94480C8DB79EB7069617
:100A50000FB6F8949EBF0FBE8DBFC8010E949709C4
:100A60008AE061E00E945509F70120A931A900D070
:100A700000D000D0ADB7BEB71196EDB7FEB7128368
:100A800001838FE391E0FD01938382833583248387
:100A90000E94480C8DB79EB706960FB6F8949EBF7D
:100AA0000FBE8DBFC8010E9497098AE062E00E94D4
:100AB0005509F70122A933A900D000D000D0ADB765
:100AC000BEB71196EDB7FEB71283018386E491E0BD
:100AD000FD0193838283358324830E94480C8DB764
:100AE0009EB706960FB6F8949EBF0FBE8DBFC80185
:100AF0000E9497092A960FB6F894DEBF0FBECDBFAD
:100B0000CF91DF911F910F91FF90EF9008951F9269
:100B10000F920FB60F9211242F933F934F935F9331
:100B20006F937F938F939F93AF93BF93EF93FF93B5
:100B3000809190018230E0F080919A008E7F8093C6
:100B40009A008CE990E060E971E00E94880AFF91C8
:100B5000EF91BF91AF919F918F917F916F915F9135
:100B60004F913F912F910F900FBE0F901F901895AE
:100B700080919A00816080939A00E3CF1F920F9238
:100B80000FB60F9211242F933F934F935F936F9360
:100B90007F938F939F93AF93BF93EF93FF938CE2D9
:100BA00090E06CE272E00E94880AFF91EF91BF91A1
:100BB000AF919F918F917F916F915F914F913F91F5
:100BC0002F910F900FBE0F901F9018951F920F92AC
:100BD0000FB60F9211242F933F934F935F936F9310
:100BE0007F938F939F93AF93BF93EF93FF938091E6
:100BF0009C0060E971E00E94030B80919B0084FFE0
:100C000009C08091C4019091C50101969093C501DE
:100C10008093C401FF91EF91BF91AF919F918F910C
:100C20007F916F915F914F913F912F910F900FBEE8
:100C30000F901F9018951F920F920FB60F921124CC
:100C40002F933F934F935F936F937F938F939F93D4
:100C5000AF93BF93EF93FF938CB16CE272E00E946D
:100C6000030B5C9B09C08091600290916102019628
:100C70009093610280936002FF91EF91BF91AF91D9
:100C80009F918F917F916F915F914F913F912F91A4
:100C90000F900FBE0F901F9018950F931F93DF9327
:100CA000CF93CDB7DEB729970FB6F894DEBF0FBE4E
:100CB000CDBF8CE060E00E94550920918601309103
:100CC0008701409188018DB79EB70C970FB6F894B5
:100CD0009EBF0FBE8DBFADB7BEB711968E010F5F21
:100CE0001F4FEDB7FEB71283018389E090E0FD014D
:100CF000938382838DE491E0958384832683178296
:100D000030871186428713860E94170C8DB79EB7D5
:100D10000C960FB6F8949EBF0FBE8DBFC8010E94FF
:100D2000970929960FB6F894DEBF0FBECDBFCF91BD
:100D3000DF911F910F91089580918301833009F411
:100D400044C08430A8F0853099F18530B0F482E851
:100D500091E00E944D0680E060E00E94550981E923
:100D600090E00E94A70983E192E00E948C0308951D
:100D70008130C9F0823041F008958630E9F70E9451
:100D80004D060E943D0408950E944D0680E060E0FB
:100D90000E94550981EA90E00E94A70980E991E04C
:100DA0000E94AB0408950E944D060E94830308959B
:100DB00082E891E00E944D0680E060E00E945509C3
:100DC0008CE890E00E94A709089582E891E00E94D3
:100DD0004D0680E060E00E94550986E990E00E949F
:100DE000A7098CE292E00E94AB040895FF920F9352
:100DF0001F93DF93CF93CDB7DEB729970FB6F89443
:100E0000DEBF0FBECDBF80E060E00E9455098AEED4
:100E100090E00E94A7098AE00E94E202F82E80E09A
:100E200061E00E9455098AE58F1508F050C08BEDEE
:100E300090E00E94A70980E062E00E945509EDB7AA
:100E4000FEB738970FB6F894FEBF0FBEEDBFADB733
:100E5000BEB711968E010F5F1F4F1283018389E089
:100E600090E0FD019383828389E591E095838483FB
:100E7000F68217820E94170C8DB79EB708960FB6A0
:100E8000F8949EBF0FBE8DBFC8010E94970988E0ED
:100E900062E00E9455098AEC90E00E94A70920E2D6
:100EA0003EE440E951E0CA010197F1F7215030409A
:100EB000D1F70E946F0929960FB6F894DEBF0FBED6
:100EC000CDBFCF91DF911F910F91FF9008958CECD2
:100ED00090E00E94A709AFCF0F931F938FE78ABBC3
:100EE0008BBB12E01093640003E00093650012B91D
:100EF00013B988E181BB88EF82BB809165008D7F4B
:100F0000809365008CE00E94B9090E9473098BEB05
:100F100090E00E94A70988E080BF83EA81BF81E05A
:100F200083BF17BF89E189B9109290001BB888ED83
:100F30008AB986E0809395000093990010929800FA
:100F400010929B008CED80939A008EE080939D0020
:100F500086E487B987E886B980E991E00E94EC0AC7
:100F60008CE292E00E94EC0A10921B0210921A028C
:100F700010921902109216021092150210921D0280
:100F8000109218021092170210921402109213027B
:100F900010921C0210921E0210920F0210920E026A
:100FA00010920D0210920A02109209021092110280
:100FB00010920C0210920B0210920802109207027B
:100FC000109210021092120210920302109202026A
:100FD000109201021092FE011092FD011092050282
:100FE000109200021092FF011092FC011092FB017E
:100FF0001092040210920602109228021092270208
:1010000010922602109223021092220210922A02BB
:1010100010922502109224021092210210922002B6
:101020001092290210922B02E199FECF80E090E00D
:101030009FBB8EBBE09A8DB38093EB018CEE91E069
:1010400061E070E04FE050E02EE930E00E94FB0BE1
:1010500028E032E540E951E0CA010197F1F721505B
:101060003040D1F70E946F09949878941F910F91A6
:101070000895DF92EF92FF920F931F93DF93CF9328
:1010800000D0CDB7DEB7109283010E946C070E949A
:10109000F60681E0809383017E010894E11CF11C37
:1010A000DD24D3941BE08091620180FD56C08091C5
:1010B000620181FD5DC087E00E942D0190938C014B
:1010C00080938B0186E00E942D0190938E01809386
:1010D0008D0180918D0190918E018F5F914097FDE0
:1010E00066C095958795959587958983892F990FE2
:1010F000990B8A8383E991E0B70142E024E00AE09A
:101100000E94CA0B0E94C60280918F0180FD3CC0E4
:1011100083E991E060E070E040E023E00AE00E94B3
:10112000CA0B0E94C602949810939101809191017C
:10113000883041F080919101893021F080919101B6
:101140008C30A1F780919101883099F18AE08093E9
:1011500091018091620180FFAACF809162018E7F10
:10116000809362010E949C068091620181FFA3CF5F
:10117000809162018D7F8093620180E991E06CE251
:1011800072E00E944A0297CF0E946F09809183010A
:101190008F5F8093830180918301873010F0D0921C
:1011A000830180918F018E7F80938F01B1CF039651
:1011B00098CF83E192E067E072E00E94D701C6CF4A
:1011C000662349F1A89AA998A39AA49AA59AA69ADF
:1011D000AE98AD98AC98AB9887FD1FC086FDAD9AD0
:1011E00085FDAC9A84FDAB9AAA9A00C0AA98AE98E5
:1011F000AD98AC98AB9883FDAE9A82FDAD9A81FD17
:10120000AC9A80FDAB9AAA9A00C0AA98AB9AAC9A05
:10121000AD9AAE9A0895A898D6CFAE9ADFCF88231C
:1012200009F1A89AA99AA398A498A598A698AA9A09
:1012300000C09B9B15C080E19C9980629D99806451
:101240009E998068AA9800C0AA9A00C09B99816064
:101250009C9982609D9984609E998860AA9808955F
:1012600080E0EACFA898DECF80E00E940F0987FDDA
:10127000FBCF88E090E00197F1F780E00E940F0932
:1012800008951F93182F0E943409812F60E00E9457
:10129000E0081F9108951F93182F0E943409812F91
:1012A00061E00E94E0081F910895662341F06130DB
:1012B00071F0623041F08C520E94410908958058CB
:1012C0000E94410908958C560E9441090895805456
:1012D0000E94410908950E94340990E0089581E038
:1012E0000E944109089582E00E94410908951F93D8
:1012F000182F0E943409982F1A3051F4843170F05D
:101300008054843180F094519C3278F080E807C09A
:10131000812F61E00E94E0081F91089580EC0E94F7
:1013200041091F91089584E9FACF84EDF8CFCF9356
:10133000DF93FC018081882339F0EF010E94770957
:10134000898121968823D1F7DF91CF910895CF939A
:10135000DF93FC018491882349F0EF0121960E94DC
:101360007709FE01219684918823C9F7DF91CF91F7
:1013700008951F93182FA09AA19AA29AA39AA49AAB
:10138000A59AA69A80E09AEF0197F1F7AC9AAB9AEA
:10139000AA9A00C0AA9880E09EE40197F1F7AA9A61
:1013A00000C0AA9880E091E0FC013197F1F7AA9A79
:1013B00000C0AA98FC013197F1F7AB98AA9A00C037
:1013C000AA980197F1F788E20E94410988E00E94FB
:1013D00041090E946F0986E00E944109812F0E9405
:1013E00041091F91089570E06827792780E090E017
:1013F00021E030EA08C07695679562277327019649
:101400008830910541F060FDF6CF7695679501969D
:1014100088309105C1F7CB010895CF93DF93EC019C
:1014200030E0E0E0F0E0A1E0B0EA08C036952795B2
:101430002A273B273196E830F10541F020FDF6CF11
:10144000369527953196E830F105C1F7E62FF0E0A3
:10145000E227F32720E030E0A1E0B0EA09C0F695EA
:10146000E795EA27FB272F5F3F4F2830310549F0EA
:10147000E0FDF5CFF695E7952F5F3F4F283031051A
:10148000B9F750E04E275F2780E090E021E030EA96
:1014900008C05695479542275327019688309105F5
:1014A00041F040FDF6CF569547950196883091055D
:1014B000C1F7209719F1662309F17C2FCE01FC01B9
:1014C00021E030EA808190E04827592780E090E0D1
:1014D00008C05695479542275327019688309105B5
:1014E00041F040FDF6CF569547950196883091051D
:1014F000C1F731968E2F871B861720F3CA01DF9123
:10150000CF910895FC01DB011C928AEA8083089543
:10151000DC01FB018081833009F44BC0843048F04A
:10152000853079F1853070F08630C1F18730D9F09F
:1015300008958130C9F1823088F083E0808383A1EF
:101540008C93089585E0808380918101E80FF11DDF
:1015500093819C938F5F80938101089581E08083C4
:101560008BEA8C93089588E0808380A591A5A2A53D
:10157000B3A50196A11DB11D80A791A7A2A7B3A7EE
:10158000089583A1909181019817D8F4E90FF11D76
:1015900083818C939F5F90938101089587E080837E
:1015A00085A196A19C93089582E0808387A18C9366
:1015B000089583A1882369F084E0808384A18C93BB
:1015C000089586E080831092810185A196A18C9375
:1015D000089585E08083F2CFFC01009799F088E0C0
:1015E00080838AE0818310A611A612A613A6128218
:1015F00011AA10AA14A615A616A617A613AA12AA0F
:1016000015AA14AA08950F931F93CF93DF93482F21
:10161000EB011A828981843009F455C0853078F055
:101620008630D1F1863018F1873009F463C08B30F1
:1016300009F45AC0DF91CF911F910F910895823024
:10164000C1F1833040F0403258F484E08983CA5AB3
:10165000DF4F4883EFCF813069F74B3A09F473C00D
:101660008AE08983DF91CF911F910F910895809136
:101670008001FB01E80FF11D46AB8F5F8093800175
:10168000CA5ADF4F9881C655D040891799F686E02F
:10169000898310928001CECF87E08983842F90E0E8
:1016A000C85ADF4F99838883DF91CF911F910F91A3
:1016B000089583E08983C65ADF4F4883DF91CF9135
:1016C0001F910F910895CA5ADF4F8881C655D040A7
:1016D0008823B1F185E08983C95ADF4F4883DF91C0
:1016E000CF911F910F9108954A3A09F0B9CF81E047
:1016F0008983A0CF8B01085A1F4FF80120813181C7
:10170000942F80E0822B932B91838083CA5ADF4FE2
:101710006991488123962881CA55D040CE01C6964A
:101720000E940D0AF801208131818217930771F020
:1017300088A999A9019699AB88AB8CE089837ACF67
:1017400086E08983C9CF82E0898374CF88E089836A
:101750008CA59DA5AEA5BFA50196A11DB11D8CA709
:101760009DA7AEA7BFA766CFFC018181883089F015
:1017700081818A3071F082818F5F828381508330D2
:1017800040F0128282A993A9019693AB82AB89E0C3
:1017900081830895EF92FF920F931F93CF93DF936E
:1017A000EC017B01142F0CA348A329A3CB01642FC8
:1017B000422F202F0E940D0A9BA38AA3812F8150C4
:1017C0008F3148F4E114F10431F0CE01B701412F1B
:1017D00050E00E94F20BDF91CF911F910F91FF908B
:1017E000EF900895FB01DC0102C001900D92415081
:1017F0005040D8F70895A0E0B0E0E1E0FCE00C94A0
:10180000EC0E7C01EB018A01690109C0CE01219631
:10181000F6010995F70181937F01015010400115F0
:101820001105A1F7CDB7DEB7E8E00C94080FAEE0E4
:10183000B0E0EDE1FCE00C94F00E0D891E898F897B
:10184000988D97FF02C080E090E801979E838D837A
:101850001A83098386E08C839E01255E3F4FCE016B
:101860000196698D7A8DA9010E946C0C4D815E8173
:1018700057FD0AC02F813885421753070CF49A018F
:10188000020F131FF80110822E96E4E00C940C0F47
:10189000AEE0B0E0EEE4FCE00C94F00E0D891E89A1
:1018A00086E08C831A8309838FEF9FE79E838D8365
:1018B0009E01275E3F4FCE0101966F89788DA90169
:1018C0000E946C0C2F813885020F131FF8011082C3
:1018D0002E96E4E00C940C0FABE0B0E0E2E7FCE005
:1018E0000C94E20E3C012B016A01FC011782168266
:1018F000838181FD03C06FEF7FEFBFC19AE0892E26
:101900001E010894211C311CF3012381F20123FDE7
:10191000859123FF81912F01882309F4ABC1853282
:1019200039F423FD859123FF81912F01853229F41C
:1019300090E0B3010E94580EE7CF982FFF24EE24C9
:101940009924FFE1FF15B8F0903261F0933281F0F5
:101950009B3231F09D3249F0903369F441E024C06C
:1019600052E0F52A84E0F82A28C098E0F92A25C038
:10197000E0E1FE2A22C0F7FC29C0892F80538A307B
:1019800070F4F6FE05C0989C902C1124980E15C09A
:10199000E89CE02C1124E80EF0E2FF2A0EC09E32F3
:1019A00029F4F6FC67C140E4F42A07C09C3619F418
:1019B00050E8F52A02C0983649F4F20123FD9591CA
:1019C00023FF91912F01992309F0BBCF892F8554D3
:1019D000833018F08052833038F444E050E0C40E75
:1019E000D51E5FE359830FC0933531F1933621F053
:1019F000933709F056C00BC0F6018081898342E01D
:101A000050E0C40ED51E510101E010E012C0F601F5
:101A1000A080B180F6FC03C06FEF7FEF02C0692D9C
:101A200070E042E050E0C40ED51EC5010E944D0E8C
:101A30008C015FE7F52214C0F601A080B180F6FCAE
:101A400003C06FEF7FEF02C0692D70E042E050E00D
:101A5000C40ED51EC5010E94420E8C0150E8F52A25
:101A6000F3FE07C01AC080E290E0B3010E94580E56
:101A7000EA948E2D90E008171907A8F30EC0F5011F
:101A8000F7FC8591F7FE81915F0190E0B3010E9420
:101A9000580EE110EA94015010400115110579F734
:101AA000E6C0943611F0993669F5F7FE08C0F601E4
:101AB000208131814281538184E090E00AC0F601A7
:101AC000808191819C01442737FD4095542F82E00D
:101AD00090E0C80ED91E9FE6F92257FF09C0509525
:101AE0004095309521953F4F4F4F5F4FE0E8FE2ADC
:101AF000CA01B901A1012AE030E00E94840EB82E8B
:101B0000B2183CC0953729F41F2D1F7E2AE030E023
:101B100019C01F2D197F983589F09F3631F0903705
:101B200039F0983709F0A6C004C028E030E00AC0B8
:101B3000106114FD146020E130E004C014FD166053
:101B400020E132E017FF08C0F601608171818281D7
:101B5000938144E050E008C0F60180819181BC018E
:101B600080E090E042E050E0C40ED51EA1010E944A
:101B7000840EB82EB2188FE7F82EF122F6FE0BC0B5
:101B80005EEFF522B91438F4F4FE07C0F2FC05C08C
:101B90008FEEF82202C01B2D01C0192DF4FE0DC0DE
:101BA000FE01EB0DF11D8081803319F499EEF922CD
:101BB00008C01F5FF2FE05C003C08F2D867809F0B4
:101BC0001F5F0F2DF3FC14C0F0FE0FC01E1510F0A8
:101BD0009B2C0BC09B2C9E0C911A1E2D06C080E2E4
:101BE00090E0B3010E94580E1F5F1E15C0F304C0A1
:101BF0001E1510F4E11A01C0EE2404FF0FC080E3AB
:101C000090E0B3010E94580E02FF1DC001FD03C009
:101C100088E790E00EC088E590E00BC0802F8678C2
:101C200091F001FF02C08BE201C080E2F7FC8DE27F
:101C300090E0B3010E94580E06C080E390E0B3012B
:101C40000E94580E9A94B914C0F3BA94F101EB0DA6
:101C5000F11D808190E0B3010E94580EBB20A9F7CE
:101C600006C080E290E0B3010E94580EEA94EE2094
:101C7000C1F74ACEF30166817781CB012B96E2E171
:101C80000C94FE0EFC010590615070400110D8F7D5
:101C9000809590958E0F9F1F0895FC0161507040B4
:101CA00001900110D8F7809590958E0F9F1F089591
:101CB0000F931F93CF93DF938C01EB018B8181FFF7
:101CC0001BC082FF0DC02E813F818C819D81281712
:101CD000390764F4E881F9810193F983E88306C048
:101CE000E885F985802F0995892B31F48E819F81B4
:101CF00001969F838E8302C00FEF1FEFC801DF9113
:101D0000CF911F910F910895FA01AA27283051F120
:101D1000203181F1E8946F936E7F6E5F7F4F8F4F1C
:101D20009F4FAF4FB1E03ED0B4E03CD0670F781F7B
:101D3000891F9A1FA11D680F791F8A1F911DA11D60
:101D40006A0F711D811D911DA11D20D009F4689499
:101D50003F912AE0269F11243019305D3193DEF641
:101D6000CF010895462F4770405D4193B3E00FD0F7
:101D7000C9F7F6CF462F4F70405D4A3318F0495DE2
:101D800031FD4052419302D0A9F7EACFB4E0A695C5
:101D90009795879577956795BA95C9F700976105E7
:101DA000710508959B01AC010A2E0694579547953D
:101DB00037952795BA95C9F7620F731F841F951F32
:101DC000A01D08952F923F924F925F926F927F9243
:101DD0008F929F92AF92BF92CF92DF92EF92FF923B
:101DE0000F931F93CF93DF93CDB7DEB7CA1BDB0BE7
:101DF0000FB6F894DEBF0FBECDBF09942A8839888C
:101E000048885F846E847D848C849B84AA84B98492
:101E1000C884DF80EE80FD800C811B81AA81B9819E
:101E2000CE0FD11D0FB6F894DEBF0FBECDBFED01B2
:061E30000895F894FFCFB5
:101E360052533A2537640041533A25376400544DCE
:101E46003A2537750043553A253775004A583A25DD
:101E56003764004A593A2537640053453A253775A1
:101E66000052453A2537750046453A2537750042F2
:101E7600523A25377500544F3A2537750025327585
:101E86003A2532753A253275004543484F3A25338F
:021E96007500D5
:00000001FF
