:100000000C947A000C9497000C9497000C94970031
:100010000C9497000C9497000C9497000C94970004
:100020000C9497000C9497000C9497000C949700F4
:100030000C9497000C9497000C9497000C94BD02BC
:100040000C9497000C9497000C949B030C949700CD
:100050000C943E030C9497000C9497000C9497001A
:100060000C9497000C9497000C9497000C949700B4
:100070000C9497000C9497000C9466030C949700D2
:100080000C9407030C9497000C9497005043436F13
:100090006D6D5374617400436F6D6D5374617400C2
:1000A0005374616E646279004A6F79737469636B2B
:1000B000005374617274696E672D75702E2E2E0058
:1000C00025004D432028313029204B4F203A2D2840
:1000D000004D432028313029204F4B203A2D290054
:1000E00054657374696E67206D6F64756C65732EEB
:1000F0002E2E000011241FBECFEFD0E1DEBFCDBFFA
:1001000011E0A0E0B1E0ECE2FAE102C005900D924E
:10011000A634B107D9F712E0A6E4B1E001C01D9200
:10012000AB32B107E1F70E946C060C94140D0C94ED
:10013000000089E189B9109290001BB888ED8AB956
:1001400086E08093950083E0809399001092980058
:1001500010929B008CED80939A008EE080939D001E
:10016000089586E487B987E886B9089540915A01D1
:1001700050915B01FA01EE0FFF1FE45AFE4F208100
:100180003181BC01621B730B2091580130915901E0
:10019000620F731F7093590160935801918380839C
:1001A0004F5F5F4F50935B0140935A0144305105BC
:1001B00020F010925B0110925A019B013695279511
:1001C00036952795C901089540914E0150914F01F0
:1001D000FA01EE0FFF1FE05BFE4F20813181BC0171
:1001E000621B730B20914C0130914D01620F731F04
:1001F00070934D0160934C01918380834F5F5F4FFB
:1002000050934F0140934E014430510520F010921D
:100210004F0110924E019B013695279536952795F3
:10022000C9010895282F87B1807C87B997B1822FA3
:100230008F73892B87B9369A3699FECF273039F0DC
:1002400084B195B10E94E4009C01C901089584B174
:1002500095B10E94B6002FEF33E0281B390BC9017E
:10026000089508958091630080FD07C080914B013F
:100270008F5F80934B018530B1F18091630080FFE7
:1002800002C010924B01879907C080914A018F5F8D
:1002900080934A018530E9F0879922C0869907C08A
:1002A000809149018F5F80934901853011F1869BD0
:1002B00002C010924901859907C0809148018F5F63
:1002C000809348018530D9F0859B02C01092480187
:1002D000089580917301826080937301879BDECFC4
:1002E00010924A01DBCF809173018160809373018A
:1002F000C4CF80917301846080937301D8CF8091C3
:100300007301886080937301DFCF80916D019091BC
:100310006E010A9690936E0180936D0180916D013C
:1003200090916E01885E934009F0089510926E01DD
:1003300010926D0180916C018F5F80936C018091B0
:100340006C018C3391F710926C0180916B018F5F7F
:1003500080936B0180916B018C3339F710926B01A4
:1003600080916A018F5F80936A0180916A01883170
:10037000E1F610926A0108950F93DF93CF93CDB702
:10038000DEB72F970FB6F894DEBF0FBECDBF198230
:10039000AE014E5F5F4FFA0182E081938E5F8E3136
:1003A000E1F720E030E080919C0190919D01A091C7
:1003B0009E01B0919F01022E04C0B695A795979516
:1003C00087950A94D2F7FA018193AF01285F3F4FD6
:1003D0002032310541F7FE01369620E030E0809171
:1003E000A0019091A101A091A201B091A301022EC0
:1003F00004C0B695A795979587950A94D2F78193EF
:10040000285F3F4F2032310551F78091A401909130
:10041000A5018A878091A4019091A5019B87809175
:10042000A6019091A7018C878091A6019091A701C8
:100430009D878091A8019091A9018E878091A80144
:100440009091A9019F8783ED91E0BE016F5F7F4F7F
:100450004FE022E000E00E94E1098CE290E060EDD4
:1004600071E00E94AA088091D0018830E1F72F96B0
:100470000FB6F894DEBF0FBECDBFCF91DF910F91C5
:10048000089580919A008F7E80939A00949A80912B
:100490009A00816080939A008CE990E064E771E0B3
:1004A0000E94AA08809174018830E1F794988091A5
:1004B0009A00806180939A000895AF92BF92CF9284
:1004C000DF92EF92FF920F931F93DF93CF93CDB7FD
:1004D000DEB76E970FB6F894DEBF0FBECDBFE82E25
:1004E00020E030E06E010894C11CD11CF601E20F3F
:1004F000F31F822F880F80832F5F3F4F2E313105EE
:10050000A9F711E0FF24EBE0AE2E7AE0B72E87E7E3
:1005100091E0B6014EE120E00E2D0E94E1090E941B
:1005200041029498A092750180917501883041F044
:1005300080917501893021F0809175018C30A1F78F
:10054000809175018830B9F0B09275011F5F153642
:10055000F1F68F2D6E960FB6F894DEBF0FBECDBFAD
:10056000CF91DF911F910F91FF90EF90DF90CF908F
:10057000BF90AF900895F394E7CF1F920F920FB6FC
:100580000F9211242F933F934F935F936F937F9319
:100590008F939F93AF93BF93EF93FF930E94850137
:1005A0000E94320184E791E00E94CB0980ED91E046
:1005B0000E94CB09809147018F5F8093470182336E
:1005C00061F4109247018091460181608093460159
:1005D00080914601826080934601FF91EF91BF9127
:1005E000AF919F918F917F916F915F914F913F91CB
:1005F0002F910F900FBE0F901F90189580E060E034
:100600000E947F0780EA90E00E94D10708951F9220
:100610000F920FB60F9211242F933F934F935F9336
:100620006F937F938F939F93AF93BF93EF93FF93BA
:10063000809174018230E0F080919A008E7F8093E7
:100640009A008CE990E064E771E00E94B008FF91A5
:10065000EF91BF91AF919F918F917F916F915F913A
:100660004F913F912F910F900FBE0F901F901895B3
:1006700080919A00816080939A00E3CF1F920F923D
:100680000FB60F9211242F933F934F935F936F9365
:100690007F938F939F93AF93BF93EF93FF938CE2DE
:1006A00090E060ED71E00E94B008FF91EF91BF9182
:1006B000AF919F918F917F916F915F914F913F91FA
:1006C0002F910F900FBE0F901F9018951F920F92B1
:1006D0000FB60F9211242F933F934F935F936F9315
:1006E0007F938F939F93AF93BF93EF93FF938091EB
:1006F0009C0064E771E00E94250980919B0084FFC3
:1007000009C08091A8019091A90101969093A90137
:100710008093A801FF91EF91BF91AF919F918F912D
:100720007F916F915F914F913F912F910F900FBEED
:100730000F901F9018951F920F920FB60F921124D1
:100740002F933F934F935F936F937F938F939F93D9
:10075000AF93BF93EF93FF938CB160ED71E00E9474
:1007600025095C9B09C080910402909105020196C5
:100770009093050280930402FF91EF91BF91AF9196
:100780009F918F917F916F915F914F913F912F91A9
:100790000F900FBE0F901F9018950F931F93DF932C
:1007A000CF93CDB7DEB72A970FB6F894DEBF0FBE52
:1007B000CDBF80E060E00E947F0788EA90E00E9461
:1007C000D10780E061E00E947F0720916F013091A6
:1007D000700100D000D000D0ADB7BEB711968E0129
:1007E0000F5F1F4FEDB7FEB71283018380E091E0EA
:1007F000FD0193838283358324830E94430A8DB74E
:100800009EB706960FB6F8949EBF0FBE8DBFC80167
:100810000E94C10780E062E00E947F072091710181
:100820003091720100D000D000D0ADB7BEB71196A4
:10083000EDB7FEB71283018387E091E0FD0193835A
:100840008283358324830E94430A8DB79EB7069620
:100850000FB6F8949EBF0FBE8DBFC8010E94C1079E
:100860002A960FB6F894DEBF0FBECDBFCF91DF91B1
:100870001F910F910895EF92FF920F931F93DF93B3
:10088000CF93CDB7DEB72A970FB6F894DEBF0FBE71
:10089000CDBF7C0180E061E00E947F07F70120A5C9
:1008A00031A542A553A500D000D000D0ADB7BEB74A
:1008B00011968E010F5F1F4FEDB7FEB712830183B4
:1008C0008EE091E0FD0193838283358324830E942F
:1008D000430A8DB79EB706960FB6F8949EBF0FBE1B
:1008E0008DBFC8010E94C10780E062E00E947F07BF
:1008F000F70124A535A546A557A500D000D000D006
:10090000ADB7BEB71196EDB7FEB71283018385E18F
:1009100091E0FD0193838283358324830E94430AFF
:100920008DB79EB706960FB6F8949EBF0FBE8DBFCB
:10093000C8010E94C10780E063E00E947F07F701C1
:1009400024A935A900D000D000D0ADB7BEB711960C
:10095000EDB7FEB7128301838CE191E0FD01938333
:100960008283358324830E94430A8DB79EB70696FF
:100970000FB6F8949EBF0FBE8DBFC8010E94C1077D
:100980008AE061E00E947F07F70120A931A900D029
:1009900000D000D0ADB7BEB71196EDB7FEB7128349
:1009A000018383E291E0FD01938382833583248375
:1009B0000E94430A8DB79EB706960FB6F8949EBF65
:1009C0000FBE8DBFC8010E94C1078AE062E00E948D
:1009D0007F07F70122A933A900D000D000D0ADB71E
:1009E000BEB71196EDB7FEB7128301838AE291E09C
:1009F000FD0193838283358324830E94430A8DB74C
:100A00009EB706960FB6F8949EBF0FBE8DBFC80165
:100A10000E94C1072A960FB6F894DEBF0FBECDBF65
:100A2000CF91DF911F910F91FF90EF9008950F9359
:100A30001F93DF93CF93CDB7DEB729970FB6F89406
:100A4000DEBF0FBECDBF8CE060E00E947F0720912B
:100A50006A0130916B0140916C018DB79EB70C9784
:100A60000FB6F8949EBF0FBE8DBFADB7BEB711963F
:100A70008E010F5F1F4FEDB7FEB71283018389E030
:100A800090E0FD019383828381E391E095838483E9
:100A90002683178230871186428713860E94120AA6
:100AA0008DB79EB70C960FB6F8949EBF0FBE8DBF44
:100AB000C8010E94C10729960FB6F894DEBF0FBE89
:100AC000CDBFCF91DF911F910F9108958091670164
:100AD000823099F0833028F08330F1F0843041F097
:100AE00008958130E9F70E9417050E94FE020895DB
:100AF0000E9417050E94CD0308950E94170580E00B
:100B000060E00E947F0787E990E00E94D10784E7B8
:100B100091E00E943B04089586E691E00E9417054B
:100B200080E060E00E947F078CE890E00E94D1079F
:100B300080ED91E00E943B040895FF920F931F9374
:100B4000DF93CF93CDB7DEB729970FB6F894DEBF0A
:100B50000FBECDBF80E060E00E947F0780EE90E096
:100B60000E94D1078AE00E945D02F82E80E061E0D9
:100B70000E947F078AE58F1508F050C081ED90E054
:100B80000E94D10780E062E00E947F07EDB7FEB7C8
:100B900038970FB6F894FEBF0FBEEDBFADB7BEB726
:100BA00011968E010F5F1F4F1283018389E090E041
:100BB000FD01938382838DE391E095838483F682A4
:100BC00017820E94120A8DB79EB708960FB6F89446
:100BD0009EBF0FBE8DBFC8010E94C10788E062E0C2
:100BE0000E947F0780EC90E00E94D10720E23EE463
:100BF00040E951E0CA010197F1F721503040D1F7A7
:100C00000E94990729960FB6F894DEBF0FBECDBF9C
:100C1000CF91DF911F910F91FF90089582EC90E0AA
:100C20000E94D107AFCF0F931F938FE78ABB8BBB77
:100C300012E01093640003E00093650012B913B949
:100C400088E181BB88EF82BB809165008D7F8093B6
:100C500065008CE00E94E3070E949D0781EB90E015
:100C60000E94D10788E080BF83EA81BF81E083BF13
:100C700017BF89E189B9109290001BB888ED8AB935
:100C800086E080939500009399001092980010924E
:100C90009B008CED80939A008EE080939D0086E40B
:100CA00087B987E886B984E791E00E940E0980ED54
:100CB00091E00E940E0920E23EE440E951E0CA01C1
:100CC0000197F1F721503040D1F70E94990794988D
:100CD00078941F910F910895DF92EF92FF920F93F6
:100CE0001F93DF93CF93CDB7DEB76E970FB6F8940F
:100CF000DEBF0FBECDBF109267010E9413060E9497
:100D00009D0581E0809367017E010894E11CF11C40
:100D10001BE0DD24D3948091460180FD55C0809175
:100D2000460181FD5CC020E030E0F701E20FF31FD7
:100D3000822F880F80832F5F3F4F2E313105A9F717
:100D400087E791E0B7014EE120E00AE00E94E10967
:100D50000E9441029498109375018091750188302A
:100D600041F080917501893021F0809175018C30BE
:100D7000A1F78AE08093750187E791E0B7014EE122
:100D800022E00CE00E94E1090E944102809167018B
:100D9000843089F18091730180FFBDCF0E94990753
:100DA000809167018F5F8093670180916701853033
:100DB00010F0D0926701809173018E7F8093730150
:100DC0008091460180FFABCF809146018E7F80935A
:100DD00046010E9466058091460181FFA4CF809163
:100DE00046018D7F8093460184E791E060ED71E0DC
:100DF0000E94BC0198CF87E00E941201909370017D
:100E000080936F0186E00E9412019093720180939B
:100E10007101C0CF662349F1A89AA998A39AA49A10
:100E2000A59AA69AAE98AD98AC98AB9887FD1FC0CE
:100E300086FDAD9A85FDAC9A84FDAB9AAA9A00C056
:100E4000AA98AE98AD98AC98AB9883FDAE9A82FD07
:100E5000AD9A81FDAC9A80FDAB9AAA9A00C0AA987F
:100E6000AB9AAC9AAD9AAE9A0895A898D6CFAE9A9E
:100E7000DFCF882309F1A89AA99AA398A498A598E6
:100E8000A698AA9A00C09B9B15C080E19C9980629D
:100E90009D9980649E998068AA9800C0AA9A00C013
:100EA0009B9981609C9982609D9984609E998860DD
:100EB000AA98089580E0EACFA898DECF80E00E944B
:100EC000390787FDFBCF88E090E00197F1F780E0DC
:100ED0000E94390708951F93182F0E945E07812FE3
:100EE00060E00E940A071F9108951F93182F0E9427
:100EF0005E07812F61E00E940A071F910895662313
:100F000041F0613071F0623041F08C520E946B0709
:100F1000089580580E946B0708958C560E946B07B5
:100F2000089580540E946B0708950E945E0790E028
:100F3000089581E00E946B07089582E00E946B078C
:100F400008951F93182F0E945E07982F1A3051F4AE
:100F5000843170F08054843180F094519C3278F068
:100F600080E807C0812F61E00E940A071F91089561
:100F700080EC0E946B071F91089584E9FACF84EDFD
:100F8000F8CFCF93DF93FC018081882339F0EF0104
:100F90000E94A107898121968823D1F7DF91CF9103
:100FA0000895CF93DF93FC018491882349F0EF01EA
:100FB00021960E94A107FE01219684918823C9F7FA
:100FC000DF91CF9108951F93182FA09AA19AA29A0A
:100FD000A39AA49AA59AA69A80E09AEF0197F1F7AE
:100FE000AC9AAB9AAA9A00C0AA9880E09EE40197B6
:100FF000F1F7AA9A00C0AA9880E091E0FC0131972D
:10100000F1F7AA9A00C0AA98FC013197F1F7AB98C2
:10101000AA9A00C0AA980197F1F788E20E946B078C
:1010200088E00E946B070E94990786E00E946B0788
:10103000812F0E946B071F91089570E06827792720
:1010400080E090E021E030EA08C07695679562275D
:10105000732701968830910541F060FDF6CF7695B3
:101060006795019688309105C1F7CB0108951F93CC
:10107000782F192F30E0E0E0F0E0A1E0B0EA08C0FE
:10108000369527952A273B273196E830F10541F020
:1010900020FDF6CF369527953196E830F105C1F75A
:1010A000E62FF0E0E227F32720E030E0A1E0B0EA0D
:1010B00009C0F695E795EA27FB272F5F3F4F2830B9
:1010C000310549F0E0FDF5CFF695E7952F5F3F4FED
:1010D00028303105B9F750E04E275F2780E090E0D7
:1010E00021E030EA08C056954795422753270196DC
:1010F0008830910541F040FDF6CF56954795019611
:1011000088309105C1F7662311F1872F912F9C013B
:10111000F90121E030EA808190E04827592780E0FA
:1011200090E008C05695479542275327019688308E
:10113000910541F040FDF6CF5695479501968830D0
:101140009105C1F731968E2F871B861720F3CA01B0
:101150001F910895FC01DB011C928AEA80830895A7
:10116000DC01FB018081833009F44BC0843048F0FE
:10117000853079F1853070F08630C1F18730D9F053
:1011800008958130C9F1823088F083E0808383A1A3
:101190008C93089585E0808380916501E80FF11DAF
:1011A00093819C938F5F80936501089581E0808394
:1011B0008BEA8C93089588E0808380A591A5A2A5F1
:1011C000B3A50196A11DB11D80A791A7A2A7B3A7A2
:1011D000089583A1909165019817C0F4E90FF11D5E
:1011E00083818C939F5F90936501089587E080834E
:1011F00085A196A19C93089582E0808387A18C931A
:10120000089584E0808384A18C93089586E0808390
:101210001092650185A196A18C930895FC01009719
:1012200099F088E080838AE0818310A611A612A637
:1012300013A6128211AA10AA14A615A616A617A6FE
:1012400013AA12AA15AA14AA08950F931F93CF9355
:10125000DF93482FEB011A828981843009F455C04D
:10126000853078F08630D1F1863018F1873009F476
:101270005BC08B3009F453C0DF91CF911F910F9168
:1012800008958230C1F1833040F0403258F484E058
:101290008983CA5ADF4F4883EFCF813069F74B3AD1
:1012A00009F468C08AE08983DF91CF911F910F9183
:1012B000089580916401FB01E80FF11D46AB8F5F3B
:1012C00080936401CA5ADF4F9881C655D040891770
:1012D00099F686E0898310926401CECF87E08983F6
:1012E000842F90E0C85ADF4F99838883DF91CF9194
:1012F0001F910F91089583E08983C65ADF4F488379
:10130000DF91CF911F910F91089585E08983C95A8C
:10131000DF4F4883DF91CF911F910F9108954A3A93
:1013200009F681E08983A8CF8B01085A1F4FF80185
:1013300020813181942F80E0822B932B91838083B5
:10134000CA5ADF4F6991488123962881CA55D040F7
:10135000CE01C6960E943708F8012081318182179C
:10136000930759F088A999A9019699AB88AB8CE0AD
:10137000898382CF82E089837FCF88E089838CA5AF
:101380009DA5AEA5BFA50196A11DB11D8CA79DA7CA
:10139000AEA7BFA771CFFC018181883089F0818120
:1013A0008A3071F082818F5F82838150833040F078
:1013B000128282A993A9019693AB82AB89E08183C3
:1013C0000895EF92FF920F931F93CF93DF93EC0159
:1013D000F62EE72E142F0CA348A329A3862F972FB0
:1013E000642F422F202F0E9437089BA38AA3812FAE
:1013F00081508F3138F4CE016F2D7E2D412F50E07A
:101400000E94090ADF91CF911F910F91FF90EF90F9
:101410000895FB01DC0102C001900D924150504043
:10142000D8F70895AEE0B0E0E8E1FAE00C94EB0CF8
:101430000D891E898F89988D97FF02C080E090E802
:1014400001979E838D831A83098386E08C839E0196
:10145000255E3F4FCE010196698D7A8DA9010E94CC
:10146000670A4D815E8157FD0AC02F81388542177A
:1014700053070CF49A01020F131FF80110822E96E5
:10148000E4E00C94070DAEE0B0E0E9E4FAE00C947F
:10149000EB0C0D891E8986E08C831A8309838FEFFC
:1014A0009FE79E838D839E01275E3F4FCE0101966D
:1014B0006F89788DA9010E94670A2F813885020FF4
:1014C000131FF80110822E96E4E00C94070DABE098
:1014D000B0E0EDE6FAE00C94DD0C3C012B016A0172
:1014E000FC0117821682838181FD03C06FEF7FEFBD
:1014F000BFC19AE0892E1E010894211C311CF30102
:101500002381F20123FD859123FF81912F018823FF
:1015100009F4ABC1853239F423FD859123FF819114
:101520002F01853229F490E0B3010E94530CE7CFDC
:10153000982FFF24EE249924FFE1FF15B8F0903294
:1015400061F0933281F09B3231F09D3249F090335B
:1015500069F441E024C052E0F52A84E0F82A28C06A
:1015600098E0F92A25C0E0E1FE2A22C0F7FC29C054
:10157000892F80538A3070F4F6FE05C0989C902C19
:101580001124980E15C0E89CE02C1124E80EF0E21E
:10159000FF2A0EC09E3229F4F6FC67C140E4F42A0B
:1015A00007C09C3619F450E8F52A02C0983649F471
:1015B000F20123FD959123FF91912F01992309F0C9
:1015C000BBCF892F8554833018F08052833038F494
:1015D00044E050E0C40ED51E5FE359830FC093353D
:1015E00031F1933621F0933709F056C00BC0F60164
:1015F0008081898342E050E0C40ED51E510101E094
:1016000010E012C0F601A080B180F6FC03C06FEFBD
:101610007FEF02C0692D70E042E050E0C40ED51E9D
:10162000C5010E94480C8C015FE7F52214C0F60149
:10163000A080B180F6FC03C06FEF7FEF02C0692D80
:1016400070E042E050E0C40ED51EC5010E943D0C82
:101650008C0150E8F52AF3FE07C01AC080E290E042
:10166000B3010E94530CEA948E2D90E008171907DD
:10167000A8F30EC0F501F7FC8591F7FE81915F019B
:1016800090E0B3010E94530CE110EA940150104025
:101690000115110579F7E6C0943611F0993669F510
:1016A000F7FE08C0F601208131814281538184E038
:1016B00090E00AC0F601808191819C01442737FDAA
:1016C0004095542F82E090E0C80ED91E9FE6F92283
:1016D00057FF09C050954095309521953F4F4F4F8A
:1016E0005F4FE0E8FE2ACA01B901A1012AE030E01B
:1016F0000E947F0CB82EB2183CC0953729F41F2DDC
:101700001F7E2AE030E019C01F2D197F983589F01F
:101710009F3631F0903739F0983709F0A6C004C0F1
:1017200028E030E00AC0106114FD146020E130E0D0
:1017300004C014FD166020E132E017FF08C0F60176
:10174000608171818281938144E050E008C0F6019C
:1017500080819181BC0180E090E042E050E0C40EC5
:10176000D51EA1010E947F0CB82EB2188FE7F82E6B
:10177000F122F6FE0BC05EEFF522B91438F4F4FE48
:1017800007C0F2FC05C08FEEF82202C01B2D01C07D
:10179000192DF4FE0DC0FE01EB0DF11D808180338B
:1017A00019F499EEF92208C01F5FF2FE05C003C0CC
:1017B0008F2D867809F01F5F0F2DF3FC14C0F0FE0B
:1017C0000FC01E1510F09B2C0BC09B2C9E0C911A69
:1017D0001E2D06C080E290E0B3010E94530C1F5FF3
:1017E0001E15C0F304C01E1510F4E11A01C0EE244A
:1017F00004FF0FC080E390E0B3010E94530C02FF8E
:101800001DC001FD03C088E790E00EC088E590E0B0
:101810000BC0802F867891F001FF02C08BE201C0DF
:1018200080E2F7FC8DE290E0B3010E94530C06C009
:1018300080E390E0B3010E94530C9A94B914C0F372
:10184000BA94F101EB0DF11D808190E0B3010E948B
:10185000530CBB20A9F706C080E290E0B3010E94C0
:10186000530CEA94EE20C1F74ACEF30166817781EA
:10187000CB012B96E2E10C94F90CFC010590615030
:1018800070400110D8F7809590958E0F9F1F089596
:10189000FC016150704001900110D8F7809590953F
:1018A0008E0F9F1F08950F931F93CF93DF938C018B
:1018B000EB018B8181FF1BC082FF0DC02E813F8118
:1018C0008C819D812817390764F4E881F98101939F
:1018D000F983E88306C0E885F985802F0995892B6F
:1018E00031F48E819F8101969F838E8302C00FEF1A
:1018F0001FEFC801DF91CF911F910F910895FA0159
:10190000AA27283051F1203181F1E8946F936E7F3E
:101910006E5F7F4F8F4F9F4FAF4FB1E03ED0B4E02F
:101920003CD0670F781F891F9A1FA11D680F791F70
:101930008A1F911DA11D6A0F711D811D911DA11D81
:1019400020D009F468943F912AE0269F1124301991
:10195000305D3193DEF6CF010895462F4770405D2C
:101960004193B3E00FD0C9F7F6CF462F4F70405DDB
:101970004A3318F0495D31FD4052419302D0A9F736
:10198000EACFB4E0A6959795879577956795BA9530
:10199000C9F700976105710508959B01AC010A2EF6
:1019A00006945795479537952795BA95C9F7620FCD
:1019B000731F841F951FA01D08952F923F924F9271
:1019C0005F926F927F928F929F92AF92BF92CF92CF
:1019D000DF92EF92FF920F931F93CF93DF93CDB7D8
:1019E000DEB7CA1BDB0B0FB6F894DEBF0FBECDBF50
:1019F00009942A88398848885F846E847D848C8421
:101A00009B84AA84B984C884DF80EE80FD800C8129
:101A10001B81AA81B981CE0FD11D0FB6F894DEBF0C
:0C1A20000FBECDBFED010895F894FFCF7C
:101A2C004A583A253764004A593A253764005345D9
:101A3C003A2537750052453A2537750046453A2503
:101A4C0037750042523A25377500544F3A25377591
:101A5C00002532753A2532753A25327500454348D2
:061A6C004F3A253375001E
:00000001FF
