:100000000C947F000C949C000C949C000C949C001D
:100010000C949C000C949C000C949C000C949C00F0
:100020000C949C000C949C000C949C000C949C00E0
:100030000C949C000C949C000C949C000C94B803B1
:100040000C949C000C949C000C94E3060C949C0073
:100050000C9486060C949C000C949C000C949C00C0
:100060000C949C000C949C000C949C000C949C00A0
:100070000C949C000C949C000C94AE060C949C0078
:100080000C944F060C949C000C949C004D5F4C52B9
:10009000004D5F4C46005043436F6D6D5374617467
:1000A00000436F6D6D53746174005374616E6462CC
:1000B00079004A6F79737469636B00537461727469
:1000C000696E672D75702E2E2E0025004D43202859
:1000D000313029204B4F203A2D28004D4320283124
:1000E0003029204F4B203A2D290054657374696ED6
:1000F00067206D6F64756C65732E2E2E00001124C1
:100100001FBECFEFD0E1DEBFCDBF11E0A0E0B1E078
:10011000E6E6F0E202C005900D92A037B107D9F7EC
:1001200012E0A0E7B1E001C01D92A83CB107E1F7E1
:100130000E941C090C9431100C9400009C01E19960
:10014000FECF3FBB2EBBE09A8DB3089589E189B9FC
:10015000109290001BB888ED8AB986E080939500D4
:1001600087E6809399001092980010929B008CED86
:1001700080939A008EE080939D000895FC01128682
:1001800011861086138212821486148215821682BA
:10019000178211821082138615861686089586E4CA
:1001A00087B987E886B908954091900150919101EF
:1001B000FA01EE0FFF1FEE56FE4F20813181BC0188
:1001C000621B730B20918E0130918F01620F731FA0
:1001D00070938F0160938E01918380834F5F5F4F97
:1001E00050939101409390014A30510520F01092B4
:1001F000910110929001CB016AE070E00E94E60F3D
:10020000CB0108954091780150917901FA01EE0FE8
:10021000FF1FE658FE4F20813181BC01621B730B2A
:100220002091760130917701620F731F70937701EF
:1002300060937601918380834F5F5F4F5093790184
:10024000409378014A30510520F0109279011092C4
:100250007801CB016AE070E00E94E60FCB010895BF
:1002600008958091630080FD07C0809175018F5FC4
:10027000809375018530B1F18091630080FF02C0E9
:1002800010927501879907C0809174018F5F8093E8
:1002900074018530E9F0879922C0869907C0809162
:1002A00073018F5F80937301853011F1869B02C0CB
:1002B00010927301859907C0809172018F5F8093BE
:1002C00072018530D9F0859B02C0109272010895A9
:1002D0008091B40182608093B401879BDECF10923D
:1002E0007401DBCF8091B40181608093B401C4CFED
:1002F0008091B40184608093B401D8CF8091B4011F
:1003000088608093B401DFCF8091AE019091AF01FE
:100310000A969093AF018093AE018091AE019091C7
:10032000AF01885E934009F008951092AF011092DA
:10033000AE018091AD018F5F8093AD018091AD01E1
:100340008C3391F71092AD018091AC018F5F809357
:10035000AC018091AC018C3339F71092AC018091E3
:10036000AB018F5F8093AB018091AB018831E1F6E7
:100370001092AB010895FC018091EB0190E0918314
:100380008083408151812091EC01922F80E0842B69
:10039000952B918380838091ED0190E093838283FC
:1003A000428153812091EE01922F80E0842B952B86
:1003B000938382838091EF0183878091F00184870A
:1003C0008091F10185878091F20186878091F30108
:1003D00090E0A0E0B0E084839583A683B783248176
:1003E0003581468157818091F40190E0A0E0B0E032
:1003F000BA2FA92F982F8827822B932BA42BB52BAC
:1004000084839583A683B783248135814681578170
:100410008091F50190E0A0E0B0E0DC019927882709
:10042000822B932BA42BB52B84839583A683B78330
:1004300024813581468157818091F60190E0A0E0CA
:10044000B0E0B82FAA2799278827822B932BA42BBB
:10045000B52B84839583A683B7838091EB0190E0CD
:10046000FB0191838083408151812091EC01922F87
:1004700080E0842B952B918380838091F70190E01D
:1004800093838283428153812091F801922F80E0EF
:10049000842B952B938382838091F90183878091AC
:1004A000FA0184878091FB0185878091FC01868712
:1004B0008091FD0190E0A0E0B0E084839583A68365
:1004C000B78324813581468157818091FE0190E078
:1004D000A0E0B0E0BA2FA92F982F8827822B932B6A
:1004E000A42BB52B84839583A683B7832481358180
:1004F000468157818091FF0190E0A0E0B0E0DC01EF
:1005000099278827822B932BA42BB52B8483958343
:10051000A683B7832481358146815781809100026B
:1005200090E0A0E0B0E0B82FAA2799278827822B77
:10053000932BA42BB52B84839583A683B78308952F
:10054000282F87B1807C87B997B1822F8F73892B31
:1005500087B9369A3699FECFF894273021F024B126
:1005600035B1C901089584B195B12FEF33E0281B4F
:10057000390BC90108950F93DF93CF93CDB7DEB741
:100580002F970FB6F894DEBF0FBECDBF1982FE01C4
:10059000329620E030E08091DD019091DE01A09163
:1005A000DF01B091E001022E04C0B695A7959795A2
:1005B00087950A94D2F78193285F3F4F2032310507
:1005C00051F7FE01369620E030E08091E1019091F4
:1005D000E201A091E301B091E401022E04C0B695BE
:1005E000A795979587950A94D2F78193285F3F4FF7
:1005F0002032310551F78091E5019091E6018A871B
:100600008091E5019091E6019B878091E7019091AF
:10061000E8018C878091E7019091E8019D878091A6
:10062000E9019091EA018E878091E9019091EA01B8
:100630009F8780E692E0BE016F5F7F4F4FE022E030
:1006400000E00E94CE0C8CE290E06DE572E00E942A
:10065000850B80915D028830E1F72F960FB6F894F4
:10066000DEBF0FBECDBFCF91DF910F910895809176
:100670009A008F7E80939A00949A80919A0081606C
:1006800080939A008CE990E065EB71E00E94850B05
:100690008091B5018830E1F7949880919A0080614B
:1006A00080939A000895AF92BF92CF92DF92EF921B
:1006B000FF920F931F93DF93CF93CDB7DEB76E9763
:1006C0000FB6F894DEBF0FBECDBFD82E20E030E0CD
:1006D0007E010894E11CF11CF701E20FF31F822F49
:1006E000880F80832F5F3F4F2E313105A9F711E02E
:1006F000CC249BE0A92E8AE0B82E88EB91E0B701CC
:100700004EE120E00D2D0E94CE0C0E9437039498FC
:10071000A092B6018091B601883021F08091B60197
:100720008930C1F78091B6018830D1F0B092B6011E
:100730001F5F1B3011F78AE0C89E802D11246E9632
:100740000FB6F894DEBF0FBECDBFCF91DF911F91E2
:100750000F91FF90EF90DF90CF90BF90AF900895F2
:1007600085EB91E00E94840C882301F3C394DECFD3
:100770001F920F920FB60F9211242F933F934F9316
:100780005F936F937F938F939F93AF93BF93EF93F9
:10079000FF930E9484010E94310185EB91E00E9449
:1007A000B80C8DE592E00E94B80C809171018F5FCA
:1007B00080937101823361F4109271018091700114
:1007C00081608093700180917001826080937001DC
:1007D000FF91EF91BF91AF919F918F917F916F9119
:1007E0005F914F913F912F910F900FBE0F901F90EF
:1007F000189580E060E00E94580A8AEA90E00E9422
:10080000AA0A0895EF92FF920F931F93DF93CF935D
:10081000CDB7DEB72A970FB6F894DEBF0FBECDBFB7
:100820007C0180E061E00E94580AF701208131815B
:1008300000D000D000D0ADB7BEB711968E010F5FCB
:100840001F4FEDB7FEB71283018380E091E0FD01F9
:1008500093838283358324830E944C0D8DB79EB78A
:1008600006960FB6F8949EBF0FBE8DBFC8010E94BA
:100870009A0A80E062E00E94580AF70122813381DF
:1008800000D000D000D0ADB7BEB71196EDB7FEB71F
:100890001283018387E091E0FD0193838283358396
:1008A00024830E944C0D8DB79EB706960FB6F89420
:1008B0009EBF0FBE8DBFC8010E949A0A80E063E010
:1008C0000E94580AF701268500D000D000D0ADB7AD
:1008D000BEB71196EDB7FEB7128301838EE091E0AB
:1008E000FD0193838283248315820E944C0D8DB772
:1008F0009EB706960FB6F8949EBF0FBE8DBFC80177
:100900000E949A0A8AE061E00E94580AF701258550
:1009100000D000D000D0ADB7BEB71196EDB7FEB78E
:100920001283018385E191E0FD0193838283248317
:1009300015820E944C0D8DB79EB706960FB6F8949F
:100940009EBF0FBE8DBFC8010E949A0A8AE062E076
:100950000E94580AF701248500D000D000D0ADB71E
:10096000BEB71196EDB7FEB7128301838CE191E01B
:10097000FD0193838283248315820E944C0D8DB7E1
:100980009EB706960FB6F8949EBF0FBE8DBFC801E6
:100990000E949A0A8AE063E00E94580AF7012481C3
:1009A0003581468157818DB79EB708970FB6F89469
:1009B0009EBF0FBE8DBFADB7BEB71196EDB7FEB7E8
:1009C0001283018383E291E0FD0193838283248378
:1009D0003583468357830E944C0D8DB79EB708968A
:1009E0000FB6F8949EBF0FBE8DBFC8010E949A0A31
:1009F0002A960FB6F894DEBF0FBECDBFCF91DF9120
:100A00001F910F91FF90EF9008950F931F93DF9325
:100A1000CF93CDB7DEB72A970FB6F894DEBF0FBEDF
:100A2000CDBF80E060E00E94580A82EB90E00E9417
:100A3000AA0A80E061E00E94580A2091B00130913A
:100A4000B10100D000D000D0ADB7BEB711968E0175
:100A50000F5F1F4FEDB7FEB7128301838AE291E06B
:100A6000FD0193838283358324830E944C0D8DB7CF
:100A70009EB706960FB6F8949EBF0FBE8DBFC801F5
:100A80000E949A0A80E062E00E94580A2091B20116
:100A90003091B30100D000D000D0ADB7BEB71196F1
:100AA000EDB7FEB71283018381E391E0FD019383EB
:100AB0008283358324830E944C0D8DB79EB70696A2
:100AC0000FB6F8949EBF0FBE8DBFC8010E949A0A50
:100AD0002A960FB6F894DEBF0FBECDBFCF91DF913F
:100AE0001F910F910895EF92FF920F931F93DF9341
:100AF000CF93CDB7DEB72A970FB6F894DEBF0FBEFF
:100B0000CDBF7C0180E061E00E94580AF70120A57A
:100B100031A542A553A500D000D000D0ADB7BEB7D7
:100B200011968E010F5F1F4FEDB7FEB71283018341
:100B300088E391E0FD0193838283358324830E94BF
:100B40004C0D8DB79EB706960FB6F8949EBF0FBE9C
:100B50008DBFC8010E949A0A80E062E00E94580A94
:100B6000F70124A535A546A557A500D000D000D093
:100B7000ADB7BEB71196EDB7FEB7128301838FE311
:100B800091E0FD0193838283358324830E944C0D81
:100B90008DB79EB706960FB6F8949EBF0FBE8DBF59
:100BA000C8010E949A0A80E063E00E94580AF70197
:100BB00024A935A900D000D000D0ADB7BEB711969A
:100BC000EDB7FEB71283018386E491E0FD019383C4
:100BD0008283358324830E944C0D8DB79EB7069681
:100BE0000FB6F8949EBF0FBE8DBFC8010E949A0A2F
:100BF0008AE061E00E94580AF70120A931A900D0DB
:100C000000D000D0ADB7BEB71196EDB7FEB71283D6
:100C100001838DE491E0FD019383828335832483F6
:100C20000E944C0D8DB79EB706960FB6F8949EBFE6
:100C30000FBE8DBFC8010E949A0A8AE062E00E943E
:100C4000580AF70122A933A900D000D000D0ADB7CF
:100C5000BEB71196EDB7FEB71283018384E591E02C
:100C6000FD0193838283358324830E944C0D8DB7CD
:100C70009EB706960FB6F8949EBF0FBE8DBFC801F3
:100C80000E949A0A2A960FB6F894DEBF0FBECDBF17
:100C9000CF91DF911F910F91FF90EF9008951F92D8
:100CA0000F920FB60F9211242F933F934F935F93A0
:100CB0006F937F938F939F93AF93BF93EF93FF9324
:100CC0008091B5018230E0F080919A008E7F809310
:100CD0009A008CE990E065EB71E00E948B0BFF912C
:100CE000EF91BF91AF919F918F917F916F915F91A4
:100CF0004F913F912F910F900FBE0F901F9018951D
:100D000080919A00816080939A00E3CF1F920F92A6
:100D10000FB60F9211242F933F934F935F936F93CE
:100D20007F938F939F93AF93BF93EF93FF938CE247
:100D300090E06DE572E00E948B0BFF91EF91BF9107
:100D4000AF919F918F917F916F915F914F913F9163
:100D50002F910F900FBE0F901F9018951F920F921A
:100D60000FB60F9211242F933F934F935F936F937E
:100D70007F938F939F93AF93BF93EF93FF93809154
:100D80009C0065EB71E00E94060C80919B0084FF43
:100D900009C08091E9019091EA0101969093EA01DE
:100DA0008093E901FF91EF91BF91AF919F918F9156
:100DB0007F916F915F914F913F912F910F900FBE57
:100DC0000F901F9018951F920F920FB60F9211243B
:100DD0002F933F934F935F936F937F938F939F9343
:100DE000AF93BF93EF93FF938CB16DE572E00E94D8
:100DF000060C5C9B09C08091910290919202019631
:100E00009093920280939102FF91EF91BF91AF91E5
:100E10009F918F917F916F915F914F913F912F9112
:100E20000F900FBE0F901F9018950F931F93DF9395
:100E3000CF93CDB7DEB729970FB6F894DEBF0FBEBC
:100E4000CDBF8CE060E00E94580A2091AB01309148
:100E5000AC014091AD018DB79EB70C970FB6F894D9
:100E60009EBF0FBE8DBFADB7BEB711968E010F5F8F
:100E70001F4FEDB7FEB71283018389E090E0FD01BB
:100E8000938382838BE591E0958384832683178205
:100E900030871186428713860E941B0D8DB79EB73F
:100EA0000C960FB6F8949EBF0FBE8DBFC8010E946E
:100EB0009A0A29960FB6F894DEBF0FBECDBFCF9128
:100EC000DF911F910F9108958091A801833009F45B
:100ED00048C08430A8F0853099F18530B0F488EAB4
:100EE00091E00E94150780E060E00E94580A81E9C5
:100EF00090E00E94AA0A8EE392E00E940204089504
:100F00008130C9F0823041F008958630E9F70E94BF
:100F100015070E94050508950E94150780E060E00E
:100F20000E94580A81EA90E00E94AA0A85EB91E0AB
:100F30000E94730508950E9415070E94F903089501
:100F400088EA91E00E94150780E060E00E94580A5C
:100F50008CE890E00E94AA0A8FE292E00E940204CC
:100F6000089588EA91E00E94150780E060E00E9401
:100F7000580A86E990E00E94AA0A8DE592E00E9454
:100F800073050895FF920F931F93DF93CF93CDB70F
:100F9000DEB729970FB6F894DEBF0FBECDBF80E055
:100FA00060E00E94580A8AEE90E00E94AA0A8AE055
:100FB0000E945303F82E80E061E00E94580A8AE5FF
:100FC0008F1508F050C08BED90E00E94AA0A80E0D7
:100FD00062E00E94580AEDB7FEB738970FB6F89452
:100FE000FEBF0FBEEDBFADB7BEB711968E010F5F4E
:100FF0001F4F1283018389E090E0FD019383828378
:1010000087E691E095838483F68217820E941B0D08
:101010008DB79EB708960FB6F8949EBF0FBE8DBFD2
:10102000C8010E949A0A88E062E00E94580A8AEC8D
:1010300090E00E94AA0A20E23EE440E951E0CA01A1
:101040000197F1F721503040D1F70E94720A29969A
:101050000FB6F894DEBF0FBECDBFCF91DF911F91C9
:101060000F91FF9008958CEC90E00E94AA0AAFCFF8
:101070001F938FE78ABB8BBB12E01093640083E061
:101080008093650012B913B988E181BB88EF82BBF8
:10109000809165008D7F809365008CE00E94BC0A82
:1010A0000E94760A8BEB90E00E94AA0A88E080BF3B
:1010B00083EA81BF81E083BF17BF89E189B91092BC
:1010C00090001BB888ED8AB986E08093950087E68A
:1010D000809399001092980010929B008CED809361
:1010E0009A008EE080939D0086E487B987E886B9F0
:1010F00085EB91E00E94EF0B8DE592E00E94EF0BF3
:101100001092480210924702109246021092410239
:101110001092400210924A02109242021092430230
:10112000109244021092450210923F0210923E0229
:101130001092490210924B0210924C021092390206
:10114000109238021092370210923202109231023D
:1011500010923B0210923302109234021092350228
:10116000109236021092300210922F0210923A0220
:1011700010923C0210923D0210922A021092290213
:1011800010922802109223021092220210922C0236
:101190001092240210922502109226021092270229
:1011A000109221021092200210922B0210922D0216
:1011B00010922E021092580210925702109256026C
:1011C000109251021092500210925A021092520242
:1011D00010925302109254021092550210924F0234
:1011E00010924E021092590210925B0210925C0211
:1011F000E199FECF80E090E09FBB8EBBE09A8DB37B
:101200008093100281E192E061E070E04FE050E0F5
:101210002EE930E00E94FF0C28E032E540E951E081
:10122000CA010197F1F721503040D1F70E94720AAC
:10123000949878941F910895BF92CF92DF92EF9285
:10124000FF920F931F93DF93CF9300D0CDB7DEB7FC
:101250001092A8010E9438080E94C20781E0809382
:10126000A8016E010894C11CD11C11E0EBE0BE2E58
:1012700070E9E72E71E0F72E8091B40180FD5FC028
:101280008091700180FD71C08091700181FD78C0F6
:1012900087E00E94A0029093B1018093B0017894FE
:1012A00086E00E94A0029093B3018093B2017894EB
:1012B0002091B2013091B3012F5F314037FD72C0F0
:1012C000A90155954795CA010496099708F064C08D
:1012D00080E020E089832A8388EB91E0B60142E038
:1012E00024E00AE00E94CE0C0E94370388EB91E0D4
:1012F00060E070E040E023E00E94CE0C0E943703E3
:101300009498B092B6018091B601883021F0809116
:10131000B6018930C1F78091B601883009F445C023
:101320008AE08093B60128EE33E0C7010197F1F718
:1013300021503040D1F78091B40180FFA1CF0E94AD
:10134000720A8091A8018F5F8093A8018091A80103
:10135000873010F01093A8018091B4018E7F8093A4
:10136000B4018091700180FF8FCF809170018E7FDA
:10137000809370010E9464078091700181FF88CF83
:10138000809170018D7F8093700185EB91E06DE518
:1013900072E00E94BB027CCF842F232F330F330BCC
:1013A000259598CF2F5F3F4F8BCF85EB91E00E9423
:1013B000840C882309F4B4CF8EE392E06FE272E0EC
:1013C0000E94BB01ADCF662349F1A89AA998A39AC0
:1013D000A49AA59AA69AAE98AD98AC98AB9887FDBA
:1013E0001FC086FDAD9A85FDAC9A84FDAB9AAA9A82
:1013F00000C0AA98AE98AD98AC98AB9883FDAE9A11
:1014000082FDAD9A81FDAC9A80FDAB9AAA9A00C08C
:10141000AA98AB9AAC9AAD9AAE9A0895A898D6CFEE
:10142000AE9ADFCF882309F1A89AA99AA398A49825
:10143000A598A698AA9A00C09B9B15C080E19C998C
:1014400080629D9980649E998068AA9800C0AA9A3B
:1014500000C09B9981609C9982609D9984609E994F
:101460008860AA98089580E0EACFA898DECF80E04F
:101470000E94120A87FDFBCF88E090E00197F1F708
:1014800080E00E94120A08951F93182F0E94370AC5
:10149000812F60E00E94E3091F9108951F93182F88
:1014A0000E94370A812F61E00E94E3091F9108958D
:1014B000662341F0613071F0623041F08C520E943D
:1014C000440A089580580E94440A08958C560E9448
:1014D000440A089580540E94440A08950E94370ADD
:1014E00090E0089581E00E94440A089582E00E94FD
:1014F000440A08951F93182F0E94370A982F1A3014
:1015000051F4843170F08054843180F094519C32D5
:1015100078F080E807C0812F61E00E94E3091F9105
:10152000089580EC0E94440A1F91089584E9FACF3F
:1015300084EDF8CFCF93DF93FC018081882339F0CD
:10154000EF010E947A0A898121968823D1F7DF91E1
:10155000CF910895CF93DF93FC018491882349F0C4
:10156000EF0121960E947A0AFE0121968491882338
:10157000C9F7DF91CF9108951F93182FA09AA19AD0
:10158000A29AA39AA49AA59AA69A80E09AEF0197A4
:10159000F1F7AC9AAB9AAA9A00C0AA9880E09EE4B0
:1015A0000197F1F7AA9A00C0AA9880E091E0FC01A7
:1015B0003197F1F7AA9A00C0AA98FC013197F1F788
:1015C000AB98AA9A00C0AA980197F1F788E20E9406
:1015D000440A88E00E94440A0E94720A86E00E943F
:1015E000440A812F0E94440A1F91089570E06827E1
:1015F000792780E090E021E030EA08C07695679591
:101600006227732701968830910541F060FDF6CF7F
:1016100076956795019688309105C1F7CB010895BD
:10162000CF93DF93EC0130E0E0E0F0E0A1E0B0EA3E
:1016300008C0369527952A273B273196E830F105D3
:1016400041F020FDF6CF369527953196E830F1052B
:10165000C1F7E62FF0E0E227F32720E030E0A1E039
:10166000B0EA09C0F695E795EA27FB272F5F3F4FC1
:101670002830310549F0E0FDF5CFF695E7952F5F6D
:101680003F4F28303105B9F750E04E275F2780E003
:1016900090E021E030EA08C056954795422753274D
:1016A00001968830910541F040FDF6CF569547955B
:1016B000019688309105C1F7209719F1662309F149
:1016C0007C2FCE01FC0121E030EA808190E04827A8
:1016D000592780E090E008C0569547954227532748
:1016E00001968830910541F040FDF6CF569547951B
:1016F000019688309105C1F731968E2F871B86178A
:1017000020F3CA01DF91CF910895FC01DB011C9207
:101710008AEA80830895DC01FB018081833009F42B
:101720004BC0843048F0853079F1853070F08630D8
:10173000C1F18730D9F008958130C9F1823088F045
:1017400083E0808383A18C93089585E080838091DA
:10175000A701E80FF11D93819C938F5F8093A701F0
:10176000089581E080838BEA8C93089588E08083DC
:1017700080A591A5A2A5B3A50196A11DB11D80A725
:1017800091A7A2A7B3A7089583A19091A701981745
:10179000D8F4E90FF11D83818C939F5F9093A7018B
:1017A000089587E0808385A196A19C93089582E0A7
:1017B000808387A18C93089583A1882369F084E0B6
:1017C000808384A18C93089586E080831092A70182
:1017D00085A196A18C93089585E08083F2CFFC01CA
:1017E000009799F088E080838AE0818310A611A693
:1017F00012A613A6128211AA10AA14A615A616A63E
:1018000017A613AA12AA15AA14AA0895482FDB0135
:10181000FB0112828181843009F460C0853050F070
:101820008630D9F18630E8F0873009F441C08B303A
:1018300071F10895823009F44AC0833048F0403293
:1018400060F484E0FB018183AA5ABF4F4C93089552
:10185000813079F74B3A09F453C08AE0FD01818366
:1018600008958091A601FB01E80FF11D46AB8F5F43
:101870008093A601AA5ABF4F9C91A655B0408917E4
:10188000C1F686E0FD0181831092A60108954A3ACF
:1018900021F781E0FB018183089587E0FB018183CB
:1018A000842F90E0A85ABF4F11969C938E93089571
:1018B000FB01E85AFF4F20813181942F80E0822B79
:1018C000932B9183808388E0FB018183089583E0DB
:1018D000FB018183A65ABF4F4C930895AA5ABF4F6C
:1018E0008C91A655B040882339F085E0FD018183B5
:1018F000A95ABF4F4C93089586E0FD018183F8CF2C
:1019000082E0FB0181830895CF93DF93EC01CA5AF3
:10191000DF4F6991488123962881CA55D040CE0176
:10192000C6960E94100BC85ADF4F28813981C855CE
:10193000D0408217930759F088A999A9019699ABCD
:1019400088AB8CE0898380E0DF91CF91089588E0B7
:1019500089838CA59DA5AEA5BFA50196A11DB11D2E
:101960008CA79DA7AEA7BFA781E0DF91CF91089577
:10197000FC018181883089F081818A3071F0828117
:101980008F5F82838150833040F0128282A993A9B5
:10199000019693AB82AB89E081830895EF92FF9229
:1019A0000F931F93CF93DF93EC017B01142F0CA3B4
:1019B00048A329A3CB01642F422F202F0E94100B94
:1019C0009BA38AA3812F81508F3148F4E114F10445
:1019D00031F0CE01B701412F50E00E94F60CDF91AB
:1019E000CF911F910F91FF90EF900895FB01DC01C3
:1019F00002C001900D9241505040D8F70895A0E0E8
:101A0000B0E0E5E0FDE00C9404107C01EB018A01FC
:101A1000690109C0CE012196F6010995F70181936C
:101A20007F010150104001151105A1F7CDB7DEB7B8
:101A3000E8E00C942010AEE0B0E0E1E2FDE00C94B0
:101A400008100D891E898F89988D97FF02C080E04C
:101A500090E801979E838D831A83098386E08C83A7
:101A60009E01255E3F4FCE010196698D7A8DA901B9
:101A70000E94700D4D815E8157FD0AC02F8138850F
:101A8000421753070CF49A01020F131FF80110823A
:101A90002E96E4E00C942410AEE0B0E0E2E5FDE028
:101AA0000C9408100D891E8986E08C831A830983A3
:101AB0008FEF9FE79E838D839E01275E3F4FCE0170
:101AC00001966F89788DA9010E94700D2F8138854C
:101AD000020F131FF80110822E96E4E00C942410DC
:101AE000ABE0B0E0E6E7FDE00C94FA0F3C012B011F
:101AF0006A01FC0117821682838181FD03C06FEFAA
:101B00007FEFBFC19AE0892E1E010894211C311C71
:101B1000F3012381F20123FD859123FF81912F01A0
:101B2000882309F4ABC1853239F423FD859123FF65
:101B300081912F01853229F490E0B3010E945C0F5E
:101B4000E7CF982FFF24EE249924FFE1FF15B8F08A
:101B5000903261F0933281F09B3231F09D3249F046
:101B6000903369F441E024C052E0F52A84E0F82A79
:101B700028C098E0F92A25C0E0E1FE2A22C0F7FC3F
:101B800029C0892F80538A3070F4F6FE05C0989CD6
:101B9000902C1124980E15C0E89CE02C1124E80E1E
:101BA000F0E2FF2A0EC09E3229F4F6FC67C140E441
:101BB000F42A07C09C3619F450E8F52A02C098367A
:101BC00049F4F20123FD959123FF91912F0199236F
:101BD00009F0BBCF892F8554833018F080528330B1
:101BE00038F444E050E0C40ED51E5FE359830FC0C3
:101BF000933531F1933621F0933709F056C00BC07D
:101C0000F6018081898342E050E0C40ED51E510167
:101C100001E010E012C0F601A080B180F6FC03C024
:101C20006FEF7FEF02C0692D70E042E050E0C40E1C
:101C3000D51EC5010E94510F8C015FE7F52214C02B
:101C4000F601A080B180F6FC03C06FEF7FEF02C009
:101C5000692D70E042E050E0C40ED51EC5010E941F
:101C6000460F8C0150E8F52AF3FE07C01AC080E247
:101C700090E0B3010E945C0FEA948E2D90E008176B
:101C80001907A8F30EC0F501F7FC8591F7FE8191C5
:101C90005F0190E0B3010E945C0FE110EA940150F3
:101CA00010400115110579F7E6C0943611F0993608
:101CB00069F5F7FE08C0F601208131814281538128
:101CC00084E090E00AC0F601808191819C01442764
:101CD00037FD4095542F82E090E0C80ED91E9FE654
:101CE000F92257FF09C050954095309521953F4FF7
:101CF0004F4F5F4FE0E8FE2ACA01B901A1012AE077
:101D000030E00E94880FB82EB2183CC0953729F4F5
:101D10001F2D1F7E2AE030E019C01F2D197F983536
:101D200089F09F3631F0903739F0983709F0A6C026
:101D300004C028E030E00AC0106114FD146020E106
:101D400030E004C014FD166020E132E017FF08C047
:101D5000F601608171818281938144E050E008C086
:101D6000F60180819181BC0180E090E042E050E08A
:101D7000C40ED51EA1010E94880FB82EB2188FE79D
:101D8000F82EF122F6FE0BC05EEFF522B91438F4FE
:101D9000F4FE07C0F2FC05C08FEEF82202C01B2D36
:101DA00001C0192DF4FE0DC0FE01EB0DF11D808167
:101DB000803319F499EEF92208C01F5FF2FE05C0C6
:101DC00003C08F2D867809F01F5F0F2DF3FC14C020
:101DD000F0FE0FC01E1510F09B2C0BC09B2C9E0C10
:101DE000911A1E2D06C080E290E0B3010E945C0FA4
:101DF0001F5F1E15C0F304C01E1510F4E11A01C0C8
:101E0000EE2404FF0FC080E390E0B3010E945C0F5A
:101E100002FF1DC001FD03C088E790E00EC088E509
:101E200090E00BC0802F867891F001FF02C08BE21A
:101E300001C080E2F7FC8DE290E0B3010E945C0FEC
:101E400006C080E390E0B3010E945C0F9A94B9143D
:101E5000C0F3BA94F101EB0DF11D808190E0B30164
:101E60000E945C0FBB20A9F706C080E290E0B3019E
:101E70000E945C0FEA94EE20C1F74ACEF30166811E
:101E80007781CB012B96E2E10C941610FC010590B2
:101E9000615070400110D8F7809590958E0F9F1F6C
:101EA0000895FC016150704001900110D8F78095B1
:101EB00090958E0F9F1F08950F931F93CF93DF93DD
:101EC0008C01EB018B8181FF1BC082FF0DC02E8135
:101ED0003F818C819D812817390764F4E881F9815D
:101EE0000193F983E88306C0E885F985802F099579
:101EF000892B31F48E819F8101969F838E8302C04E
:101F00000FEF1FEFC801DF91CF911F910F9108953F
:101F1000FA01AA27283051F1203181F1E8946F931A
:101F20006E7F6E5F7F4F8F4F9F4FAF4FB1E03ED0C0
:101F3000B4E03CD0670F781F891F9A1FA11D680F5E
:101F4000791F8A1F911DA11D6A0F711D811D911D91
:101F5000A11D20D009F468943F912AE0269F112406
:101F60003019305D3193DEF6CF010895462F47706A
:101F7000405D4193B3E00FD0C9F7F6CF462F4F70C5
:101F8000405D4A3318F0495D31FD4052419302D023
:101F9000A9F7EACFB4E0A6959795879577956795C9
:101FA000BA95C9F700976105710508959B01AC01C9
:101FB0000A2E06945795479537952795BA95C9F7F0
:101FC000620F731F841F951FA01D0895AA1BBB1BC2
:101FD00051E107C0AA1FBB1FA617B70710F0A61B29
:101FE000B70B881F991F5A95A9F780959095BC014A
:101FF000CD0108952F923F924F925F926F927F9200
:102000008F929F92AF92BF92CF92DF92EF92FF9208
:102010000F931F93CF93DF93CDB7DEB7CA1BDB0BB4
:102020000FB6F894DEBF0FBECDBF09942A88398859
:1020300048885F846E847D848C849B84AA84B98460
:10204000C884DF80EE80FD800C811B81AA81B9816C
:10205000CE0FD11D0FB6F894DEBF0FBECDBFED0180
:062060000895F894FFCF83
:1020660052533A2537640041533A253764004C4FA2
:102076003A25377500544D3A2537750043553A25AC
:1020860037750044493A253764004A583A2537647B
:10209600004A593A2537640053453A2537750052A8
:1020A600453A2537750046453A2537750042523A76
:1020B60025377500544F3A253775002532753A2570
:1020C60032753A253275004543484F3A2533750037
:00000001FF
